{
	"StorageFactory.sol": {
		"StorageFactory": {
			"abi": [
				{
					"inputs": [],
					"name": "createSimpleStorageContract",
					"outputs": [],
					"stateMutability": "nonpayable",
					"type": "function"
				},
				{
					"inputs": [
						{
							"internalType": "uint256",
							"name": "",
							"type": "uint256"
						}
					],
					"name": "listOfsimpleStorageContracts",
					"outputs": [
						{
							"internalType": "contract SimpleStorage",
							"name": "",
							"type": "address"
						}
					],
					"stateMutability": "view",
					"type": "function"
				},
				{
					"inputs": [
						{
							"internalType": "uint256",
							"name": "_simpleStorageIndex",
							"type": "uint256"
						}
					],
					"name": "sfGet",
					"outputs": [
						{
							"internalType": "uint256",
							"name": "",
							"type": "uint256"
						}
					],
					"stateMutability": "view",
					"type": "function"
				},
				{
					"inputs": [
						{
							"internalType": "uint256",
							"name": "_simpleStorageIndex",
							"type": "uint256"
						},
						{
							"internalType": "uint256",
							"name": "_newSimpleStorageNumber",
							"type": "uint256"
						}
					],
					"name": "sfStore",
					"outputs": [],
					"stateMutability": "nonpayable",
					"type": "function"
				}
			],
			"devdoc": {
				"kind": "dev",
				"methods": {},
				"version": 1
			},
			"evm": {
				"assembly": "    /* \"StorageFactory.sol\":120:1101  contract StorageFactory{ ... */\n  mstore(0x40, 0x80)\n  callvalue\n  dup1\n  iszero\n  tag_1\n  jumpi\n  0x00\n  dup1\n  revert\ntag_1:\n  pop\n  dataSize(sub_0)\n  dup1\n  dataOffset(sub_0)\n  0x00\n  codecopy\n  0x00\n  return\nstop\n\nsub_0: assembly {\n        /* \"StorageFactory.sol\":120:1101  contract StorageFactory{ ... */\n      mstore(0x40, 0x80)\n      callvalue\n      dup1\n      iszero\n      tag_1\n      jumpi\n      0x00\n      dup1\n      revert\n    tag_1:\n      pop\n      jumpi(tag_2, lt(calldatasize, 0x04))\n      shr(0xe0, calldataload(0x00))\n      dup1\n      0x1563700f\n      eq\n      tag_3\n      jumpi\n      dup1\n      0x1dda6541\n      eq\n      tag_4\n      jumpi\n      dup1\n      0x43fe9b7b\n      eq\n      tag_5\n      jumpi\n      dup1\n      0xc5f19c20\n      eq\n      tag_6\n      jumpi\n    tag_2:\n      0x00\n      dup1\n      revert\n        /* \"StorageFactory.sol\":484:870  function sfStore(uint256 _simpleStorageIndex, uint256 _newSimpleStorageNumber) public {... */\n    tag_3:\n      tag_7\n      0x04\n      dup1\n      calldatasize\n      sub\n      dup2\n      add\n      swap1\n      tag_8\n      swap2\n      swap1\n      tag_9\n      jump\t// in\n    tag_8:\n      tag_10\n      jump\t// in\n    tag_7:\n      stop\n        /* \"StorageFactory.sol\":284:478  function createSimpleStorageContract() public {... */\n    tag_4:\n      tag_11\n      tag_12\n      jump\t// in\n    tag_11:\n      stop\n        /* \"StorageFactory.sol\":218:269  SimpleStorage[] public listOfsimpleStorageContracts */\n    tag_5:\n      tag_13\n      0x04\n      dup1\n      calldatasize\n      sub\n      dup2\n      add\n      swap1\n      tag_14\n      swap2\n      swap1\n      tag_15\n      jump\t// in\n    tag_14:\n      tag_16\n      jump\t// in\n    tag_13:\n      mload(0x40)\n      tag_17\n      swap2\n      swap1\n      tag_18\n      jump\t// in\n    tag_17:\n      mload(0x40)\n      dup1\n      swap2\n      sub\n      swap1\n      return\n        /* \"StorageFactory.sol\":878:1096  function sfGet(uint256 _simpleStorageIndex) public view returns(uint256){... */\n    tag_6:\n      tag_19\n      0x04\n      dup1\n      calldatasize\n      sub\n      dup2\n      add\n      swap1\n      tag_20\n      swap2\n      swap1\n      tag_15\n      jump\t// in\n    tag_20:\n      tag_21\n      jump\t// in\n    tag_19:\n      mload(0x40)\n      tag_22\n      swap2\n      swap1\n      tag_23\n      jump\t// in\n    tag_22:\n      mload(0x40)\n      dup1\n      swap2\n      sub\n      swap1\n      return\n        /* \"StorageFactory.sol\":484:870  function sfStore(uint256 _simpleStorageIndex, uint256 _newSimpleStorageNumber) public {... */\n    tag_10:\n        /* \"StorageFactory.sol\":709:738  SimpleStorage mySimpleStorage */\n      0x00\n        /* \"StorageFactory.sol\":755:783  listOfsimpleStorageContracts */\n      dup1\n        /* \"StorageFactory.sol\":784:803  _simpleStorageIndex */\n      dup4\n        /* \"StorageFactory.sol\":755:804  listOfsimpleStorageContracts[_simpleStorageIndex] */\n      dup2\n      sload\n      dup2\n      lt\n      tag_25\n      jumpi\n      tag_26\n      tag_27\n      jump\t// in\n    tag_26:\n    tag_25:\n      swap1\n      0x00\n      mstore\n      keccak256(0x00, 0x20)\n      add\n      0x00\n      swap1\n      sload\n      swap1\n      0x0100\n      exp\n      swap1\n      div\n      0xffffffffffffffffffffffffffffffffffffffff\n      and\n        /* \"StorageFactory.sol\":709:805  SimpleStorage mySimpleStorage = SimpleStorage(listOfsimpleStorageContracts[_simpleStorageIndex]) */\n      swap1\n      pop\n        /* \"StorageFactory.sol\":816:831  mySimpleStorage */\n      dup1\n        /* \"StorageFactory.sol\":816:837  mySimpleStorage.store */\n      0xffffffffffffffffffffffffffffffffffffffff\n      and\n      0x6057361d\n        /* \"StorageFactory.sol\":838:861  _newSimpleStorageNumber */\n      dup4\n        /* \"StorageFactory.sol\":816:862  mySimpleStorage.store(_newSimpleStorageNumber) */\n      mload(0x40)\n      dup3\n      0xffffffff\n      and\n      0xe0\n      shl\n      dup2\n      mstore\n      0x04\n      add\n      tag_29\n      swap2\n      swap1\n      tag_23\n      jump\t// in\n    tag_29:\n      0x00\n      mload(0x40)\n      dup1\n      dup4\n      sub\n      dup2\n      0x00\n      dup8\n      dup1\n      extcodesize\n      iszero\n      dup1\n      iszero\n      tag_30\n      jumpi\n      0x00\n      dup1\n      revert\n    tag_30:\n      pop\n      gas\n      call\n      iszero\n      dup1\n      iszero\n      tag_32\n      jumpi\n      returndatasize\n      0x00\n      dup1\n      returndatacopy\n      revert(0x00, returndatasize)\n    tag_32:\n      pop\n      pop\n      pop\n      pop\n        /* \"StorageFactory.sol\":570:870  {... */\n      pop\n        /* \"StorageFactory.sol\":484:870  function sfStore(uint256 _simpleStorageIndex, uint256 _newSimpleStorageNumber) public {... */\n      pop\n      pop\n      jump\t// out\n        /* \"StorageFactory.sol\":284:478  function createSimpleStorageContract() public {... */\n    tag_12:\n        /* \"StorageFactory.sol\":341:379  SimpleStorage newSimpleStorageContract */\n      0x00\n        /* \"StorageFactory.sol\":381:400  new SimpleStorage() */\n      mload(0x40)\n      tag_34\n      swap1\n      tag_35\n      jump\t// in\n    tag_34:\n      mload(0x40)\n      dup1\n      swap2\n      sub\n      swap1\n      0x00\n      create\n      dup1\n      iszero\n      dup1\n      iszero\n      tag_36\n      jumpi\n      returndatasize\n      0x00\n      dup1\n      returndatacopy\n      revert(0x00, returndatasize)\n    tag_36:\n      pop\n        /* \"StorageFactory.sol\":341:400  SimpleStorage newSimpleStorageContract= new SimpleStorage() */\n      swap1\n      pop\n        /* \"StorageFactory.sol\":411:439  listOfsimpleStorageContracts */\n      0x00\n        /* \"StorageFactory.sol\":445:469  newSimpleStorageContract */\n      dup2\n        /* \"StorageFactory.sol\":411:470  listOfsimpleStorageContracts.push(newSimpleStorageContract) */\n      swap1\n      dup1\n      0x01\n      dup2\n      sload\n      add\n      dup1\n      dup3\n      sstore\n      dup1\n      swap2\n      pop\n      pop\n      0x01\n      swap1\n      sub\n      swap1\n      0x00\n      mstore\n      keccak256(0x00, 0x20)\n      add\n      0x00\n      swap1\n      swap2\n      swap1\n      swap2\n      swap1\n      swap2\n      0x0100\n      exp\n      dup2\n      sload\n      dup2\n      0xffffffffffffffffffffffffffffffffffffffff\n      mul\n      not\n      and\n      swap1\n      dup4\n      0xffffffffffffffffffffffffffffffffffffffff\n      and\n      mul\n      or\n      swap1\n      sstore\n      pop\n        /* \"StorageFactory.sol\":330:478  {... */\n      pop\n        /* \"StorageFactory.sol\":284:478  function createSimpleStorageContract() public {... */\n      jump\t// out\n        /* \"StorageFactory.sol\":218:269  SimpleStorage[] public listOfsimpleStorageContracts */\n    tag_16:\n      0x00\n      dup2\n      dup2\n      sload\n      dup2\n      lt\n      tag_38\n      jumpi\n      0x00\n      dup1\n      revert\n    tag_38:\n      swap1\n      0x00\n      mstore\n      keccak256(0x00, 0x20)\n      add\n      0x00\n      swap2\n      pop\n      sload\n      swap1\n      0x0100\n      exp\n      swap1\n      div\n      0xffffffffffffffffffffffffffffffffffffffff\n      and\n      dup2\n      jump\t// out\n        /* \"StorageFactory.sol\":878:1096  function sfGet(uint256 _simpleStorageIndex) public view returns(uint256){... */\n    tag_21:\n        /* \"StorageFactory.sol\":942:949  uint256 */\n      0x00\n        /* \"StorageFactory.sol\":961:990  SimpleStorage mySimpleStorage */\n      dup1\n        /* \"StorageFactory.sol\":993:1021  listOfsimpleStorageContracts */\n      0x00\n        /* \"StorageFactory.sol\":1022:1041  _simpleStorageIndex */\n      dup4\n        /* \"StorageFactory.sol\":993:1042  listOfsimpleStorageContracts[_simpleStorageIndex] */\n      dup2\n      sload\n      dup2\n      lt\n      tag_41\n      jumpi\n      tag_42\n      tag_27\n      jump\t// in\n    tag_42:\n    tag_41:\n      swap1\n      0x00\n      mstore\n      keccak256(0x00, 0x20)\n      add\n      0x00\n      swap1\n      sload\n      swap1\n      0x0100\n      exp\n      swap1\n      div\n      0xffffffffffffffffffffffffffffffffffffffff\n      and\n        /* \"StorageFactory.sol\":961:1042  SimpleStorage mySimpleStorage = listOfsimpleStorageContracts[_simpleStorageIndex] */\n      swap1\n      pop\n        /* \"StorageFactory.sol\":1060:1075  mySimpleStorage */\n      dup1\n        /* \"StorageFactory.sol\":1060:1084  mySimpleStorage.retrieve */\n      0xffffffffffffffffffffffffffffffffffffffff\n      and\n      0x2e64cec1\n        /* \"StorageFactory.sol\":1060:1086  mySimpleStorage.retrieve() */\n      mload(0x40)\n      dup2\n      0xffffffff\n      and\n      0xe0\n      shl\n      dup2\n      mstore\n      0x04\n      add\n      0x20\n      mload(0x40)\n      dup1\n      dup4\n      sub\n      dup2\n      dup7\n      gas\n      staticcall\n      iszero\n      dup1\n      iszero\n      tag_45\n      jumpi\n      returndatasize\n      0x00\n      dup1\n      returndatacopy\n      revert(0x00, returndatasize)\n    tag_45:\n      pop\n      pop\n      pop\n      pop\n      mload(0x40)\n      returndatasize\n      not(0x1f)\n      0x1f\n      dup3\n      add\n      and\n      dup3\n      add\n      dup1\n      0x40\n      mstore\n      pop\n      dup2\n      add\n      swap1\n      tag_46\n      swap2\n      swap1\n      tag_47\n      jump\t// in\n    tag_46:\n        /* \"StorageFactory.sol\":1053:1086  return mySimpleStorage.retrieve() */\n      swap2\n      pop\n      pop\n        /* \"StorageFactory.sol\":878:1096  function sfGet(uint256 _simpleStorageIndex) public view returns(uint256){... */\n      swap2\n      swap1\n      pop\n      jump\t// out\n    tag_35:\n      dataSize(sub_0)\n      dup1\n      dataOffset(sub_0)\n      dup4\n      codecopy\n      add\n      swap1\n      jump\t// out\n        /* \"#utility.yul\":88:205   */\n    tag_49:\n        /* \"#utility.yul\":197:198   */\n      0x00\n        /* \"#utility.yul\":194:195   */\n      dup1\n        /* \"#utility.yul\":187:199   */\n      revert\n        /* \"#utility.yul\":334:411   */\n    tag_51:\n        /* \"#utility.yul\":371:378   */\n      0x00\n        /* \"#utility.yul\":400:405   */\n      dup2\n        /* \"#utility.yul\":389:405   */\n      swap1\n      pop\n        /* \"#utility.yul\":334:411   */\n      swap2\n      swap1\n      pop\n      jump\t// out\n        /* \"#utility.yul\":417:539   */\n    tag_52:\n        /* \"#utility.yul\":490:514   */\n      tag_68\n        /* \"#utility.yul\":508:513   */\n      dup2\n        /* \"#utility.yul\":490:514   */\n      tag_51\n      jump\t// in\n    tag_68:\n        /* \"#utility.yul\":483:488   */\n      dup2\n        /* \"#utility.yul\":480:515   */\n      eq\n        /* \"#utility.yul\":470:533   */\n      tag_69\n      jumpi\n        /* \"#utility.yul\":529:530   */\n      0x00\n        /* \"#utility.yul\":526:527   */\n      dup1\n        /* \"#utility.yul\":519:531   */\n      revert\n        /* \"#utility.yul\":470:533   */\n    tag_69:\n        /* \"#utility.yul\":417:539   */\n      pop\n      jump\t// out\n        /* \"#utility.yul\":545:684   */\n    tag_53:\n        /* \"#utility.yul\":591:596   */\n      0x00\n        /* \"#utility.yul\":629:635   */\n      dup2\n        /* \"#utility.yul\":616:636   */\n      calldataload\n        /* \"#utility.yul\":607:636   */\n      swap1\n      pop\n        /* \"#utility.yul\":645:678   */\n      tag_71\n        /* \"#utility.yul\":672:677   */\n      dup2\n        /* \"#utility.yul\":645:678   */\n      tag_52\n      jump\t// in\n    tag_71:\n        /* \"#utility.yul\":545:684   */\n      swap3\n      swap2\n      pop\n      pop\n      jump\t// out\n        /* \"#utility.yul\":690:1164   */\n    tag_9:\n        /* \"#utility.yul\":758:764   */\n      0x00\n        /* \"#utility.yul\":766:772   */\n      dup1\n        /* \"#utility.yul\":815:817   */\n      0x40\n        /* \"#utility.yul\":803:812   */\n      dup4\n        /* \"#utility.yul\":794:801   */\n      dup6\n        /* \"#utility.yul\":790:813   */\n      sub\n        /* \"#utility.yul\":786:818   */\n      slt\n        /* \"#utility.yul\":783:902   */\n      iszero\n      tag_73\n      jumpi\n        /* \"#utility.yul\":821:900   */\n      tag_74\n      tag_49\n      jump\t// in\n    tag_74:\n        /* \"#utility.yul\":783:902   */\n    tag_73:\n        /* \"#utility.yul\":941:942   */\n      0x00\n        /* \"#utility.yul\":966:1019   */\n      tag_75\n        /* \"#utility.yul\":1011:1018   */\n      dup6\n        /* \"#utility.yul\":1002:1008   */\n      dup3\n        /* \"#utility.yul\":991:1000   */\n      dup7\n        /* \"#utility.yul\":987:1009   */\n      add\n        /* \"#utility.yul\":966:1019   */\n      tag_53\n      jump\t// in\n    tag_75:\n        /* \"#utility.yul\":956:1019   */\n      swap3\n      pop\n        /* \"#utility.yul\":912:1029   */\n      pop\n        /* \"#utility.yul\":1068:1070   */\n      0x20\n        /* \"#utility.yul\":1094:1147   */\n      tag_76\n        /* \"#utility.yul\":1139:1146   */\n      dup6\n        /* \"#utility.yul\":1130:1136   */\n      dup3\n        /* \"#utility.yul\":1119:1128   */\n      dup7\n        /* \"#utility.yul\":1115:1137   */\n      add\n        /* \"#utility.yul\":1094:1147   */\n      tag_53\n      jump\t// in\n    tag_76:\n        /* \"#utility.yul\":1084:1147   */\n      swap2\n      pop\n        /* \"#utility.yul\":1039:1157   */\n      pop\n        /* \"#utility.yul\":690:1164   */\n      swap3\n      pop\n      swap3\n      swap1\n      pop\n      jump\t// out\n        /* \"#utility.yul\":1170:1499   */\n    tag_15:\n        /* \"#utility.yul\":1229:1235   */\n      0x00\n        /* \"#utility.yul\":1278:1280   */\n      0x20\n        /* \"#utility.yul\":1266:1275   */\n      dup3\n        /* \"#utility.yul\":1257:1264   */\n      dup5\n        /* \"#utility.yul\":1253:1276   */\n      sub\n        /* \"#utility.yul\":1249:1281   */\n      slt\n        /* \"#utility.yul\":1246:1365   */\n      iszero\n      tag_78\n      jumpi\n        /* \"#utility.yul\":1284:1363   */\n      tag_79\n      tag_49\n      jump\t// in\n    tag_79:\n        /* \"#utility.yul\":1246:1365   */\n    tag_78:\n        /* \"#utility.yul\":1404:1405   */\n      0x00\n        /* \"#utility.yul\":1429:1482   */\n      tag_80\n        /* \"#utility.yul\":1474:1481   */\n      dup5\n        /* \"#utility.yul\":1465:1471   */\n      dup3\n        /* \"#utility.yul\":1454:1463   */\n      dup6\n        /* \"#utility.yul\":1450:1472   */\n      add\n        /* \"#utility.yul\":1429:1482   */\n      tag_53\n      jump\t// in\n    tag_80:\n        /* \"#utility.yul\":1419:1482   */\n      swap2\n      pop\n        /* \"#utility.yul\":1375:1492   */\n      pop\n        /* \"#utility.yul\":1170:1499   */\n      swap3\n      swap2\n      pop\n      pop\n      jump\t// out\n        /* \"#utility.yul\":1505:1631   */\n    tag_54:\n        /* \"#utility.yul\":1542:1549   */\n      0x00\n        /* \"#utility.yul\":1582:1624   */\n      0xffffffffffffffffffffffffffffffffffffffff\n        /* \"#utility.yul\":1575:1580   */\n      dup3\n        /* \"#utility.yul\":1571:1625   */\n      and\n        /* \"#utility.yul\":1560:1625   */\n      swap1\n      pop\n        /* \"#utility.yul\":1505:1631   */\n      swap2\n      swap1\n      pop\n      jump\t// out\n        /* \"#utility.yul\":1637:1697   */\n    tag_55:\n        /* \"#utility.yul\":1665:1668   */\n      0x00\n        /* \"#utility.yul\":1686:1691   */\n      dup2\n        /* \"#utility.yul\":1679:1691   */\n      swap1\n      pop\n        /* \"#utility.yul\":1637:1697   */\n      swap2\n      swap1\n      pop\n      jump\t// out\n        /* \"#utility.yul\":1703:1845   */\n    tag_56:\n        /* \"#utility.yul\":1753:1762   */\n      0x00\n        /* \"#utility.yul\":1786:1839   */\n      tag_84\n        /* \"#utility.yul\":1804:1838   */\n      tag_85\n        /* \"#utility.yul\":1813:1837   */\n      tag_86\n        /* \"#utility.yul\":1831:1836   */\n      dup5\n        /* \"#utility.yul\":1813:1837   */\n      tag_54\n      jump\t// in\n    tag_86:\n        /* \"#utility.yul\":1804:1838   */\n      tag_55\n      jump\t// in\n    tag_85:\n        /* \"#utility.yul\":1786:1839   */\n      tag_54\n      jump\t// in\n    tag_84:\n        /* \"#utility.yul\":1773:1839   */\n      swap1\n      pop\n        /* \"#utility.yul\":1703:1845   */\n      swap2\n      swap1\n      pop\n      jump\t// out\n        /* \"#utility.yul\":1851:1977   */\n    tag_57:\n        /* \"#utility.yul\":1901:1910   */\n      0x00\n        /* \"#utility.yul\":1934:1971   */\n      tag_88\n        /* \"#utility.yul\":1965:1970   */\n      dup3\n        /* \"#utility.yul\":1934:1971   */\n      tag_56\n      jump\t// in\n    tag_88:\n        /* \"#utility.yul\":1921:1971   */\n      swap1\n      pop\n        /* \"#utility.yul\":1851:1977   */\n      swap2\n      swap1\n      pop\n      jump\t// out\n        /* \"#utility.yul\":1983:2129   */\n    tag_58:\n        /* \"#utility.yul\":2053:2062   */\n      0x00\n        /* \"#utility.yul\":2086:2123   */\n      tag_90\n        /* \"#utility.yul\":2117:2122   */\n      dup3\n        /* \"#utility.yul\":2086:2123   */\n      tag_57\n      jump\t// in\n    tag_90:\n        /* \"#utility.yul\":2073:2123   */\n      swap1\n      pop\n        /* \"#utility.yul\":1983:2129   */\n      swap2\n      swap1\n      pop\n      jump\t// out\n        /* \"#utility.yul\":2135:2306   */\n    tag_59:\n        /* \"#utility.yul\":2242:2299   */\n      tag_92\n        /* \"#utility.yul\":2293:2298   */\n      dup2\n        /* \"#utility.yul\":2242:2299   */\n      tag_58\n      jump\t// in\n    tag_92:\n        /* \"#utility.yul\":2237:2240   */\n      dup3\n        /* \"#utility.yul\":2230:2300   */\n      mstore\n        /* \"#utility.yul\":2135:2306   */\n      pop\n      pop\n      jump\t// out\n        /* \"#utility.yul\":2312:2574   */\n    tag_18:\n        /* \"#utility.yul\":2425:2429   */\n      0x00\n        /* \"#utility.yul\":2463:2465   */\n      0x20\n        /* \"#utility.yul\":2452:2461   */\n      dup3\n        /* \"#utility.yul\":2448:2466   */\n      add\n        /* \"#utility.yul\":2440:2466   */\n      swap1\n      pop\n        /* \"#utility.yul\":2476:2567   */\n      tag_94\n        /* \"#utility.yul\":2564:2565   */\n      0x00\n        /* \"#utility.yul\":2553:2562   */\n      dup4\n        /* \"#utility.yul\":2549:2566   */\n      add\n        /* \"#utility.yul\":2540:2546   */\n      dup5\n        /* \"#utility.yul\":2476:2567   */\n      tag_59\n      jump\t// in\n    tag_94:\n        /* \"#utility.yul\":2312:2574   */\n      swap3\n      swap2\n      pop\n      pop\n      jump\t// out\n        /* \"#utility.yul\":2580:2698   */\n    tag_60:\n        /* \"#utility.yul\":2667:2691   */\n      tag_96\n        /* \"#utility.yul\":2685:2690   */\n      dup2\n        /* \"#utility.yul\":2667:2691   */\n      tag_51\n      jump\t// in\n    tag_96:\n        /* \"#utility.yul\":2662:2665   */\n      dup3\n        /* \"#utility.yul\":2655:2692   */\n      mstore\n        /* \"#utility.yul\":2580:2698   */\n      pop\n      pop\n      jump\t// out\n        /* \"#utility.yul\":2704:2926   */\n    tag_23:\n        /* \"#utility.yul\":2797:2801   */\n      0x00\n        /* \"#utility.yul\":2835:2837   */\n      0x20\n        /* \"#utility.yul\":2824:2833   */\n      dup3\n        /* \"#utility.yul\":2820:2838   */\n      add\n        /* \"#utility.yul\":2812:2838   */\n      swap1\n      pop\n        /* \"#utility.yul\":2848:2919   */\n      tag_98\n        /* \"#utility.yul\":2916:2917   */\n      0x00\n        /* \"#utility.yul\":2905:2914   */\n      dup4\n        /* \"#utility.yul\":2901:2918   */\n      add\n        /* \"#utility.yul\":2892:2898   */\n      dup5\n        /* \"#utility.yul\":2848:2919   */\n      tag_60\n      jump\t// in\n    tag_98:\n        /* \"#utility.yul\":2704:2926   */\n      swap3\n      swap2\n      pop\n      pop\n      jump\t// out\n        /* \"#utility.yul\":2932:3112   */\n    tag_27:\n        /* \"#utility.yul\":2980:3057   */\n      0x4e487b7100000000000000000000000000000000000000000000000000000000\n        /* \"#utility.yul\":2977:2978   */\n      0x00\n        /* \"#utility.yul\":2970:3058   */\n      mstore\n        /* \"#utility.yul\":3077:3081   */\n      0x32\n        /* \"#utility.yul\":3074:3075   */\n      0x04\n        /* \"#utility.yul\":3067:3082   */\n      mstore\n        /* \"#utility.yul\":3101:3105   */\n      0x24\n        /* \"#utility.yul\":3098:3099   */\n      0x00\n        /* \"#utility.yul\":3091:3106   */\n      revert\n        /* \"#utility.yul\":3118:3261   */\n    tag_61:\n        /* \"#utility.yul\":3175:3180   */\n      0x00\n        /* \"#utility.yul\":3206:3212   */\n      dup2\n        /* \"#utility.yul\":3200:3213   */\n      mload\n        /* \"#utility.yul\":3191:3213   */\n      swap1\n      pop\n        /* \"#utility.yul\":3222:3255   */\n      tag_101\n        /* \"#utility.yul\":3249:3254   */\n      dup2\n        /* \"#utility.yul\":3222:3255   */\n      tag_52\n      jump\t// in\n    tag_101:\n        /* \"#utility.yul\":3118:3261   */\n      swap3\n      swap2\n      pop\n      pop\n      jump\t// out\n        /* \"#utility.yul\":3267:3618   */\n    tag_47:\n        /* \"#utility.yul\":3337:3343   */\n      0x00\n        /* \"#utility.yul\":3386:3388   */\n      0x20\n        /* \"#utility.yul\":3374:3383   */\n      dup3\n        /* \"#utility.yul\":3365:3372   */\n      dup5\n        /* \"#utility.yul\":3361:3384   */\n      sub\n        /* \"#utility.yul\":3357:3389   */\n      slt\n        /* \"#utility.yul\":3354:3473   */\n      iszero\n      tag_103\n      jumpi\n        /* \"#utility.yul\":3392:3471   */\n      tag_104\n      tag_49\n      jump\t// in\n    tag_104:\n        /* \"#utility.yul\":3354:3473   */\n    tag_103:\n        /* \"#utility.yul\":3512:3513   */\n      0x00\n        /* \"#utility.yul\":3537:3601   */\n      tag_105\n        /* \"#utility.yul\":3593:3600   */\n      dup5\n        /* \"#utility.yul\":3584:3590   */\n      dup3\n        /* \"#utility.yul\":3573:3582   */\n      dup6\n        /* \"#utility.yul\":3569:3591   */\n      add\n        /* \"#utility.yul\":3537:3601   */\n      tag_61\n      jump\t// in\n    tag_105:\n        /* \"#utility.yul\":3527:3601   */\n      swap2\n      pop\n        /* \"#utility.yul\":3483:3611   */\n      pop\n        /* \"#utility.yul\":3267:3618   */\n      swap3\n      swap2\n      pop\n      pop\n      jump\t// out\n    stop\n\n    sub_0: assembly {\n            /* \"SimpleStorage.sol\":84:799  contract SimpleStorage {... */\n          mstore(0x40, 0x80)\n          callvalue\n          dup1\n          iszero\n          tag_1\n          jumpi\n          0x00\n          dup1\n          revert\n        tag_1:\n          pop\n          dataSize(sub_0)\n          dup1\n          dataOffset(sub_0)\n          0x00\n          codecopy\n          0x00\n          return\n        stop\n\n        sub_0: assembly {\n                /* \"SimpleStorage.sol\":84:799  contract SimpleStorage {... */\n              mstore(0x40, 0x80)\n              callvalue\n              dup1\n              iszero\n              tag_1\n              jumpi\n              0x00\n              dup1\n              revert\n            tag_1:\n              pop\n              jumpi(tag_2, lt(calldatasize, 0x04))\n              shr(0xe0, calldataload(0x00))\n              dup1\n              0x2e64cec1\n              eq\n              tag_3\n              jumpi\n              dup1\n              0x2ebce631\n              eq\n              tag_4\n              jumpi\n              dup1\n              0x6057361d\n              eq\n              tag_5\n              jumpi\n              dup1\n              0x6f760f41\n              eq\n              tag_6\n              jumpi\n              dup1\n              0x8bab8dd5\n              eq\n              tag_7\n              jumpi\n            tag_2:\n              0x00\n              dup1\n              revert\n                /* \"SimpleStorage.sol\":464:555  function retrieve() public view returns(uint256){... */\n            tag_3:\n              tag_8\n              tag_9\n              jump\t// in\n            tag_8:\n              mload(0x40)\n              tag_10\n              swap2\n              swap1\n              tag_11\n              jump\t// in\n            tag_10:\n              mload(0x40)\n              dup1\n              swap2\n              sub\n              swap1\n              return\n                /* \"SimpleStorage.sol\":235:263  Person[] public listOfPeople */\n            tag_4:\n              tag_12\n              0x04\n              dup1\n              calldatasize\n              sub\n              dup2\n              add\n              swap1\n              tag_13\n              swap2\n              swap1\n              tag_14\n              jump\t// in\n            tag_13:\n              tag_15\n              jump\t// in\n            tag_12:\n              mload(0x40)\n              tag_16\n              swap3\n              swap2\n              swap1\n              tag_17\n              jump\t// in\n            tag_16:\n              mload(0x40)\n              dup1\n              swap2\n              sub\n              swap1\n              return\n                /* \"SimpleStorage.sol\":337:439  function store(uint256 _favoriteNumber) public {... */\n            tag_5:\n              tag_18\n              0x04\n              dup1\n              calldatasize\n              sub\n              dup2\n              add\n              swap1\n              tag_19\n              swap2\n              swap1\n              tag_14\n              jump\t// in\n            tag_19:\n              tag_20\n              jump\t// in\n            tag_18:\n              stop\n                /* \"SimpleStorage.sol\":595:793  function addPerson(string calldata _name, uint256 _favoriteNumber) public {... */\n            tag_6:\n              tag_21\n              0x04\n              dup1\n              calldatasize\n              sub\n              dup2\n              add\n              swap1\n              tag_22\n              swap2\n              swap1\n              tag_23\n              jump\t// in\n            tag_22:\n              tag_24\n              jump\t// in\n            tag_21:\n              stop\n                /* \"SimpleStorage.sol\":272:326  mapping(string => uint256) public nameToFavoriteNumber */\n            tag_7:\n              tag_25\n              0x04\n              dup1\n              calldatasize\n              sub\n              dup2\n              add\n              swap1\n              tag_26\n              swap2\n              swap1\n              tag_27\n              jump\t// in\n            tag_26:\n              tag_28\n              jump\t// in\n            tag_25:\n              mload(0x40)\n              tag_29\n              swap2\n              swap1\n              tag_11\n              jump\t// in\n            tag_29:\n              mload(0x40)\n              dup1\n              swap2\n              sub\n              swap1\n              return\n                /* \"SimpleStorage.sol\":464:555  function retrieve() public view returns(uint256){... */\n            tag_9:\n                /* \"SimpleStorage.sol\":504:511  uint256 */\n              0x00\n                /* \"SimpleStorage.sol\":530:546  myFavoriteNumber */\n              dup1\n              sload\n                /* \"SimpleStorage.sol\":523:546  return myFavoriteNumber */\n              swap1\n              pop\n                /* \"SimpleStorage.sol\":464:555  function retrieve() public view returns(uint256){... */\n              swap1\n              jump\t// out\n                /* \"SimpleStorage.sol\":235:263  Person[] public listOfPeople */\n            tag_15:\n              0x01\n              dup2\n              dup2\n              sload\n              dup2\n              lt\n              tag_31\n              jumpi\n              0x00\n              dup1\n              revert\n            tag_31:\n              swap1\n              0x00\n              mstore\n              keccak256(0x00, 0x20)\n              swap1\n              0x02\n              mul\n              add\n              0x00\n              swap2\n              pop\n              swap1\n              pop\n              dup1\n              0x00\n              add\n              sload\n              swap1\n              dup1\n              0x01\n              add\n              dup1\n              sload\n              tag_33\n              swap1\n              tag_34\n              jump\t// in\n            tag_33:\n              dup1\n              0x1f\n              add\n              0x20\n              dup1\n              swap2\n              div\n              mul\n              0x20\n              add\n              mload(0x40)\n              swap1\n              dup2\n              add\n              0x40\n              mstore\n              dup1\n              swap3\n              swap2\n              swap1\n              dup2\n              dup2\n              mstore\n              0x20\n              add\n              dup3\n              dup1\n              sload\n              tag_35\n              swap1\n              tag_34\n              jump\t// in\n            tag_35:\n              dup1\n              iszero\n              tag_36\n              jumpi\n              dup1\n              0x1f\n              lt\n              tag_37\n              jumpi\n              0x0100\n              dup1\n              dup4\n              sload\n              div\n              mul\n              dup4\n              mstore\n              swap2\n              0x20\n              add\n              swap2\n              jump(tag_36)\n            tag_37:\n              dup3\n              add\n              swap2\n              swap1\n              0x00\n              mstore\n              keccak256(0x00, 0x20)\n              swap1\n            tag_38:\n              dup2\n              sload\n              dup2\n              mstore\n              swap1\n              0x01\n              add\n              swap1\n              0x20\n              add\n              dup1\n              dup4\n              gt\n              tag_38\n              jumpi\n              dup3\n              swap1\n              sub\n              0x1f\n              and\n              dup3\n              add\n              swap2\n            tag_36:\n              pop\n              pop\n              pop\n              pop\n              pop\n              swap1\n              pop\n              dup3\n              jump\t// out\n                /* \"SimpleStorage.sol\":337:439  function store(uint256 _favoriteNumber) public {... */\n            tag_20:\n                /* \"SimpleStorage.sol\":414:429  _favoriteNumber */\n              dup1\n                /* \"SimpleStorage.sol\":395:411  myFavoriteNumber */\n              0x00\n                /* \"SimpleStorage.sol\":395:429  myFavoriteNumber = _favoriteNumber */\n              dup2\n              swap1\n              sstore\n              pop\n                /* \"SimpleStorage.sol\":337:439  function store(uint256 _favoriteNumber) public {... */\n              pop\n              jump\t// out\n                /* \"SimpleStorage.sol\":595:793  function addPerson(string calldata _name, uint256 _favoriteNumber) public {... */\n            tag_24:\n                /* \"SimpleStorage.sol\":680:692  listOfPeople */\n              0x01\n                /* \"SimpleStorage.sol\":698:728  Person(_favoriteNumber, _name) */\n              mload(0x40)\n              dup1\n              0x40\n              add\n              0x40\n              mstore\n              dup1\n                /* \"SimpleStorage.sol\":705:720  _favoriteNumber */\n              dup4\n                /* \"SimpleStorage.sol\":698:728  Person(_favoriteNumber, _name) */\n              dup2\n              mstore\n              0x20\n              add\n                /* \"SimpleStorage.sol\":722:727  _name */\n              dup6\n              dup6\n                /* \"SimpleStorage.sol\":698:728  Person(_favoriteNumber, _name) */\n              dup1\n              dup1\n              0x1f\n              add\n              0x20\n              dup1\n              swap2\n              div\n              mul\n              0x20\n              add\n              mload(0x40)\n              swap1\n              dup2\n              add\n              0x40\n              mstore\n              dup1\n              swap4\n              swap3\n              swap2\n              swap1\n              dup2\n              dup2\n              mstore\n              0x20\n              add\n              dup4\n              dup4\n              dup1\n              dup3\n              dup5\n              calldatacopy\n              0x00\n              dup2\n              dup5\n              add\n              mstore\n              not(0x1f)\n              0x1f\n              dup3\n              add\n              and\n              swap1\n              pop\n              dup1\n              dup4\n              add\n              swap3\n              pop\n              pop\n              pop\n              pop\n              pop\n              pop\n              pop\n              dup2\n              mstore\n              pop\n                /* \"SimpleStorage.sol\":680:729  listOfPeople.push(Person(_favoriteNumber, _name)) */\n              swap1\n              dup1\n              0x01\n              dup2\n              sload\n              add\n              dup1\n              dup3\n              sstore\n              dup1\n              swap2\n              pop\n              pop\n              0x01\n              swap1\n              sub\n              swap1\n              0x00\n              mstore\n              keccak256(0x00, 0x20)\n              swap1\n              0x02\n              mul\n              add\n              0x00\n              swap1\n              swap2\n              swap1\n              swap2\n              swap1\n              swap2\n              pop\n              0x00\n              dup3\n              add\n              mload\n              dup2\n              0x00\n              add\n              sstore\n              0x20\n              dup3\n              add\n              mload\n              dup2\n              0x01\n              add\n              swap1\n              dup2\n              tag_42\n              swap2\n              swap1\n              tag_43\n              jump\t// in\n            tag_42:\n              pop\n              pop\n              pop\n                /* \"SimpleStorage.sol\":770:785  _favoriteNumber */\n              dup1\n                /* \"SimpleStorage.sol\":740:760  nameToFavoriteNumber */\n              0x02\n                /* \"SimpleStorage.sol\":761:766  _name */\n              dup5\n              dup5\n                /* \"SimpleStorage.sol\":740:767  nameToFavoriteNumber[_name] */\n              mload(0x40)\n              tag_44\n              swap3\n              swap2\n              swap1\n              tag_45\n              jump\t// in\n            tag_44:\n              swap1\n              dup2\n              mstore\n              0x20\n              add\n              mload(0x40)\n              dup1\n              swap2\n              sub\n              swap1\n              keccak256\n                /* \"SimpleStorage.sol\":740:785  nameToFavoriteNumber[_name] = _favoriteNumber */\n              dup2\n              swap1\n              sstore\n              pop\n                /* \"SimpleStorage.sol\":595:793  function addPerson(string calldata _name, uint256 _favoriteNumber) public {... */\n              pop\n              pop\n              pop\n              jump\t// out\n                /* \"SimpleStorage.sol\":272:326  mapping(string => uint256) public nameToFavoriteNumber */\n            tag_28:\n              0x02\n              dup2\n              dup1\n              mload\n              0x20\n              dup2\n              add\n              dup3\n              add\n              dup1\n              mload\n              dup5\n              dup3\n              mstore\n              0x20\n              dup4\n              add\n              0x20\n              dup6\n              add\n              keccak256\n              dup2\n              dup4\n              mstore\n              dup1\n              swap6\n              pop\n              pop\n              pop\n              pop\n              pop\n              pop\n              0x00\n              swap2\n              pop\n              swap1\n              pop\n              sload\n              dup2\n              jump\t// out\n                /* \"#utility.yul\":7:84   */\n            tag_46:\n                /* \"#utility.yul\":44:51   */\n              0x00\n                /* \"#utility.yul\":73:78   */\n              dup2\n                /* \"#utility.yul\":62:78   */\n              swap1\n              pop\n                /* \"#utility.yul\":7:84   */\n              swap2\n              swap1\n              pop\n              jump\t// out\n                /* \"#utility.yul\":90:208   */\n            tag_47:\n                /* \"#utility.yul\":177:201   */\n              tag_91\n                /* \"#utility.yul\":195:200   */\n              dup2\n                /* \"#utility.yul\":177:201   */\n              tag_46\n              jump\t// in\n            tag_91:\n                /* \"#utility.yul\":172:175   */\n              dup3\n                /* \"#utility.yul\":165:202   */\n              mstore\n                /* \"#utility.yul\":90:208   */\n              pop\n              pop\n              jump\t// out\n                /* \"#utility.yul\":214:436   */\n            tag_11:\n                /* \"#utility.yul\":307:311   */\n              0x00\n                /* \"#utility.yul\":345:347   */\n              0x20\n                /* \"#utility.yul\":334:343   */\n              dup3\n                /* \"#utility.yul\":330:348   */\n              add\n                /* \"#utility.yul\":322:348   */\n              swap1\n              pop\n                /* \"#utility.yul\":358:429   */\n              tag_93\n                /* \"#utility.yul\":426:427   */\n              0x00\n                /* \"#utility.yul\":415:424   */\n              dup4\n                /* \"#utility.yul\":411:428   */\n              add\n                /* \"#utility.yul\":402:408   */\n              dup5\n                /* \"#utility.yul\":358:429   */\n              tag_47\n              jump\t// in\n            tag_93:\n                /* \"#utility.yul\":214:436   */\n              swap3\n              swap2\n              pop\n              pop\n              jump\t// out\n                /* \"#utility.yul\":442:517   */\n            tag_48:\n                /* \"#utility.yul\":475:481   */\n              0x00\n                /* \"#utility.yul\":508:510   */\n              0x40\n                /* \"#utility.yul\":502:511   */\n              mload\n                /* \"#utility.yul\":492:511   */\n              swap1\n              pop\n                /* \"#utility.yul\":442:517   */\n              swap1\n              jump\t// out\n                /* \"#utility.yul\":523:640   */\n            tag_49:\n                /* \"#utility.yul\":632:633   */\n              0x00\n                /* \"#utility.yul\":629:630   */\n              dup1\n                /* \"#utility.yul\":622:634   */\n              revert\n                /* \"#utility.yul\":646:763   */\n            tag_50:\n                /* \"#utility.yul\":755:756   */\n              0x00\n                /* \"#utility.yul\":752:753   */\n              dup1\n                /* \"#utility.yul\":745:757   */\n              revert\n                /* \"#utility.yul\":769:891   */\n            tag_51:\n                /* \"#utility.yul\":842:866   */\n              tag_98\n                /* \"#utility.yul\":860:865   */\n              dup2\n                /* \"#utility.yul\":842:866   */\n              tag_46\n              jump\t// in\n            tag_98:\n                /* \"#utility.yul\":835:840   */\n              dup2\n                /* \"#utility.yul\":832:867   */\n              eq\n                /* \"#utility.yul\":822:885   */\n              tag_99\n              jumpi\n                /* \"#utility.yul\":881:882   */\n              0x00\n                /* \"#utility.yul\":878:879   */\n              dup1\n                /* \"#utility.yul\":871:883   */\n              revert\n                /* \"#utility.yul\":822:885   */\n            tag_99:\n                /* \"#utility.yul\":769:891   */\n              pop\n              jump\t// out\n                /* \"#utility.yul\":897:1036   */\n            tag_52:\n                /* \"#utility.yul\":943:948   */\n              0x00\n                /* \"#utility.yul\":981:987   */\n              dup2\n                /* \"#utility.yul\":968:988   */\n              calldataload\n                /* \"#utility.yul\":959:988   */\n              swap1\n              pop\n                /* \"#utility.yul\":997:1030   */\n              tag_101\n                /* \"#utility.yul\":1024:1029   */\n              dup2\n                /* \"#utility.yul\":997:1030   */\n              tag_51\n              jump\t// in\n            tag_101:\n                /* \"#utility.yul\":897:1036   */\n              swap3\n              swap2\n              pop\n              pop\n              jump\t// out\n                /* \"#utility.yul\":1042:1371   */\n            tag_14:\n                /* \"#utility.yul\":1101:1107   */\n              0x00\n                /* \"#utility.yul\":1150:1152   */\n              0x20\n                /* \"#utility.yul\":1138:1147   */\n              dup3\n                /* \"#utility.yul\":1129:1136   */\n              dup5\n                /* \"#utility.yul\":1125:1148   */\n              sub\n                /* \"#utility.yul\":1121:1153   */\n              slt\n                /* \"#utility.yul\":1118:1237   */\n              iszero\n              tag_103\n              jumpi\n                /* \"#utility.yul\":1156:1235   */\n              tag_104\n              tag_49\n              jump\t// in\n            tag_104:\n                /* \"#utility.yul\":1118:1237   */\n            tag_103:\n                /* \"#utility.yul\":1276:1277   */\n              0x00\n                /* \"#utility.yul\":1301:1354   */\n              tag_105\n                /* \"#utility.yul\":1346:1353   */\n              dup5\n                /* \"#utility.yul\":1337:1343   */\n              dup3\n                /* \"#utility.yul\":1326:1335   */\n              dup6\n                /* \"#utility.yul\":1322:1344   */\n              add\n                /* \"#utility.yul\":1301:1354   */\n              tag_52\n              jump\t// in\n            tag_105:\n                /* \"#utility.yul\":1291:1354   */\n              swap2\n              pop\n                /* \"#utility.yul\":1247:1364   */\n              pop\n                /* \"#utility.yul\":1042:1371   */\n              swap3\n              swap2\n              pop\n              pop\n              jump\t// out\n                /* \"#utility.yul\":1377:1476   */\n            tag_53:\n                /* \"#utility.yul\":1429:1435   */\n              0x00\n                /* \"#utility.yul\":1463:1468   */\n              dup2\n                /* \"#utility.yul\":1457:1469   */\n              mload\n                /* \"#utility.yul\":1447:1469   */\n              swap1\n              pop\n                /* \"#utility.yul\":1377:1476   */\n              swap2\n              swap1\n              pop\n              jump\t// out\n                /* \"#utility.yul\":1482:1651   */\n            tag_54:\n                /* \"#utility.yul\":1566:1577   */\n              0x00\n                /* \"#utility.yul\":1600:1606   */\n              dup3\n                /* \"#utility.yul\":1595:1598   */\n              dup3\n                /* \"#utility.yul\":1588:1607   */\n              mstore\n                /* \"#utility.yul\":1640:1644   */\n              0x20\n                /* \"#utility.yul\":1635:1638   */\n              dup3\n                /* \"#utility.yul\":1631:1645   */\n              add\n                /* \"#utility.yul\":1616:1645   */\n              swap1\n              pop\n                /* \"#utility.yul\":1482:1651   */\n              swap3\n              swap2\n              pop\n              pop\n              jump\t// out\n                /* \"#utility.yul\":1657:1796   */\n            tag_55:\n                /* \"#utility.yul\":1746:1752   */\n              dup3\n                /* \"#utility.yul\":1741:1744   */\n              dup2\n                /* \"#utility.yul\":1736:1739   */\n              dup4\n                /* \"#utility.yul\":1730:1753   */\n              mcopy\n                /* \"#utility.yul\":1787:1788   */\n              0x00\n                /* \"#utility.yul\":1778:1784   */\n              dup4\n                /* \"#utility.yul\":1773:1776   */\n              dup4\n                /* \"#utility.yul\":1769:1785   */\n              add\n                /* \"#utility.yul\":1762:1789   */\n              mstore\n                /* \"#utility.yul\":1657:1796   */\n              pop\n              pop\n              pop\n              jump\t// out\n                /* \"#utility.yul\":1802:1904   */\n            tag_56:\n                /* \"#utility.yul\":1843:1849   */\n              0x00\n                /* \"#utility.yul\":1894:1896   */\n              0x1f\n                /* \"#utility.yul\":1890:1897   */\n              not\n                /* \"#utility.yul\":1885:1887   */\n              0x1f\n                /* \"#utility.yul\":1878:1883   */\n              dup4\n                /* \"#utility.yul\":1874:1888   */\n              add\n                /* \"#utility.yul\":1870:1898   */\n              and\n                /* \"#utility.yul\":1860:1898   */\n              swap1\n              pop\n                /* \"#utility.yul\":1802:1904   */\n              swap2\n              swap1\n              pop\n              jump\t// out\n                /* \"#utility.yul\":1910:2287   */\n            tag_57:\n                /* \"#utility.yul\":1998:2001   */\n              0x00\n                /* \"#utility.yul\":2026:2065   */\n              tag_111\n                /* \"#utility.yul\":2059:2064   */\n              dup3\n                /* \"#utility.yul\":2026:2065   */\n              tag_53\n              jump\t// in\n            tag_111:\n                /* \"#utility.yul\":2081:2152   */\n              tag_112\n                /* \"#utility.yul\":2145:2151   */\n              dup2\n                /* \"#utility.yul\":2140:2143   */\n              dup6\n                /* \"#utility.yul\":2081:2152   */\n              tag_54\n              jump\t// in\n            tag_112:\n                /* \"#utility.yul\":2074:2152   */\n              swap4\n              pop\n                /* \"#utility.yul\":2161:2226   */\n              tag_113\n                /* \"#utility.yul\":2219:2225   */\n              dup2\n                /* \"#utility.yul\":2214:2217   */\n              dup6\n                /* \"#utility.yul\":2207:2211   */\n              0x20\n                /* \"#utility.yul\":2200:2205   */\n              dup7\n                /* \"#utility.yul\":2196:2212   */\n              add\n                /* \"#utility.yul\":2161:2226   */\n              tag_55\n              jump\t// in\n            tag_113:\n                /* \"#utility.yul\":2251:2280   */\n              tag_114\n                /* \"#utility.yul\":2273:2279   */\n              dup2\n                /* \"#utility.yul\":2251:2280   */\n              tag_56\n              jump\t// in\n            tag_114:\n                /* \"#utility.yul\":2246:2249   */\n              dup5\n                /* \"#utility.yul\":2242:2281   */\n              add\n                /* \"#utility.yul\":2235:2281   */\n              swap2\n              pop\n                /* \"#utility.yul\":2002:2287   */\n              pop\n                /* \"#utility.yul\":1910:2287   */\n              swap3\n              swap2\n              pop\n              pop\n              jump\t// out\n                /* \"#utility.yul\":2293:2716   */\n            tag_17:\n                /* \"#utility.yul\":2434:2438   */\n              0x00\n                /* \"#utility.yul\":2472:2474   */\n              0x40\n                /* \"#utility.yul\":2461:2470   */\n              dup3\n                /* \"#utility.yul\":2457:2475   */\n              add\n                /* \"#utility.yul\":2449:2475   */\n              swap1\n              pop\n                /* \"#utility.yul\":2485:2556   */\n              tag_116\n                /* \"#utility.yul\":2553:2554   */\n              0x00\n                /* \"#utility.yul\":2542:2551   */\n              dup4\n                /* \"#utility.yul\":2538:2555   */\n              add\n                /* \"#utility.yul\":2529:2535   */\n              dup6\n                /* \"#utility.yul\":2485:2556   */\n              tag_47\n              jump\t// in\n            tag_116:\n                /* \"#utility.yul\":2603:2612   */\n              dup2\n                /* \"#utility.yul\":2597:2601   */\n              dup2\n                /* \"#utility.yul\":2593:2613   */\n              sub\n                /* \"#utility.yul\":2588:2590   */\n              0x20\n                /* \"#utility.yul\":2577:2586   */\n              dup4\n                /* \"#utility.yul\":2573:2591   */\n              add\n                /* \"#utility.yul\":2566:2614   */\n              mstore\n                /* \"#utility.yul\":2631:2709   */\n              tag_117\n                /* \"#utility.yul\":2704:2708   */\n              dup2\n                /* \"#utility.yul\":2695:2701   */\n              dup5\n                /* \"#utility.yul\":2631:2709   */\n              tag_57\n              jump\t// in\n            tag_117:\n                /* \"#utility.yul\":2623:2709   */\n              swap1\n              pop\n                /* \"#utility.yul\":2293:2716   */\n              swap4\n              swap3\n              pop\n              pop\n              pop\n              jump\t// out\n                /* \"#utility.yul\":2722:2839   */\n            tag_58:\n                /* \"#utility.yul\":2831:2832   */\n              0x00\n                /* \"#utility.yul\":2828:2829   */\n              dup1\n                /* \"#utility.yul\":2821:2833   */\n              revert\n                /* \"#utility.yul\":2845:2962   */\n            tag_59:\n                /* \"#utility.yul\":2954:2955   */\n              0x00\n                /* \"#utility.yul\":2951:2952   */\n              dup1\n                /* \"#utility.yul\":2944:2956   */\n              revert\n                /* \"#utility.yul\":2968:3085   */\n            tag_60:\n                /* \"#utility.yul\":3077:3078   */\n              0x00\n                /* \"#utility.yul\":3074:3075   */\n              dup1\n                /* \"#utility.yul\":3067:3079   */\n              revert\n                /* \"#utility.yul\":3105:3658   */\n            tag_61:\n                /* \"#utility.yul\":3163:3171   */\n              0x00\n                /* \"#utility.yul\":3173:3179   */\n              dup1\n                /* \"#utility.yul\":3223:3226   */\n              dup4\n                /* \"#utility.yul\":3216:3220   */\n              0x1f\n                /* \"#utility.yul\":3208:3214   */\n              dup5\n                /* \"#utility.yul\":3204:3221   */\n              add\n                /* \"#utility.yul\":3200:3227   */\n              slt\n                /* \"#utility.yul\":3190:3312   */\n              tag_122\n              jumpi\n                /* \"#utility.yul\":3231:3310   */\n              tag_123\n              tag_58\n              jump\t// in\n            tag_123:\n                /* \"#utility.yul\":3190:3312   */\n            tag_122:\n                /* \"#utility.yul\":3344:3350   */\n              dup3\n                /* \"#utility.yul\":3331:3351   */\n              calldataload\n                /* \"#utility.yul\":3321:3351   */\n              swap1\n              pop\n                /* \"#utility.yul\":3374:3392   */\n              0xffffffffffffffff\n                /* \"#utility.yul\":3366:3372   */\n              dup2\n                /* \"#utility.yul\":3363:3393   */\n              gt\n                /* \"#utility.yul\":3360:3477   */\n              iszero\n              tag_124\n              jumpi\n                /* \"#utility.yul\":3396:3475   */\n              tag_125\n              tag_59\n              jump\t// in\n            tag_125:\n                /* \"#utility.yul\":3360:3477   */\n            tag_124:\n                /* \"#utility.yul\":3510:3514   */\n              0x20\n                /* \"#utility.yul\":3502:3508   */\n              dup4\n                /* \"#utility.yul\":3498:3515   */\n              add\n                /* \"#utility.yul\":3486:3515   */\n              swap2\n              pop\n                /* \"#utility.yul\":3564:3567   */\n              dup4\n                /* \"#utility.yul\":3556:3560   */\n              0x01\n                /* \"#utility.yul\":3548:3554   */\n              dup3\n                /* \"#utility.yul\":3544:3561   */\n              mul\n                /* \"#utility.yul\":3534:3542   */\n              dup4\n                /* \"#utility.yul\":3530:3562   */\n              add\n                /* \"#utility.yul\":3527:3568   */\n              gt\n                /* \"#utility.yul\":3524:3652   */\n              iszero\n              tag_126\n              jumpi\n                /* \"#utility.yul\":3571:3650   */\n              tag_127\n              tag_60\n              jump\t// in\n            tag_127:\n                /* \"#utility.yul\":3524:3652   */\n            tag_126:\n                /* \"#utility.yul\":3105:3658   */\n              swap3\n              pop\n              swap3\n              swap1\n              pop\n              jump\t// out\n                /* \"#utility.yul\":3664:4338   */\n            tag_23:\n                /* \"#utility.yul\":3744:3750   */\n              0x00\n                /* \"#utility.yul\":3752:3758   */\n              dup1\n                /* \"#utility.yul\":3760:3766   */\n              0x00\n                /* \"#utility.yul\":3809:3811   */\n              0x40\n                /* \"#utility.yul\":3797:3806   */\n              dup5\n                /* \"#utility.yul\":3788:3795   */\n              dup7\n                /* \"#utility.yul\":3784:3807   */\n              sub\n                /* \"#utility.yul\":3780:3812   */\n              slt\n                /* \"#utility.yul\":3777:3896   */\n              iszero\n              tag_129\n              jumpi\n                /* \"#utility.yul\":3815:3894   */\n              tag_130\n              tag_49\n              jump\t// in\n            tag_130:\n                /* \"#utility.yul\":3777:3896   */\n            tag_129:\n                /* \"#utility.yul\":3963:3964   */\n              0x00\n                /* \"#utility.yul\":3952:3961   */\n              dup5\n                /* \"#utility.yul\":3948:3965   */\n              add\n                /* \"#utility.yul\":3935:3966   */\n              calldataload\n                /* \"#utility.yul\":3993:4011   */\n              0xffffffffffffffff\n                /* \"#utility.yul\":3985:3991   */\n              dup2\n                /* \"#utility.yul\":3982:4012   */\n              gt\n                /* \"#utility.yul\":3979:4096   */\n              iszero\n              tag_131\n              jumpi\n                /* \"#utility.yul\":4015:4094   */\n              tag_132\n              tag_50\n              jump\t// in\n            tag_132:\n                /* \"#utility.yul\":3979:4096   */\n            tag_131:\n                /* \"#utility.yul\":4128:4193   */\n              tag_133\n                /* \"#utility.yul\":4185:4192   */\n              dup7\n                /* \"#utility.yul\":4176:4182   */\n              dup3\n                /* \"#utility.yul\":4165:4174   */\n              dup8\n                /* \"#utility.yul\":4161:4183   */\n              add\n                /* \"#utility.yul\":4128:4193   */\n              tag_61\n              jump\t// in\n            tag_133:\n                /* \"#utility.yul\":4110:4193   */\n              swap4\n              pop\n              swap4\n              pop\n                /* \"#utility.yul\":3906:4203   */\n              pop\n                /* \"#utility.yul\":4242:4244   */\n              0x20\n                /* \"#utility.yul\":4268:4321   */\n              tag_134\n                /* \"#utility.yul\":4313:4320   */\n              dup7\n                /* \"#utility.yul\":4304:4310   */\n              dup3\n                /* \"#utility.yul\":4293:4302   */\n              dup8\n                /* \"#utility.yul\":4289:4311   */\n              add\n                /* \"#utility.yul\":4268:4321   */\n              tag_52\n              jump\t// in\n            tag_134:\n                /* \"#utility.yul\":4258:4321   */\n              swap2\n              pop\n                /* \"#utility.yul\":4213:4331   */\n              pop\n                /* \"#utility.yul\":3664:4338   */\n              swap3\n              pop\n              swap3\n              pop\n              swap3\n              jump\t// out\n                /* \"#utility.yul\":4344:4461   */\n            tag_62:\n                /* \"#utility.yul\":4453:4454   */\n              0x00\n                /* \"#utility.yul\":4450:4451   */\n              dup1\n                /* \"#utility.yul\":4443:4455   */\n              revert\n                /* \"#utility.yul\":4467:4647   */\n            tag_63:\n                /* \"#utility.yul\":4515:4592   */\n              0x4e487b7100000000000000000000000000000000000000000000000000000000\n                /* \"#utility.yul\":4512:4513   */\n              0x00\n                /* \"#utility.yul\":4505:4593   */\n              mstore\n                /* \"#utility.yul\":4612:4616   */\n              0x41\n                /* \"#utility.yul\":4609:4610   */\n              0x04\n                /* \"#utility.yul\":4602:4617   */\n              mstore\n                /* \"#utility.yul\":4636:4640   */\n              0x24\n                /* \"#utility.yul\":4633:4634   */\n              0x00\n                /* \"#utility.yul\":4626:4641   */\n              revert\n                /* \"#utility.yul\":4653:4934   */\n            tag_64:\n                /* \"#utility.yul\":4736:4763   */\n              tag_138\n                /* \"#utility.yul\":4758:4762   */\n              dup3\n                /* \"#utility.yul\":4736:4763   */\n              tag_56\n              jump\t// in\n            tag_138:\n                /* \"#utility.yul\":4728:4734   */\n              dup2\n                /* \"#utility.yul\":4724:4764   */\n              add\n                /* \"#utility.yul\":4866:4872   */\n              dup2\n                /* \"#utility.yul\":4854:4864   */\n              dup2\n                /* \"#utility.yul\":4851:4873   */\n              lt\n                /* \"#utility.yul\":4830:4848   */\n              0xffffffffffffffff\n                /* \"#utility.yul\":4818:4828   */\n              dup3\n                /* \"#utility.yul\":4815:4849   */\n              gt\n                /* \"#utility.yul\":4812:4874   */\n              or\n                /* \"#utility.yul\":4809:4897   */\n              iszero\n              tag_139\n              jumpi\n                /* \"#utility.yul\":4877:4895   */\n              tag_140\n              tag_63\n              jump\t// in\n            tag_140:\n                /* \"#utility.yul\":4809:4897   */\n            tag_139:\n                /* \"#utility.yul\":4917:4927   */\n              dup1\n                /* \"#utility.yul\":4913:4915   */\n              0x40\n                /* \"#utility.yul\":4906:4928   */\n              mstore\n                /* \"#utility.yul\":4696:4934   */\n              pop\n                /* \"#utility.yul\":4653:4934   */\n              pop\n              pop\n              jump\t// out\n                /* \"#utility.yul\":4940:5069   */\n            tag_65:\n                /* \"#utility.yul\":4974:4980   */\n              0x00\n                /* \"#utility.yul\":5001:5021   */\n              tag_142\n              tag_48\n              jump\t// in\n            tag_142:\n                /* \"#utility.yul\":4991:5021   */\n              swap1\n              pop\n                /* \"#utility.yul\":5030:5063   */\n              tag_143\n                /* \"#utility.yul\":5058:5062   */\n              dup3\n                /* \"#utility.yul\":5050:5056   */\n              dup3\n                /* \"#utility.yul\":5030:5063   */\n              tag_64\n              jump\t// in\n            tag_143:\n                /* \"#utility.yul\":4940:5069   */\n              swap2\n              swap1\n              pop\n              jump\t// out\n                /* \"#utility.yul\":5075:5383   */\n            tag_66:\n                /* \"#utility.yul\":5137:5141   */\n              0x00\n                /* \"#utility.yul\":5227:5245   */\n              0xffffffffffffffff\n                /* \"#utility.yul\":5219:5225   */\n              dup3\n                /* \"#utility.yul\":5216:5246   */\n              gt\n                /* \"#utility.yul\":5213:5269   */\n              iszero\n              tag_145\n              jumpi\n                /* \"#utility.yul\":5249:5267   */\n              tag_146\n              tag_63\n              jump\t// in\n            tag_146:\n                /* \"#utility.yul\":5213:5269   */\n            tag_145:\n                /* \"#utility.yul\":5287:5316   */\n              tag_147\n                /* \"#utility.yul\":5309:5315   */\n              dup3\n                /* \"#utility.yul\":5287:5316   */\n              tag_56\n              jump\t// in\n            tag_147:\n                /* \"#utility.yul\":5279:5316   */\n              swap1\n              pop\n                /* \"#utility.yul\":5371:5375   */\n              0x20\n                /* \"#utility.yul\":5365:5369   */\n              dup2\n                /* \"#utility.yul\":5361:5376   */\n              add\n                /* \"#utility.yul\":5353:5376   */\n              swap1\n              pop\n                /* \"#utility.yul\":5075:5383   */\n              swap2\n              swap1\n              pop\n              jump\t// out\n                /* \"#utility.yul\":5389:5537   */\n            tag_67:\n                /* \"#utility.yul\":5487:5493   */\n              dup3\n                /* \"#utility.yul\":5482:5485   */\n              dup2\n                /* \"#utility.yul\":5477:5480   */\n              dup4\n                /* \"#utility.yul\":5464:5494   */\n              calldatacopy\n                /* \"#utility.yul\":5528:5529   */\n              0x00\n                /* \"#utility.yul\":5519:5525   */\n              dup4\n                /* \"#utility.yul\":5514:5517   */\n              dup4\n                /* \"#utility.yul\":5510:5526   */\n              add\n                /* \"#utility.yul\":5503:5530   */\n              mstore\n                /* \"#utility.yul\":5389:5537   */\n              pop\n              pop\n              pop\n              jump\t// out\n                /* \"#utility.yul\":5543:5968   */\n            tag_68:\n                /* \"#utility.yul\":5621:5626   */\n              0x00\n                /* \"#utility.yul\":5646:5712   */\n              tag_150\n                /* \"#utility.yul\":5662:5711   */\n              tag_151\n                /* \"#utility.yul\":5704:5710   */\n              dup5\n                /* \"#utility.yul\":5662:5711   */\n              tag_66\n              jump\t// in\n            tag_151:\n                /* \"#utility.yul\":5646:5712   */\n              tag_65\n              jump\t// in\n            tag_150:\n                /* \"#utility.yul\":5637:5712   */\n              swap1\n              pop\n                /* \"#utility.yul\":5735:5741   */\n              dup3\n                /* \"#utility.yul\":5728:5733   */\n              dup2\n                /* \"#utility.yul\":5721:5742   */\n              mstore\n                /* \"#utility.yul\":5773:5777   */\n              0x20\n                /* \"#utility.yul\":5766:5771   */\n              dup2\n                /* \"#utility.yul\":5762:5778   */\n              add\n                /* \"#utility.yul\":5811:5814   */\n              dup5\n                /* \"#utility.yul\":5802:5808   */\n              dup5\n                /* \"#utility.yul\":5797:5800   */\n              dup5\n                /* \"#utility.yul\":5793:5809   */\n              add\n                /* \"#utility.yul\":5790:5815   */\n              gt\n                /* \"#utility.yul\":5787:5899   */\n              iszero\n              tag_152\n              jumpi\n                /* \"#utility.yul\":5818:5897   */\n              tag_153\n              tag_62\n              jump\t// in\n            tag_153:\n                /* \"#utility.yul\":5787:5899   */\n            tag_152:\n                /* \"#utility.yul\":5908:5962   */\n              tag_154\n                /* \"#utility.yul\":5955:5961   */\n              dup5\n                /* \"#utility.yul\":5950:5953   */\n              dup3\n                /* \"#utility.yul\":5945:5948   */\n              dup6\n                /* \"#utility.yul\":5908:5962   */\n              tag_67\n              jump\t// in\n            tag_154:\n                /* \"#utility.yul\":5627:5968   */\n              pop\n                /* \"#utility.yul\":5543:5968   */\n              swap4\n              swap3\n              pop\n              pop\n              pop\n              jump\t// out\n                /* \"#utility.yul\":5988:6328   */\n            tag_69:\n                /* \"#utility.yul\":6044:6049   */\n              0x00\n                /* \"#utility.yul\":6093:6096   */\n              dup3\n                /* \"#utility.yul\":6086:6090   */\n              0x1f\n                /* \"#utility.yul\":6078:6084   */\n              dup4\n                /* \"#utility.yul\":6074:6091   */\n              add\n                /* \"#utility.yul\":6070:6097   */\n              slt\n                /* \"#utility.yul\":6060:6182   */\n              tag_156\n              jumpi\n                /* \"#utility.yul\":6101:6180   */\n              tag_157\n              tag_58\n              jump\t// in\n            tag_157:\n                /* \"#utility.yul\":6060:6182   */\n            tag_156:\n                /* \"#utility.yul\":6218:6224   */\n              dup2\n                /* \"#utility.yul\":6205:6225   */\n              calldataload\n                /* \"#utility.yul\":6243:6322   */\n              tag_158\n                /* \"#utility.yul\":6318:6321   */\n              dup5\n                /* \"#utility.yul\":6310:6316   */\n              dup3\n                /* \"#utility.yul\":6303:6307   */\n              0x20\n                /* \"#utility.yul\":6295:6301   */\n              dup7\n                /* \"#utility.yul\":6291:6308   */\n              add\n                /* \"#utility.yul\":6243:6322   */\n              tag_68\n              jump\t// in\n            tag_158:\n                /* \"#utility.yul\":6234:6322   */\n              swap2\n              pop\n                /* \"#utility.yul\":6050:6328   */\n              pop\n                /* \"#utility.yul\":5988:6328   */\n              swap3\n              swap2\n              pop\n              pop\n              jump\t// out\n                /* \"#utility.yul\":6334:6843   */\n            tag_27:\n                /* \"#utility.yul\":6403:6409   */\n              0x00\n                /* \"#utility.yul\":6452:6454   */\n              0x20\n                /* \"#utility.yul\":6440:6449   */\n              dup3\n                /* \"#utility.yul\":6431:6438   */\n              dup5\n                /* \"#utility.yul\":6427:6450   */\n              sub\n                /* \"#utility.yul\":6423:6455   */\n              slt\n                /* \"#utility.yul\":6420:6539   */\n              iszero\n              tag_160\n              jumpi\n                /* \"#utility.yul\":6458:6537   */\n              tag_161\n              tag_49\n              jump\t// in\n            tag_161:\n                /* \"#utility.yul\":6420:6539   */\n            tag_160:\n                /* \"#utility.yul\":6606:6607   */\n              0x00\n                /* \"#utility.yul\":6595:6604   */\n              dup3\n                /* \"#utility.yul\":6591:6608   */\n              add\n                /* \"#utility.yul\":6578:6609   */\n              calldataload\n                /* \"#utility.yul\":6636:6654   */\n              0xffffffffffffffff\n                /* \"#utility.yul\":6628:6634   */\n              dup2\n                /* \"#utility.yul\":6625:6655   */\n              gt\n                /* \"#utility.yul\":6622:6739   */\n              iszero\n              tag_162\n              jumpi\n                /* \"#utility.yul\":6658:6737   */\n              tag_163\n              tag_50\n              jump\t// in\n            tag_163:\n                /* \"#utility.yul\":6622:6739   */\n            tag_162:\n                /* \"#utility.yul\":6763:6826   */\n              tag_164\n                /* \"#utility.yul\":6818:6825   */\n              dup5\n                /* \"#utility.yul\":6809:6815   */\n              dup3\n                /* \"#utility.yul\":6798:6807   */\n              dup6\n                /* \"#utility.yul\":6794:6816   */\n              add\n                /* \"#utility.yul\":6763:6826   */\n              tag_69\n              jump\t// in\n            tag_164:\n                /* \"#utility.yul\":6753:6826   */\n              swap2\n              pop\n                /* \"#utility.yul\":6549:6836   */\n              pop\n                /* \"#utility.yul\":6334:6843   */\n              swap3\n              swap2\n              pop\n              pop\n              jump\t// out\n                /* \"#utility.yul\":6849:7029   */\n            tag_70:\n                /* \"#utility.yul\":6897:6974   */\n              0x4e487b7100000000000000000000000000000000000000000000000000000000\n                /* \"#utility.yul\":6894:6895   */\n              0x00\n                /* \"#utility.yul\":6887:6975   */\n              mstore\n                /* \"#utility.yul\":6994:6998   */\n              0x22\n                /* \"#utility.yul\":6991:6992   */\n              0x04\n                /* \"#utility.yul\":6984:6999   */\n              mstore\n                /* \"#utility.yul\":7018:7022   */\n              0x24\n                /* \"#utility.yul\":7015:7016   */\n              0x00\n                /* \"#utility.yul\":7008:7023   */\n              revert\n                /* \"#utility.yul\":7035:7355   */\n            tag_34:\n                /* \"#utility.yul\":7079:7085   */\n              0x00\n                /* \"#utility.yul\":7116:7117   */\n              0x02\n                /* \"#utility.yul\":7110:7114   */\n              dup3\n                /* \"#utility.yul\":7106:7118   */\n              div\n                /* \"#utility.yul\":7096:7118   */\n              swap1\n              pop\n                /* \"#utility.yul\":7163:7164   */\n              0x01\n                /* \"#utility.yul\":7157:7161   */\n              dup3\n                /* \"#utility.yul\":7153:7165   */\n              and\n                /* \"#utility.yul\":7184:7202   */\n              dup1\n                /* \"#utility.yul\":7174:7255   */\n              tag_167\n              jumpi\n                /* \"#utility.yul\":7240:7244   */\n              0x7f\n                /* \"#utility.yul\":7232:7238   */\n              dup3\n                /* \"#utility.yul\":7228:7245   */\n              and\n                /* \"#utility.yul\":7218:7245   */\n              swap2\n              pop\n                /* \"#utility.yul\":7174:7255   */\n            tag_167:\n                /* \"#utility.yul\":7302:7304   */\n              0x20\n                /* \"#utility.yul\":7294:7300   */\n              dup3\n                /* \"#utility.yul\":7291:7305   */\n              lt\n                /* \"#utility.yul\":7271:7289   */\n              dup2\n                /* \"#utility.yul\":7268:7306   */\n              sub\n                /* \"#utility.yul\":7265:7349   */\n              tag_168\n              jumpi\n                /* \"#utility.yul\":7321:7339   */\n              tag_169\n              tag_70\n              jump\t// in\n            tag_169:\n                /* \"#utility.yul\":7265:7349   */\n            tag_168:\n                /* \"#utility.yul\":7086:7355   */\n              pop\n                /* \"#utility.yul\":7035:7355   */\n              swap2\n              swap1\n              pop\n              jump\t// out\n                /* \"#utility.yul\":7361:7502   */\n            tag_71:\n                /* \"#utility.yul\":7410:7414   */\n              0x00\n                /* \"#utility.yul\":7433:7436   */\n              dup2\n                /* \"#utility.yul\":7425:7436   */\n              swap1\n              pop\n                /* \"#utility.yul\":7456:7459   */\n              dup2\n                /* \"#utility.yul\":7453:7454   */\n              0x00\n                /* \"#utility.yul\":7446:7460   */\n              mstore\n                /* \"#utility.yul\":7490:7494   */\n              0x20\n                /* \"#utility.yul\":7487:7488   */\n              0x00\n                /* \"#utility.yul\":7477:7495   */\n              keccak256\n                /* \"#utility.yul\":7469:7495   */\n              swap1\n              pop\n                /* \"#utility.yul\":7361:7502   */\n              swap2\n              swap1\n              pop\n              jump\t// out\n                /* \"#utility.yul\":7508:7601   */\n            tag_72:\n                /* \"#utility.yul\":7545:7551   */\n              0x00\n                /* \"#utility.yul\":7592:7594   */\n              0x20\n                /* \"#utility.yul\":7587:7589   */\n              0x1f\n                /* \"#utility.yul\":7580:7585   */\n              dup4\n                /* \"#utility.yul\":7576:7590   */\n              add\n                /* \"#utility.yul\":7572:7595   */\n              div\n                /* \"#utility.yul\":7562:7595   */\n              swap1\n              pop\n                /* \"#utility.yul\":7508:7601   */\n              swap2\n              swap1\n              pop\n              jump\t// out\n                /* \"#utility.yul\":7607:7714   */\n            tag_73:\n                /* \"#utility.yul\":7651:7659   */\n              0x00\n                /* \"#utility.yul\":7701:7706   */\n              dup3\n                /* \"#utility.yul\":7695:7699   */\n              dup3\n                /* \"#utility.yul\":7691:7707   */\n              shl\n                /* \"#utility.yul\":7670:7707   */\n              swap1\n              pop\n                /* \"#utility.yul\":7607:7714   */\n              swap3\n              swap2\n              pop\n              pop\n              jump\t// out\n                /* \"#utility.yul\":7720:8113   */\n            tag_74:\n                /* \"#utility.yul\":7789:7795   */\n              0x00\n                /* \"#utility.yul\":7839:7840   */\n              0x08\n                /* \"#utility.yul\":7827:7837   */\n              dup4\n                /* \"#utility.yul\":7823:7841   */\n              mul\n                /* \"#utility.yul\":7862:7959   */\n              tag_174\n                /* \"#utility.yul\":7892:7958   */\n              0xffffffffffffffffffffffffffffffffffffffffffffffffffffffffffffffff\n                /* \"#utility.yul\":7881:7890   */\n              dup3\n                /* \"#utility.yul\":7862:7959   */\n              tag_73\n              jump\t// in\n            tag_174:\n                /* \"#utility.yul\":7980:8019   */\n              tag_175\n                /* \"#utility.yul\":8010:8018   */\n              dup7\n                /* \"#utility.yul\":7999:8008   */\n              dup4\n                /* \"#utility.yul\":7980:8019   */\n              tag_73\n              jump\t// in\n            tag_175:\n                /* \"#utility.yul\":7968:8019   */\n              swap6\n              pop\n                /* \"#utility.yul\":8052:8056   */\n              dup1\n                /* \"#utility.yul\":8048:8057   */\n              not\n                /* \"#utility.yul\":8041:8046   */\n              dup5\n                /* \"#utility.yul\":8037:8058   */\n              and\n                /* \"#utility.yul\":8028:8058   */\n              swap4\n              pop\n                /* \"#utility.yul\":8101:8105   */\n              dup1\n                /* \"#utility.yul\":8091:8099   */\n              dup7\n                /* \"#utility.yul\":8087:8106   */\n              and\n                /* \"#utility.yul\":8080:8085   */\n              dup5\n                /* \"#utility.yul\":8077:8107   */\n              or\n                /* \"#utility.yul\":8067:8107   */\n              swap3\n              pop\n                /* \"#utility.yul\":7796:8113   */\n              pop\n              pop\n                /* \"#utility.yul\":7720:8113   */\n              swap4\n              swap3\n              pop\n              pop\n              pop\n              jump\t// out\n                /* \"#utility.yul\":8119:8179   */\n            tag_75:\n                /* \"#utility.yul\":8147:8150   */\n              0x00\n                /* \"#utility.yul\":8168:8173   */\n              dup2\n                /* \"#utility.yul\":8161:8173   */\n              swap1\n              pop\n                /* \"#utility.yul\":8119:8179   */\n              swap2\n              swap1\n              pop\n              jump\t// out\n                /* \"#utility.yul\":8185:8327   */\n            tag_76:\n                /* \"#utility.yul\":8235:8244   */\n              0x00\n                /* \"#utility.yul\":8268:8321   */\n              tag_178\n                /* \"#utility.yul\":8286:8320   */\n              tag_179\n                /* \"#utility.yul\":8295:8319   */\n              tag_180\n                /* \"#utility.yul\":8313:8318   */\n              dup5\n                /* \"#utility.yul\":8295:8319   */\n              tag_46\n              jump\t// in\n            tag_180:\n                /* \"#utility.yul\":8286:8320   */\n              tag_75\n              jump\t// in\n            tag_179:\n                /* \"#utility.yul\":8268:8321   */\n              tag_46\n              jump\t// in\n            tag_178:\n                /* \"#utility.yul\":8255:8321   */\n              swap1\n              pop\n                /* \"#utility.yul\":8185:8327   */\n              swap2\n              swap1\n              pop\n              jump\t// out\n                /* \"#utility.yul\":8333:8408   */\n            tag_77:\n                /* \"#utility.yul\":8376:8379   */\n              0x00\n                /* \"#utility.yul\":8397:8402   */\n              dup2\n                /* \"#utility.yul\":8390:8402   */\n              swap1\n              pop\n                /* \"#utility.yul\":8333:8408   */\n              swap2\n              swap1\n              pop\n              jump\t// out\n                /* \"#utility.yul\":8414:8683   */\n            tag_78:\n                /* \"#utility.yul\":8524:8563   */\n              tag_183\n                /* \"#utility.yul\":8555:8562   */\n              dup4\n                /* \"#utility.yul\":8524:8563   */\n              tag_76\n              jump\t// in\n            tag_183:\n                /* \"#utility.yul\":8585:8676   */\n              tag_184\n                /* \"#utility.yul\":8634:8675   */\n              tag_185\n                /* \"#utility.yul\":8658:8674   */\n              dup3\n                /* \"#utility.yul\":8634:8675   */\n              tag_77\n              jump\t// in\n            tag_185:\n                /* \"#utility.yul\":8626:8632   */\n              dup5\n                /* \"#utility.yul\":8619:8623   */\n              dup5\n                /* \"#utility.yul\":8613:8624   */\n              sload\n                /* \"#utility.yul\":8585:8676   */\n              tag_74\n              jump\t// in\n            tag_184:\n                /* \"#utility.yul\":8579:8583   */\n              dup3\n                /* \"#utility.yul\":8572:8677   */\n              sstore\n                /* \"#utility.yul\":8490:8683   */\n              pop\n                /* \"#utility.yul\":8414:8683   */\n              pop\n              pop\n              pop\n              jump\t// out\n                /* \"#utility.yul\":8689:8762   */\n            tag_79:\n                /* \"#utility.yul\":8734:8737   */\n              0x00\n                /* \"#utility.yul\":8689:8762   */\n              swap1\n              jump\t// out\n                /* \"#utility.yul\":8768:8957   */\n            tag_80:\n                /* \"#utility.yul\":8845:8877   */\n              tag_188\n              tag_79\n              jump\t// in\n            tag_188:\n                /* \"#utility.yul\":8886:8951   */\n              tag_189\n                /* \"#utility.yul\":8944:8950   */\n              dup2\n                /* \"#utility.yul\":8936:8942   */\n              dup5\n                /* \"#utility.yul\":8930:8934   */\n              dup5\n                /* \"#utility.yul\":8886:8951   */\n              tag_78\n              jump\t// in\n            tag_189:\n                /* \"#utility.yul\":8821:8957   */\n              pop\n                /* \"#utility.yul\":8768:8957   */\n              pop\n              pop\n              jump\t// out\n                /* \"#utility.yul\":8963:9149   */\n            tag_81:\n                /* \"#utility.yul\":9023:9143   */\n            tag_191:\n                /* \"#utility.yul\":9040:9043   */\n              dup2\n                /* \"#utility.yul\":9033:9038   */\n              dup2\n                /* \"#utility.yul\":9030:9044   */\n              lt\n                /* \"#utility.yul\":9023:9143   */\n              iszero\n              tag_193\n              jumpi\n                /* \"#utility.yul\":9094:9133   */\n              tag_194\n                /* \"#utility.yul\":9131:9132   */\n              0x00\n                /* \"#utility.yul\":9124:9129   */\n              dup3\n                /* \"#utility.yul\":9094:9133   */\n              tag_80\n              jump\t// in\n            tag_194:\n                /* \"#utility.yul\":9067:9068   */\n              0x01\n                /* \"#utility.yul\":9060:9065   */\n              dup2\n                /* \"#utility.yul\":9056:9069   */\n              add\n                /* \"#utility.yul\":9047:9069   */\n              swap1\n              pop\n                /* \"#utility.yul\":9023:9143   */\n              jump(tag_191)\n            tag_193:\n                /* \"#utility.yul\":8963:9149   */\n              pop\n              pop\n              jump\t// out\n                /* \"#utility.yul\":9155:9698   */\n            tag_82:\n                /* \"#utility.yul\":9256:9258   */\n              0x1f\n                /* \"#utility.yul\":9251:9254   */\n              dup3\n                /* \"#utility.yul\":9248:9259   */\n              gt\n                /* \"#utility.yul\":9245:9691   */\n              iszero\n              tag_196\n              jumpi\n                /* \"#utility.yul\":9290:9328   */\n              tag_197\n                /* \"#utility.yul\":9322:9327   */\n              dup2\n                /* \"#utility.yul\":9290:9328   */\n              tag_71\n              jump\t// in\n            tag_197:\n                /* \"#utility.yul\":9374:9403   */\n              tag_198\n                /* \"#utility.yul\":9392:9402   */\n              dup5\n                /* \"#utility.yul\":9374:9403   */\n              tag_72\n              jump\t// in\n            tag_198:\n                /* \"#utility.yul\":9364:9372   */\n              dup2\n                /* \"#utility.yul\":9360:9404   */\n              add\n                /* \"#utility.yul\":9557:9559   */\n              0x20\n                /* \"#utility.yul\":9545:9555   */\n              dup6\n                /* \"#utility.yul\":9542:9560   */\n              lt\n                /* \"#utility.yul\":9539:9588   */\n              iszero\n              tag_199\n              jumpi\n                /* \"#utility.yul\":9578:9586   */\n              dup2\n                /* \"#utility.yul\":9563:9586   */\n              swap1\n              pop\n                /* \"#utility.yul\":9539:9588   */\n            tag_199:\n                /* \"#utility.yul\":9601:9681   */\n              tag_200\n                /* \"#utility.yul\":9657:9679   */\n              tag_201\n                /* \"#utility.yul\":9675:9678   */\n              dup6\n                /* \"#utility.yul\":9657:9679   */\n              tag_72\n              jump\t// in\n            tag_201:\n                /* \"#utility.yul\":9647:9655   */\n              dup4\n                /* \"#utility.yul\":9643:9680   */\n              add\n                /* \"#utility.yul\":9630:9641   */\n              dup3\n                /* \"#utility.yul\":9601:9681   */\n              tag_81\n              jump\t// in\n            tag_200:\n                /* \"#utility.yul\":9260:9691   */\n              pop\n              pop\n                /* \"#utility.yul\":9245:9691   */\n            tag_196:\n                /* \"#utility.yul\":9155:9698   */\n              pop\n              pop\n              pop\n              jump\t// out\n                /* \"#utility.yul\":9704:9821   */\n            tag_83:\n                /* \"#utility.yul\":9758:9766   */\n              0x00\n                /* \"#utility.yul\":9808:9813   */\n              dup3\n                /* \"#utility.yul\":9802:9806   */\n              dup3\n                /* \"#utility.yul\":9798:9814   */\n              shr\n                /* \"#utility.yul\":9777:9814   */\n              swap1\n              pop\n                /* \"#utility.yul\":9704:9821   */\n              swap3\n              swap2\n              pop\n              pop\n              jump\t// out\n                /* \"#utility.yul\":9827:9996   */\n            tag_84:\n                /* \"#utility.yul\":9871:9877   */\n              0x00\n                /* \"#utility.yul\":9904:9955   */\n              tag_204\n                /* \"#utility.yul\":9952:9953   */\n              0x00\n                /* \"#utility.yul\":9948:9954   */\n              not\n                /* \"#utility.yul\":9940:9945   */\n              dup5\n                /* \"#utility.yul\":9937:9938   */\n              0x08\n                /* \"#utility.yul\":9933:9946   */\n              mul\n                /* \"#utility.yul\":9904:9955   */\n              tag_83\n              jump\t// in\n            tag_204:\n                /* \"#utility.yul\":9900:9956   */\n              not\n                /* \"#utility.yul\":9985:9989   */\n              dup1\n                /* \"#utility.yul\":9979:9983   */\n              dup4\n                /* \"#utility.yul\":9975:9990   */\n              and\n                /* \"#utility.yul\":9965:9990   */\n              swap2\n              pop\n                /* \"#utility.yul\":9878:9996   */\n              pop\n                /* \"#utility.yul\":9827:9996   */\n              swap3\n              swap2\n              pop\n              pop\n              jump\t// out\n                /* \"#utility.yul\":10001:10296   */\n            tag_85:\n                /* \"#utility.yul\":10077:10081   */\n              0x00\n                /* \"#utility.yul\":10223:10252   */\n              tag_206\n                /* \"#utility.yul\":10248:10251   */\n              dup4\n                /* \"#utility.yul\":10242:10246   */\n              dup4\n                /* \"#utility.yul\":10223:10252   */\n              tag_84\n              jump\t// in\n            tag_206:\n                /* \"#utility.yul\":10215:10252   */\n              swap2\n              pop\n                /* \"#utility.yul\":10285:10288   */\n              dup3\n                /* \"#utility.yul\":10282:10283   */\n              0x02\n                /* \"#utility.yul\":10278:10289   */\n              mul\n                /* \"#utility.yul\":10272:10276   */\n              dup3\n                /* \"#utility.yul\":10269:10290   */\n              or\n                /* \"#utility.yul\":10261:10290   */\n              swap1\n              pop\n                /* \"#utility.yul\":10001:10296   */\n              swap3\n              swap2\n              pop\n              pop\n              jump\t// out\n                /* \"#utility.yul\":10301:11696   */\n            tag_43:\n                /* \"#utility.yul\":10418:10455   */\n              tag_208\n                /* \"#utility.yul\":10451:10454   */\n              dup3\n                /* \"#utility.yul\":10418:10455   */\n              tag_53\n              jump\t// in\n            tag_208:\n                /* \"#utility.yul\":10520:10538   */\n              0xffffffffffffffff\n                /* \"#utility.yul\":10512:10518   */\n              dup2\n                /* \"#utility.yul\":10509:10539   */\n              gt\n                /* \"#utility.yul\":10506:10562   */\n              iszero\n              tag_209\n              jumpi\n                /* \"#utility.yul\":10542:10560   */\n              tag_210\n              tag_63\n              jump\t// in\n            tag_210:\n                /* \"#utility.yul\":10506:10562   */\n            tag_209:\n                /* \"#utility.yul\":10586:10624   */\n              tag_211\n                /* \"#utility.yul\":10618:10622   */\n              dup3\n                /* \"#utility.yul\":10612:10623   */\n              sload\n                /* \"#utility.yul\":10586:10624   */\n              tag_34\n              jump\t// in\n            tag_211:\n                /* \"#utility.yul\":10671:10738   */\n              tag_212\n                /* \"#utility.yul\":10731:10737   */\n              dup3\n                /* \"#utility.yul\":10723:10729   */\n              dup3\n                /* \"#utility.yul\":10717:10721   */\n              dup6\n                /* \"#utility.yul\":10671:10738   */\n              tag_82\n              jump\t// in\n            tag_212:\n                /* \"#utility.yul\":10765:10766   */\n              0x00\n                /* \"#utility.yul\":10789:10793   */\n              0x20\n                /* \"#utility.yul\":10776:10793   */\n              swap1\n              pop\n                /* \"#utility.yul\":10821:10823   */\n              0x1f\n                /* \"#utility.yul\":10813:10819   */\n              dup4\n                /* \"#utility.yul\":10810:10824   */\n              gt\n                /* \"#utility.yul\":10838:10839   */\n              0x01\n                /* \"#utility.yul\":10833:11451   */\n              dup2\n              eq\n              tag_214\n              jumpi\n                /* \"#utility.yul\":11495:11496   */\n              0x00\n                /* \"#utility.yul\":11512:11518   */\n              dup5\n                /* \"#utility.yul\":11509:11586   */\n              iszero\n              tag_215\n              jumpi\n                /* \"#utility.yul\":11561:11570   */\n              dup3\n                /* \"#utility.yul\":11556:11559   */\n              dup8\n                /* \"#utility.yul\":11552:11571   */\n              add\n                /* \"#utility.yul\":11546:11572   */\n              mload\n                /* \"#utility.yul\":11537:11572   */\n              swap1\n              pop\n                /* \"#utility.yul\":11509:11586   */\n            tag_215:\n                /* \"#utility.yul\":11612:11679   */\n              tag_216\n                /* \"#utility.yul\":11672:11678   */\n              dup6\n                /* \"#utility.yul\":11665:11670   */\n              dup3\n                /* \"#utility.yul\":11612:11679   */\n              tag_85\n              jump\t// in\n            tag_216:\n                /* \"#utility.yul\":11606:11610   */\n              dup7\n                /* \"#utility.yul\":11599:11680   */\n              sstore\n                /* \"#utility.yul\":11468:11690   */\n              pop\n                /* \"#utility.yul\":10803:11690   */\n              jump(tag_213)\n                /* \"#utility.yul\":10833:11451   */\n            tag_214:\n                /* \"#utility.yul\":10885:10889   */\n              0x1f\n                /* \"#utility.yul\":10881:10890   */\n              not\n                /* \"#utility.yul\":10873:10879   */\n              dup5\n                /* \"#utility.yul\":10869:10891   */\n              and\n                /* \"#utility.yul\":10919:10956   */\n              tag_217\n                /* \"#utility.yul\":10951:10955   */\n              dup7\n                /* \"#utility.yul\":10919:10956   */\n              tag_71\n              jump\t// in\n            tag_217:\n                /* \"#utility.yul\":10978:10979   */\n              0x00\n                /* \"#utility.yul\":10992:11200   */\n            tag_218:\n                /* \"#utility.yul\":11006:11013   */\n              dup3\n                /* \"#utility.yul\":11003:11004   */\n              dup2\n                /* \"#utility.yul\":11000:11014   */\n              lt\n                /* \"#utility.yul\":10992:11200   */\n              iszero\n              tag_220\n              jumpi\n                /* \"#utility.yul\":11085:11094   */\n              dup5\n                /* \"#utility.yul\":11080:11083   */\n              dup10\n                /* \"#utility.yul\":11076:11095   */\n              add\n                /* \"#utility.yul\":11070:11096   */\n              mload\n                /* \"#utility.yul\":11062:11068   */\n              dup3\n                /* \"#utility.yul\":11055:11097   */\n              sstore\n                /* \"#utility.yul\":11136:11137   */\n              0x01\n                /* \"#utility.yul\":11128:11134   */\n              dup3\n                /* \"#utility.yul\":11124:11138   */\n              add\n                /* \"#utility.yul\":11114:11138   */\n              swap2\n              pop\n                /* \"#utility.yul\":11183:11185   */\n              0x20\n                /* \"#utility.yul\":11172:11181   */\n              dup6\n                /* \"#utility.yul\":11168:11186   */\n              add\n                /* \"#utility.yul\":11155:11186   */\n              swap5\n              pop\n                /* \"#utility.yul\":11029:11033   */\n              0x20\n                /* \"#utility.yul\":11026:11027   */\n              dup2\n                /* \"#utility.yul\":11022:11034   */\n              add\n                /* \"#utility.yul\":11017:11034   */\n              swap1\n              pop\n                /* \"#utility.yul\":10992:11200   */\n              jump(tag_218)\n            tag_220:\n                /* \"#utility.yul\":11228:11234   */\n              dup7\n                /* \"#utility.yul\":11219:11226   */\n              dup4\n                /* \"#utility.yul\":11216:11235   */\n              lt\n                /* \"#utility.yul\":11213:11392   */\n              iszero\n              tag_221\n              jumpi\n                /* \"#utility.yul\":11286:11295   */\n              dup5\n                /* \"#utility.yul\":11281:11284   */\n              dup10\n                /* \"#utility.yul\":11277:11296   */\n              add\n                /* \"#utility.yul\":11271:11297   */\n              mload\n                /* \"#utility.yul\":11329:11377   */\n              tag_222\n                /* \"#utility.yul\":11371:11375   */\n              0x1f\n                /* \"#utility.yul\":11363:11369   */\n              dup10\n                /* \"#utility.yul\":11359:11376   */\n              and\n                /* \"#utility.yul\":11348:11357   */\n              dup3\n                /* \"#utility.yul\":11329:11377   */\n              tag_84\n              jump\t// in\n            tag_222:\n                /* \"#utility.yul\":11321:11327   */\n              dup4\n                /* \"#utility.yul\":11314:11378   */\n              sstore\n                /* \"#utility.yul\":11236:11392   */\n              pop\n                /* \"#utility.yul\":11213:11392   */\n            tag_221:\n                /* \"#utility.yul\":11438:11439   */\n              0x01\n                /* \"#utility.yul\":11434:11435   */\n              0x02\n                /* \"#utility.yul\":11426:11432   */\n              dup9\n                /* \"#utility.yul\":11422:11436   */\n              mul\n                /* \"#utility.yul\":11418:11440   */\n              add\n                /* \"#utility.yul\":11412:11416   */\n              dup9\n                /* \"#utility.yul\":11405:11441   */\n              sstore\n                /* \"#utility.yul\":10840:11451   */\n              pop\n              pop\n              pop\n                /* \"#utility.yul\":10803:11690   */\n            tag_213:\n              pop\n                /* \"#utility.yul\":10393:11696   */\n              pop\n              pop\n              pop\n                /* \"#utility.yul\":10301:11696   */\n              pop\n              pop\n              jump\t// out\n                /* \"#utility.yul\":11702:11850   */\n            tag_86:\n                /* \"#utility.yul\":11804:11815   */\n              0x00\n                /* \"#utility.yul\":11841:11844   */\n              dup2\n                /* \"#utility.yul\":11826:11844   */\n              swap1\n              pop\n                /* \"#utility.yul\":11702:11850   */\n              swap3\n              swap2\n              pop\n              pop\n              jump\t// out\n                /* \"#utility.yul\":11880:12210   */\n            tag_87:\n                /* \"#utility.yul\":11996:11999   */\n              0x00\n                /* \"#utility.yul\":12017:12106   */\n              tag_225\n                /* \"#utility.yul\":12099:12105   */\n              dup4\n                /* \"#utility.yul\":12094:12097   */\n              dup6\n                /* \"#utility.yul\":12017:12106   */\n              tag_86\n              jump\t// in\n            tag_225:\n                /* \"#utility.yul\":12010:12106   */\n              swap4\n              pop\n                /* \"#utility.yul\":12116:12172   */\n              tag_226\n                /* \"#utility.yul\":12165:12171   */\n              dup4\n                /* \"#utility.yul\":12160:12163   */\n              dup6\n                /* \"#utility.yul\":12153:12158   */\n              dup5\n                /* \"#utility.yul\":12116:12172   */\n              tag_67\n              jump\t// in\n            tag_226:\n                /* \"#utility.yul\":12197:12203   */\n              dup3\n                /* \"#utility.yul\":12192:12195   */\n              dup5\n                /* \"#utility.yul\":12188:12204   */\n              add\n                /* \"#utility.yul\":12181:12204   */\n              swap1\n              pop\n                /* \"#utility.yul\":11880:12210   */\n              swap4\n              swap3\n              pop\n              pop\n              pop\n              jump\t// out\n                /* \"#utility.yul\":12216:12511   */\n            tag_45:\n                /* \"#utility.yul\":12358:12361   */\n              0x00\n                /* \"#utility.yul\":12380:12485   */\n              tag_228\n                /* \"#utility.yul\":12481:12484   */\n              dup3\n                /* \"#utility.yul\":12472:12478   */\n              dup5\n                /* \"#utility.yul\":12464:12470   */\n              dup7\n                /* \"#utility.yul\":12380:12485   */\n              tag_87\n              jump\t// in\n            tag_228:\n                /* \"#utility.yul\":12373:12485   */\n              swap2\n              pop\n                /* \"#utility.yul\":12502:12505   */\n              dup2\n                /* \"#utility.yul\":12495:12505   */\n              swap1\n              pop\n                /* \"#utility.yul\":12216:12511   */\n              swap4\n              swap3\n              pop\n              pop\n              pop\n              jump\t// out\n\n            auxdata: 0xa2646970667358221220ae0cd6e2a561e783b6825b08edc057036fab2b6fc26a912de4c88fe7e764afdb64736f6c634300081a0033\n        }\n    }\n\n    auxdata: 0xa2646970667358221220a5beafce9a06bd24061957509b39f6d60aae803c871946c2c6926f05cdc26ba664736f6c634300081a0033\n}\n",
				"bytecode": {
					"linkReferences": {},
					"object": "6080604052348015600e575f80fd5b50610e908061001c5f395ff3fe608060405234801561000f575f80fd5b506004361061004a575f3560e01c80631563700f1461004e5780631dda65411461006a57806343fe9b7b14610074578063c5f19c20146100a4575b5f80fd5b6100686004803603810190610063919061033a565b6100d4565b005b61007261017d565b005b61008e60048036038101906100899190610378565b610208565b60405161009b919061041d565b60405180910390f35b6100be60048036038101906100b99190610378565b610242565b6040516100cb9190610445565b60405180910390f35b5f8083815481106100e8576100e761045e565b5b905f5260205f20015f9054906101000a900473ffffffffffffffffffffffffffffffffffffffff1690508073ffffffffffffffffffffffffffffffffffffffff16636057361d836040518263ffffffff1660e01b815260040161014b9190610445565b5f604051808303815f87803b158015610162575f80fd5b505af1158015610174573d5f803e3d5ffd5b50505050505050565b5f60405161018a906102f6565b604051809103905ff0801580156101a3573d5f803e3d5ffd5b5090505f81908060018154018082558091505060019003905f5260205f20015f9091909190916101000a81548173ffffffffffffffffffffffffffffffffffffffff021916908373ffffffffffffffffffffffffffffffffffffffff16021790555050565b5f8181548110610216575f80fd5b905f5260205f20015f915054906101000a900473ffffffffffffffffffffffffffffffffffffffff1681565b5f805f83815481106102575761025661045e565b5b905f5260205f20015f9054906101000a900473ffffffffffffffffffffffffffffffffffffffff1690508073ffffffffffffffffffffffffffffffffffffffff16632e64cec16040518163ffffffff1660e01b8152600401602060405180830381865afa1580156102ca573d5f803e3d5ffd5b505050506040513d601f19601f820116820180604052508101906102ee919061049f565b915050919050565b610990806104cb83390190565b5f80fd5b5f819050919050565b61031981610307565b8114610323575f80fd5b50565b5f8135905061033481610310565b92915050565b5f80604083850312156103505761034f610303565b5b5f61035d85828601610326565b925050602061036e85828601610326565b9150509250929050565b5f6020828403121561038d5761038c610303565b5b5f61039a84828501610326565b91505092915050565b5f73ffffffffffffffffffffffffffffffffffffffff82169050919050565b5f819050919050565b5f6103e56103e06103db846103a3565b6103c2565b6103a3565b9050919050565b5f6103f6826103cb565b9050919050565b5f610407826103ec565b9050919050565b610417816103fd565b82525050565b5f6020820190506104305f83018461040e565b92915050565b61043f81610307565b82525050565b5f6020820190506104585f830184610436565b92915050565b7f4e487b71000000000000000000000000000000000000000000000000000000005f52603260045260245ffd5b5f8151905061049981610310565b92915050565b5f602082840312156104b4576104b3610303565b5b5f6104c18482850161048b565b9150509291505056fe6080604052348015600e575f80fd5b506109748061001c5f395ff3fe608060405234801561000f575f80fd5b5060043610610055575f3560e01c80632e64cec1146100595780632ebce631146100775780636057361d146100a85780636f760f41146100c45780638bab8dd5146100e0575b5f80fd5b610061610110565b60405161006e91906102e5565b60405180910390f35b610091600480360381019061008c9190610339565b610118565b60405161009f9291906103d4565b60405180910390f35b6100c260048036038101906100bd9190610339565b6101cd565b005b6100de60048036038101906100d99190610463565b6101d6565b005b6100fa60048036038101906100f591906105e8565b6102a0565b60405161010791906102e5565b60405180910390f35b5f8054905090565b60018181548110610127575f80fd5b905f5260205f2090600202015f91509050805f01549080600101805461014c9061065c565b80601f01602080910402602001604051908101604052809291908181526020018280546101789061065c565b80156101c35780601f1061019a576101008083540402835291602001916101c3565b820191905f5260205f20905b8154815290600101906020018083116101a657829003601f168201915b5050505050905082565b805f8190555050565b6001604051806040016040528083815260200185858080601f0160208091040260200160405190810160405280939291908181526020018383808284375f81840152601f19601f82011690508083019250505050505050815250908060018154018082558091505060019003905f5260205f2090600202015f909190919091505f820151815f015560208201518160010190816102739190610829565b5050508060028484604051610289929190610926565b908152602001604051809103902081905550505050565b6002818051602081018201805184825260208301602085012081835280955050505050505f915090505481565b5f819050919050565b6102df816102cd565b82525050565b5f6020820190506102f85f8301846102d6565b92915050565b5f604051905090565b5f80fd5b5f80fd5b610318816102cd565b8114610322575f80fd5b50565b5f813590506103338161030f565b92915050565b5f6020828403121561034e5761034d610307565b5b5f61035b84828501610325565b91505092915050565b5f81519050919050565b5f82825260208201905092915050565b8281835e5f83830152505050565b5f601f19601f8301169050919050565b5f6103a682610364565b6103b0818561036e565b93506103c081856020860161037e565b6103c98161038c565b840191505092915050565b5f6040820190506103e75f8301856102d6565b81810360208301526103f9818461039c565b90509392505050565b5f80fd5b5f80fd5b5f80fd5b5f8083601f84011261042357610422610402565b5b8235905067ffffffffffffffff8111156104405761043f610406565b5b60208301915083600182028301111561045c5761045b61040a565b5b9250929050565b5f805f6040848603121561047a57610479610307565b5b5f84013567ffffffffffffffff8111156104975761049661030b565b5b6104a38682870161040e565b935093505060206104b686828701610325565b9150509250925092565b5f80fd5b7f4e487b71000000000000000000000000000000000000000000000000000000005f52604160045260245ffd5b6104fa8261038c565b810181811067ffffffffffffffff82111715610519576105186104c4565b5b80604052505050565b5f61052b6102fe565b905061053782826104f1565b919050565b5f67ffffffffffffffff821115610556576105556104c4565b5b61055f8261038c565b9050602081019050919050565b828183375f83830152505050565b5f61058c6105878461053c565b610522565b9050828152602081018484840111156105a8576105a76104c0565b5b6105b384828561056c565b509392505050565b5f82601f8301126105cf576105ce610402565b5b81356105df84826020860161057a565b91505092915050565b5f602082840312156105fd576105fc610307565b5b5f82013567ffffffffffffffff81111561061a5761061961030b565b5b610626848285016105bb565b91505092915050565b7f4e487b71000000000000000000000000000000000000000000000000000000005f52602260045260245ffd5b5f600282049050600182168061067357607f821691505b6020821081036106865761068561062f565b5b50919050565b5f819050815f5260205f209050919050565b5f6020601f8301049050919050565b5f82821b905092915050565b5f600883026106e87fffffffffffffffffffffffffffffffffffffffffffffffffffffffffffffffff826106ad565b6106f286836106ad565b95508019841693508086168417925050509392505050565b5f819050919050565b5f61072d610728610723846102cd565b61070a565b6102cd565b9050919050565b5f819050919050565b61074683610713565b61075a61075282610734565b8484546106b9565b825550505050565b5f90565b61076e610762565b61077981848461073d565b505050565b5b8181101561079c576107915f82610766565b60018101905061077f565b5050565b601f8211156107e1576107b28161068c565b6107bb8461069e565b810160208510156107ca578190505b6107de6107d68561069e565b83018261077e565b50505b505050565b5f82821c905092915050565b5f6108015f19846008026107e6565b1980831691505092915050565b5f61081983836107f2565b9150826002028217905092915050565b61083282610364565b67ffffffffffffffff81111561084b5761084a6104c4565b5b610855825461065c565b6108608282856107a0565b5f60209050601f831160018114610891575f841561087f578287015190505b610889858261080e565b8655506108f0565b601f19841661089f8661068c565b5f5b828110156108c6578489015182556001820191506020850194506020810190506108a1565b868310156108e357848901516108df601f8916826107f2565b8355505b6001600288020188555050505b505050505050565b5f81905092915050565b5f61090d83856108f8565b935061091a83858461056c565b82840190509392505050565b5f610932828486610902565b9150819050939250505056fea2646970667358221220ae0cd6e2a561e783b6825b08edc057036fab2b6fc26a912de4c88fe7e764afdb64736f6c634300081a0033a2646970667358221220a5beafce9a06bd24061957509b39f6d60aae803c871946c2c6926f05cdc26ba664736f6c634300081a0033",
					"opcodes": "PUSH1 0x80 PUSH1 0x40 MSTORE CALLVALUE DUP1 ISZERO PUSH1 0xE JUMPI PUSH0 DUP1 REVERT JUMPDEST POP PUSH2 0xE90 DUP1 PUSH2 0x1C PUSH0 CODECOPY PUSH0 RETURN INVALID PUSH1 0x80 PUSH1 0x40 MSTORE CALLVALUE DUP1 ISZERO PUSH2 0xF JUMPI PUSH0 DUP1 REVERT JUMPDEST POP PUSH1 0x4 CALLDATASIZE LT PUSH2 0x4A JUMPI PUSH0 CALLDATALOAD PUSH1 0xE0 SHR DUP1 PUSH4 0x1563700F EQ PUSH2 0x4E JUMPI DUP1 PUSH4 0x1DDA6541 EQ PUSH2 0x6A JUMPI DUP1 PUSH4 0x43FE9B7B EQ PUSH2 0x74 JUMPI DUP1 PUSH4 0xC5F19C20 EQ PUSH2 0xA4 JUMPI JUMPDEST PUSH0 DUP1 REVERT JUMPDEST PUSH2 0x68 PUSH1 0x4 DUP1 CALLDATASIZE SUB DUP2 ADD SWAP1 PUSH2 0x63 SWAP2 SWAP1 PUSH2 0x33A JUMP JUMPDEST PUSH2 0xD4 JUMP JUMPDEST STOP JUMPDEST PUSH2 0x72 PUSH2 0x17D JUMP JUMPDEST STOP JUMPDEST PUSH2 0x8E PUSH1 0x4 DUP1 CALLDATASIZE SUB DUP2 ADD SWAP1 PUSH2 0x89 SWAP2 SWAP1 PUSH2 0x378 JUMP JUMPDEST PUSH2 0x208 JUMP JUMPDEST PUSH1 0x40 MLOAD PUSH2 0x9B SWAP2 SWAP1 PUSH2 0x41D JUMP JUMPDEST PUSH1 0x40 MLOAD DUP1 SWAP2 SUB SWAP1 RETURN JUMPDEST PUSH2 0xBE PUSH1 0x4 DUP1 CALLDATASIZE SUB DUP2 ADD SWAP1 PUSH2 0xB9 SWAP2 SWAP1 PUSH2 0x378 JUMP JUMPDEST PUSH2 0x242 JUMP JUMPDEST PUSH1 0x40 MLOAD PUSH2 0xCB SWAP2 SWAP1 PUSH2 0x445 JUMP JUMPDEST PUSH1 0x40 MLOAD DUP1 SWAP2 SUB SWAP1 RETURN JUMPDEST PUSH0 DUP1 DUP4 DUP2 SLOAD DUP2 LT PUSH2 0xE8 JUMPI PUSH2 0xE7 PUSH2 0x45E JUMP JUMPDEST JUMPDEST SWAP1 PUSH0 MSTORE PUSH1 0x20 PUSH0 KECCAK256 ADD PUSH0 SWAP1 SLOAD SWAP1 PUSH2 0x100 EXP SWAP1 DIV PUSH20 0xFFFFFFFFFFFFFFFFFFFFFFFFFFFFFFFFFFFFFFFF AND SWAP1 POP DUP1 PUSH20 0xFFFFFFFFFFFFFFFFFFFFFFFFFFFFFFFFFFFFFFFF AND PUSH4 0x6057361D DUP4 PUSH1 0x40 MLOAD DUP3 PUSH4 0xFFFFFFFF AND PUSH1 0xE0 SHL DUP2 MSTORE PUSH1 0x4 ADD PUSH2 0x14B SWAP2 SWAP1 PUSH2 0x445 JUMP JUMPDEST PUSH0 PUSH1 0x40 MLOAD DUP1 DUP4 SUB DUP2 PUSH0 DUP8 DUP1 EXTCODESIZE ISZERO DUP1 ISZERO PUSH2 0x162 JUMPI PUSH0 DUP1 REVERT JUMPDEST POP GAS CALL ISZERO DUP1 ISZERO PUSH2 0x174 JUMPI RETURNDATASIZE PUSH0 DUP1 RETURNDATACOPY RETURNDATASIZE PUSH0 REVERT JUMPDEST POP POP POP POP POP POP POP JUMP JUMPDEST PUSH0 PUSH1 0x40 MLOAD PUSH2 0x18A SWAP1 PUSH2 0x2F6 JUMP JUMPDEST PUSH1 0x40 MLOAD DUP1 SWAP2 SUB SWAP1 PUSH0 CREATE DUP1 ISZERO DUP1 ISZERO PUSH2 0x1A3 JUMPI RETURNDATASIZE PUSH0 DUP1 RETURNDATACOPY RETURNDATASIZE PUSH0 REVERT JUMPDEST POP SWAP1 POP PUSH0 DUP2 SWAP1 DUP1 PUSH1 0x1 DUP2 SLOAD ADD DUP1 DUP3 SSTORE DUP1 SWAP2 POP POP PUSH1 0x1 SWAP1 SUB SWAP1 PUSH0 MSTORE PUSH1 0x20 PUSH0 KECCAK256 ADD PUSH0 SWAP1 SWAP2 SWAP1 SWAP2 SWAP1 SWAP2 PUSH2 0x100 EXP DUP2 SLOAD DUP2 PUSH20 0xFFFFFFFFFFFFFFFFFFFFFFFFFFFFFFFFFFFFFFFF MUL NOT AND SWAP1 DUP4 PUSH20 0xFFFFFFFFFFFFFFFFFFFFFFFFFFFFFFFFFFFFFFFF AND MUL OR SWAP1 SSTORE POP POP JUMP JUMPDEST PUSH0 DUP2 DUP2 SLOAD DUP2 LT PUSH2 0x216 JUMPI PUSH0 DUP1 REVERT JUMPDEST SWAP1 PUSH0 MSTORE PUSH1 0x20 PUSH0 KECCAK256 ADD PUSH0 SWAP2 POP SLOAD SWAP1 PUSH2 0x100 EXP SWAP1 DIV PUSH20 0xFFFFFFFFFFFFFFFFFFFFFFFFFFFFFFFFFFFFFFFF AND DUP2 JUMP JUMPDEST PUSH0 DUP1 PUSH0 DUP4 DUP2 SLOAD DUP2 LT PUSH2 0x257 JUMPI PUSH2 0x256 PUSH2 0x45E JUMP JUMPDEST JUMPDEST SWAP1 PUSH0 MSTORE PUSH1 0x20 PUSH0 KECCAK256 ADD PUSH0 SWAP1 SLOAD SWAP1 PUSH2 0x100 EXP SWAP1 DIV PUSH20 0xFFFFFFFFFFFFFFFFFFFFFFFFFFFFFFFFFFFFFFFF AND SWAP1 POP DUP1 PUSH20 0xFFFFFFFFFFFFFFFFFFFFFFFFFFFFFFFFFFFFFFFF AND PUSH4 0x2E64CEC1 PUSH1 0x40 MLOAD DUP2 PUSH4 0xFFFFFFFF AND PUSH1 0xE0 SHL DUP2 MSTORE PUSH1 0x4 ADD PUSH1 0x20 PUSH1 0x40 MLOAD DUP1 DUP4 SUB DUP2 DUP7 GAS STATICCALL ISZERO DUP1 ISZERO PUSH2 0x2CA JUMPI RETURNDATASIZE PUSH0 DUP1 RETURNDATACOPY RETURNDATASIZE PUSH0 REVERT JUMPDEST POP POP POP POP PUSH1 0x40 MLOAD RETURNDATASIZE PUSH1 0x1F NOT PUSH1 0x1F DUP3 ADD AND DUP3 ADD DUP1 PUSH1 0x40 MSTORE POP DUP2 ADD SWAP1 PUSH2 0x2EE SWAP2 SWAP1 PUSH2 0x49F JUMP JUMPDEST SWAP2 POP POP SWAP2 SWAP1 POP JUMP JUMPDEST PUSH2 0x990 DUP1 PUSH2 0x4CB DUP4 CODECOPY ADD SWAP1 JUMP JUMPDEST PUSH0 DUP1 REVERT JUMPDEST PUSH0 DUP2 SWAP1 POP SWAP2 SWAP1 POP JUMP JUMPDEST PUSH2 0x319 DUP2 PUSH2 0x307 JUMP JUMPDEST DUP2 EQ PUSH2 0x323 JUMPI PUSH0 DUP1 REVERT JUMPDEST POP JUMP JUMPDEST PUSH0 DUP2 CALLDATALOAD SWAP1 POP PUSH2 0x334 DUP2 PUSH2 0x310 JUMP JUMPDEST SWAP3 SWAP2 POP POP JUMP JUMPDEST PUSH0 DUP1 PUSH1 0x40 DUP4 DUP6 SUB SLT ISZERO PUSH2 0x350 JUMPI PUSH2 0x34F PUSH2 0x303 JUMP JUMPDEST JUMPDEST PUSH0 PUSH2 0x35D DUP6 DUP3 DUP7 ADD PUSH2 0x326 JUMP JUMPDEST SWAP3 POP POP PUSH1 0x20 PUSH2 0x36E DUP6 DUP3 DUP7 ADD PUSH2 0x326 JUMP JUMPDEST SWAP2 POP POP SWAP3 POP SWAP3 SWAP1 POP JUMP JUMPDEST PUSH0 PUSH1 0x20 DUP3 DUP5 SUB SLT ISZERO PUSH2 0x38D JUMPI PUSH2 0x38C PUSH2 0x303 JUMP JUMPDEST JUMPDEST PUSH0 PUSH2 0x39A DUP5 DUP3 DUP6 ADD PUSH2 0x326 JUMP JUMPDEST SWAP2 POP POP SWAP3 SWAP2 POP POP JUMP JUMPDEST PUSH0 PUSH20 0xFFFFFFFFFFFFFFFFFFFFFFFFFFFFFFFFFFFFFFFF DUP3 AND SWAP1 POP SWAP2 SWAP1 POP JUMP JUMPDEST PUSH0 DUP2 SWAP1 POP SWAP2 SWAP1 POP JUMP JUMPDEST PUSH0 PUSH2 0x3E5 PUSH2 0x3E0 PUSH2 0x3DB DUP5 PUSH2 0x3A3 JUMP JUMPDEST PUSH2 0x3C2 JUMP JUMPDEST PUSH2 0x3A3 JUMP JUMPDEST SWAP1 POP SWAP2 SWAP1 POP JUMP JUMPDEST PUSH0 PUSH2 0x3F6 DUP3 PUSH2 0x3CB JUMP JUMPDEST SWAP1 POP SWAP2 SWAP1 POP JUMP JUMPDEST PUSH0 PUSH2 0x407 DUP3 PUSH2 0x3EC JUMP JUMPDEST SWAP1 POP SWAP2 SWAP1 POP JUMP JUMPDEST PUSH2 0x417 DUP2 PUSH2 0x3FD JUMP JUMPDEST DUP3 MSTORE POP POP JUMP JUMPDEST PUSH0 PUSH1 0x20 DUP3 ADD SWAP1 POP PUSH2 0x430 PUSH0 DUP4 ADD DUP5 PUSH2 0x40E JUMP JUMPDEST SWAP3 SWAP2 POP POP JUMP JUMPDEST PUSH2 0x43F DUP2 PUSH2 0x307 JUMP JUMPDEST DUP3 MSTORE POP POP JUMP JUMPDEST PUSH0 PUSH1 0x20 DUP3 ADD SWAP1 POP PUSH2 0x458 PUSH0 DUP4 ADD DUP5 PUSH2 0x436 JUMP JUMPDEST SWAP3 SWAP2 POP POP JUMP JUMPDEST PUSH32 0x4E487B7100000000000000000000000000000000000000000000000000000000 PUSH0 MSTORE PUSH1 0x32 PUSH1 0x4 MSTORE PUSH1 0x24 PUSH0 REVERT JUMPDEST PUSH0 DUP2 MLOAD SWAP1 POP PUSH2 0x499 DUP2 PUSH2 0x310 JUMP JUMPDEST SWAP3 SWAP2 POP POP JUMP JUMPDEST PUSH0 PUSH1 0x20 DUP3 DUP5 SUB SLT ISZERO PUSH2 0x4B4 JUMPI PUSH2 0x4B3 PUSH2 0x303 JUMP JUMPDEST JUMPDEST PUSH0 PUSH2 0x4C1 DUP5 DUP3 DUP6 ADD PUSH2 0x48B JUMP JUMPDEST SWAP2 POP POP SWAP3 SWAP2 POP POP JUMP INVALID PUSH1 0x80 PUSH1 0x40 MSTORE CALLVALUE DUP1 ISZERO PUSH1 0xE JUMPI PUSH0 DUP1 REVERT JUMPDEST POP PUSH2 0x974 DUP1 PUSH2 0x1C PUSH0 CODECOPY PUSH0 RETURN INVALID PUSH1 0x80 PUSH1 0x40 MSTORE CALLVALUE DUP1 ISZERO PUSH2 0xF JUMPI PUSH0 DUP1 REVERT JUMPDEST POP PUSH1 0x4 CALLDATASIZE LT PUSH2 0x55 JUMPI PUSH0 CALLDATALOAD PUSH1 0xE0 SHR DUP1 PUSH4 0x2E64CEC1 EQ PUSH2 0x59 JUMPI DUP1 PUSH4 0x2EBCE631 EQ PUSH2 0x77 JUMPI DUP1 PUSH4 0x6057361D EQ PUSH2 0xA8 JUMPI DUP1 PUSH4 0x6F760F41 EQ PUSH2 0xC4 JUMPI DUP1 PUSH4 0x8BAB8DD5 EQ PUSH2 0xE0 JUMPI JUMPDEST PUSH0 DUP1 REVERT JUMPDEST PUSH2 0x61 PUSH2 0x110 JUMP JUMPDEST PUSH1 0x40 MLOAD PUSH2 0x6E SWAP2 SWAP1 PUSH2 0x2E5 JUMP JUMPDEST PUSH1 0x40 MLOAD DUP1 SWAP2 SUB SWAP1 RETURN JUMPDEST PUSH2 0x91 PUSH1 0x4 DUP1 CALLDATASIZE SUB DUP2 ADD SWAP1 PUSH2 0x8C SWAP2 SWAP1 PUSH2 0x339 JUMP JUMPDEST PUSH2 0x118 JUMP JUMPDEST PUSH1 0x40 MLOAD PUSH2 0x9F SWAP3 SWAP2 SWAP1 PUSH2 0x3D4 JUMP JUMPDEST PUSH1 0x40 MLOAD DUP1 SWAP2 SUB SWAP1 RETURN JUMPDEST PUSH2 0xC2 PUSH1 0x4 DUP1 CALLDATASIZE SUB DUP2 ADD SWAP1 PUSH2 0xBD SWAP2 SWAP1 PUSH2 0x339 JUMP JUMPDEST PUSH2 0x1CD JUMP JUMPDEST STOP JUMPDEST PUSH2 0xDE PUSH1 0x4 DUP1 CALLDATASIZE SUB DUP2 ADD SWAP1 PUSH2 0xD9 SWAP2 SWAP1 PUSH2 0x463 JUMP JUMPDEST PUSH2 0x1D6 JUMP JUMPDEST STOP JUMPDEST PUSH2 0xFA PUSH1 0x4 DUP1 CALLDATASIZE SUB DUP2 ADD SWAP1 PUSH2 0xF5 SWAP2 SWAP1 PUSH2 0x5E8 JUMP JUMPDEST PUSH2 0x2A0 JUMP JUMPDEST PUSH1 0x40 MLOAD PUSH2 0x107 SWAP2 SWAP1 PUSH2 0x2E5 JUMP JUMPDEST PUSH1 0x40 MLOAD DUP1 SWAP2 SUB SWAP1 RETURN JUMPDEST PUSH0 DUP1 SLOAD SWAP1 POP SWAP1 JUMP JUMPDEST PUSH1 0x1 DUP2 DUP2 SLOAD DUP2 LT PUSH2 0x127 JUMPI PUSH0 DUP1 REVERT JUMPDEST SWAP1 PUSH0 MSTORE PUSH1 0x20 PUSH0 KECCAK256 SWAP1 PUSH1 0x2 MUL ADD PUSH0 SWAP2 POP SWAP1 POP DUP1 PUSH0 ADD SLOAD SWAP1 DUP1 PUSH1 0x1 ADD DUP1 SLOAD PUSH2 0x14C SWAP1 PUSH2 0x65C JUMP JUMPDEST DUP1 PUSH1 0x1F ADD PUSH1 0x20 DUP1 SWAP2 DIV MUL PUSH1 0x20 ADD PUSH1 0x40 MLOAD SWAP1 DUP2 ADD PUSH1 0x40 MSTORE DUP1 SWAP3 SWAP2 SWAP1 DUP2 DUP2 MSTORE PUSH1 0x20 ADD DUP3 DUP1 SLOAD PUSH2 0x178 SWAP1 PUSH2 0x65C JUMP JUMPDEST DUP1 ISZERO PUSH2 0x1C3 JUMPI DUP1 PUSH1 0x1F LT PUSH2 0x19A JUMPI PUSH2 0x100 DUP1 DUP4 SLOAD DIV MUL DUP4 MSTORE SWAP2 PUSH1 0x20 ADD SWAP2 PUSH2 0x1C3 JUMP JUMPDEST DUP3 ADD SWAP2 SWAP1 PUSH0 MSTORE PUSH1 0x20 PUSH0 KECCAK256 SWAP1 JUMPDEST DUP2 SLOAD DUP2 MSTORE SWAP1 PUSH1 0x1 ADD SWAP1 PUSH1 0x20 ADD DUP1 DUP4 GT PUSH2 0x1A6 JUMPI DUP3 SWAP1 SUB PUSH1 0x1F AND DUP3 ADD SWAP2 JUMPDEST POP POP POP POP POP SWAP1 POP DUP3 JUMP JUMPDEST DUP1 PUSH0 DUP2 SWAP1 SSTORE POP POP JUMP JUMPDEST PUSH1 0x1 PUSH1 0x40 MLOAD DUP1 PUSH1 0x40 ADD PUSH1 0x40 MSTORE DUP1 DUP4 DUP2 MSTORE PUSH1 0x20 ADD DUP6 DUP6 DUP1 DUP1 PUSH1 0x1F ADD PUSH1 0x20 DUP1 SWAP2 DIV MUL PUSH1 0x20 ADD PUSH1 0x40 MLOAD SWAP1 DUP2 ADD PUSH1 0x40 MSTORE DUP1 SWAP4 SWAP3 SWAP2 SWAP1 DUP2 DUP2 MSTORE PUSH1 0x20 ADD DUP4 DUP4 DUP1 DUP3 DUP5 CALLDATACOPY PUSH0 DUP2 DUP5 ADD MSTORE PUSH1 0x1F NOT PUSH1 0x1F DUP3 ADD AND SWAP1 POP DUP1 DUP4 ADD SWAP3 POP POP POP POP POP POP POP DUP2 MSTORE POP SWAP1 DUP1 PUSH1 0x1 DUP2 SLOAD ADD DUP1 DUP3 SSTORE DUP1 SWAP2 POP POP PUSH1 0x1 SWAP1 SUB SWAP1 PUSH0 MSTORE PUSH1 0x20 PUSH0 KECCAK256 SWAP1 PUSH1 0x2 MUL ADD PUSH0 SWAP1 SWAP2 SWAP1 SWAP2 SWAP1 SWAP2 POP PUSH0 DUP3 ADD MLOAD DUP2 PUSH0 ADD SSTORE PUSH1 0x20 DUP3 ADD MLOAD DUP2 PUSH1 0x1 ADD SWAP1 DUP2 PUSH2 0x273 SWAP2 SWAP1 PUSH2 0x829 JUMP JUMPDEST POP POP POP DUP1 PUSH1 0x2 DUP5 DUP5 PUSH1 0x40 MLOAD PUSH2 0x289 SWAP3 SWAP2 SWAP1 PUSH2 0x926 JUMP JUMPDEST SWAP1 DUP2 MSTORE PUSH1 0x20 ADD PUSH1 0x40 MLOAD DUP1 SWAP2 SUB SWAP1 KECCAK256 DUP2 SWAP1 SSTORE POP POP POP POP JUMP JUMPDEST PUSH1 0x2 DUP2 DUP1 MLOAD PUSH1 0x20 DUP2 ADD DUP3 ADD DUP1 MLOAD DUP5 DUP3 MSTORE PUSH1 0x20 DUP4 ADD PUSH1 0x20 DUP6 ADD KECCAK256 DUP2 DUP4 MSTORE DUP1 SWAP6 POP POP POP POP POP POP PUSH0 SWAP2 POP SWAP1 POP SLOAD DUP2 JUMP JUMPDEST PUSH0 DUP2 SWAP1 POP SWAP2 SWAP1 POP JUMP JUMPDEST PUSH2 0x2DF DUP2 PUSH2 0x2CD JUMP JUMPDEST DUP3 MSTORE POP POP JUMP JUMPDEST PUSH0 PUSH1 0x20 DUP3 ADD SWAP1 POP PUSH2 0x2F8 PUSH0 DUP4 ADD DUP5 PUSH2 0x2D6 JUMP JUMPDEST SWAP3 SWAP2 POP POP JUMP JUMPDEST PUSH0 PUSH1 0x40 MLOAD SWAP1 POP SWAP1 JUMP JUMPDEST PUSH0 DUP1 REVERT JUMPDEST PUSH0 DUP1 REVERT JUMPDEST PUSH2 0x318 DUP2 PUSH2 0x2CD JUMP JUMPDEST DUP2 EQ PUSH2 0x322 JUMPI PUSH0 DUP1 REVERT JUMPDEST POP JUMP JUMPDEST PUSH0 DUP2 CALLDATALOAD SWAP1 POP PUSH2 0x333 DUP2 PUSH2 0x30F JUMP JUMPDEST SWAP3 SWAP2 POP POP JUMP JUMPDEST PUSH0 PUSH1 0x20 DUP3 DUP5 SUB SLT ISZERO PUSH2 0x34E JUMPI PUSH2 0x34D PUSH2 0x307 JUMP JUMPDEST JUMPDEST PUSH0 PUSH2 0x35B DUP5 DUP3 DUP6 ADD PUSH2 0x325 JUMP JUMPDEST SWAP2 POP POP SWAP3 SWAP2 POP POP JUMP JUMPDEST PUSH0 DUP2 MLOAD SWAP1 POP SWAP2 SWAP1 POP JUMP JUMPDEST PUSH0 DUP3 DUP3 MSTORE PUSH1 0x20 DUP3 ADD SWAP1 POP SWAP3 SWAP2 POP POP JUMP JUMPDEST DUP3 DUP2 DUP4 MCOPY PUSH0 DUP4 DUP4 ADD MSTORE POP POP POP JUMP JUMPDEST PUSH0 PUSH1 0x1F NOT PUSH1 0x1F DUP4 ADD AND SWAP1 POP SWAP2 SWAP1 POP JUMP JUMPDEST PUSH0 PUSH2 0x3A6 DUP3 PUSH2 0x364 JUMP JUMPDEST PUSH2 0x3B0 DUP2 DUP6 PUSH2 0x36E JUMP JUMPDEST SWAP4 POP PUSH2 0x3C0 DUP2 DUP6 PUSH1 0x20 DUP7 ADD PUSH2 0x37E JUMP JUMPDEST PUSH2 0x3C9 DUP2 PUSH2 0x38C JUMP JUMPDEST DUP5 ADD SWAP2 POP POP SWAP3 SWAP2 POP POP JUMP JUMPDEST PUSH0 PUSH1 0x40 DUP3 ADD SWAP1 POP PUSH2 0x3E7 PUSH0 DUP4 ADD DUP6 PUSH2 0x2D6 JUMP JUMPDEST DUP2 DUP2 SUB PUSH1 0x20 DUP4 ADD MSTORE PUSH2 0x3F9 DUP2 DUP5 PUSH2 0x39C JUMP JUMPDEST SWAP1 POP SWAP4 SWAP3 POP POP POP JUMP JUMPDEST PUSH0 DUP1 REVERT JUMPDEST PUSH0 DUP1 REVERT JUMPDEST PUSH0 DUP1 REVERT JUMPDEST PUSH0 DUP1 DUP4 PUSH1 0x1F DUP5 ADD SLT PUSH2 0x423 JUMPI PUSH2 0x422 PUSH2 0x402 JUMP JUMPDEST JUMPDEST DUP3 CALLDATALOAD SWAP1 POP PUSH8 0xFFFFFFFFFFFFFFFF DUP2 GT ISZERO PUSH2 0x440 JUMPI PUSH2 0x43F PUSH2 0x406 JUMP JUMPDEST JUMPDEST PUSH1 0x20 DUP4 ADD SWAP2 POP DUP4 PUSH1 0x1 DUP3 MUL DUP4 ADD GT ISZERO PUSH2 0x45C JUMPI PUSH2 0x45B PUSH2 0x40A JUMP JUMPDEST JUMPDEST SWAP3 POP SWAP3 SWAP1 POP JUMP JUMPDEST PUSH0 DUP1 PUSH0 PUSH1 0x40 DUP5 DUP7 SUB SLT ISZERO PUSH2 0x47A JUMPI PUSH2 0x479 PUSH2 0x307 JUMP JUMPDEST JUMPDEST PUSH0 DUP5 ADD CALLDATALOAD PUSH8 0xFFFFFFFFFFFFFFFF DUP2 GT ISZERO PUSH2 0x497 JUMPI PUSH2 0x496 PUSH2 0x30B JUMP JUMPDEST JUMPDEST PUSH2 0x4A3 DUP7 DUP3 DUP8 ADD PUSH2 0x40E JUMP JUMPDEST SWAP4 POP SWAP4 POP POP PUSH1 0x20 PUSH2 0x4B6 DUP7 DUP3 DUP8 ADD PUSH2 0x325 JUMP JUMPDEST SWAP2 POP POP SWAP3 POP SWAP3 POP SWAP3 JUMP JUMPDEST PUSH0 DUP1 REVERT JUMPDEST PUSH32 0x4E487B7100000000000000000000000000000000000000000000000000000000 PUSH0 MSTORE PUSH1 0x41 PUSH1 0x4 MSTORE PUSH1 0x24 PUSH0 REVERT JUMPDEST PUSH2 0x4FA DUP3 PUSH2 0x38C JUMP JUMPDEST DUP2 ADD DUP2 DUP2 LT PUSH8 0xFFFFFFFFFFFFFFFF DUP3 GT OR ISZERO PUSH2 0x519 JUMPI PUSH2 0x518 PUSH2 0x4C4 JUMP JUMPDEST JUMPDEST DUP1 PUSH1 0x40 MSTORE POP POP POP JUMP JUMPDEST PUSH0 PUSH2 0x52B PUSH2 0x2FE JUMP JUMPDEST SWAP1 POP PUSH2 0x537 DUP3 DUP3 PUSH2 0x4F1 JUMP JUMPDEST SWAP2 SWAP1 POP JUMP JUMPDEST PUSH0 PUSH8 0xFFFFFFFFFFFFFFFF DUP3 GT ISZERO PUSH2 0x556 JUMPI PUSH2 0x555 PUSH2 0x4C4 JUMP JUMPDEST JUMPDEST PUSH2 0x55F DUP3 PUSH2 0x38C JUMP JUMPDEST SWAP1 POP PUSH1 0x20 DUP2 ADD SWAP1 POP SWAP2 SWAP1 POP JUMP JUMPDEST DUP3 DUP2 DUP4 CALLDATACOPY PUSH0 DUP4 DUP4 ADD MSTORE POP POP POP JUMP JUMPDEST PUSH0 PUSH2 0x58C PUSH2 0x587 DUP5 PUSH2 0x53C JUMP JUMPDEST PUSH2 0x522 JUMP JUMPDEST SWAP1 POP DUP3 DUP2 MSTORE PUSH1 0x20 DUP2 ADD DUP5 DUP5 DUP5 ADD GT ISZERO PUSH2 0x5A8 JUMPI PUSH2 0x5A7 PUSH2 0x4C0 JUMP JUMPDEST JUMPDEST PUSH2 0x5B3 DUP5 DUP3 DUP6 PUSH2 0x56C JUMP JUMPDEST POP SWAP4 SWAP3 POP POP POP JUMP JUMPDEST PUSH0 DUP3 PUSH1 0x1F DUP4 ADD SLT PUSH2 0x5CF JUMPI PUSH2 0x5CE PUSH2 0x402 JUMP JUMPDEST JUMPDEST DUP2 CALLDATALOAD PUSH2 0x5DF DUP5 DUP3 PUSH1 0x20 DUP7 ADD PUSH2 0x57A JUMP JUMPDEST SWAP2 POP POP SWAP3 SWAP2 POP POP JUMP JUMPDEST PUSH0 PUSH1 0x20 DUP3 DUP5 SUB SLT ISZERO PUSH2 0x5FD JUMPI PUSH2 0x5FC PUSH2 0x307 JUMP JUMPDEST JUMPDEST PUSH0 DUP3 ADD CALLDATALOAD PUSH8 0xFFFFFFFFFFFFFFFF DUP2 GT ISZERO PUSH2 0x61A JUMPI PUSH2 0x619 PUSH2 0x30B JUMP JUMPDEST JUMPDEST PUSH2 0x626 DUP5 DUP3 DUP6 ADD PUSH2 0x5BB JUMP JUMPDEST SWAP2 POP POP SWAP3 SWAP2 POP POP JUMP JUMPDEST PUSH32 0x4E487B7100000000000000000000000000000000000000000000000000000000 PUSH0 MSTORE PUSH1 0x22 PUSH1 0x4 MSTORE PUSH1 0x24 PUSH0 REVERT JUMPDEST PUSH0 PUSH1 0x2 DUP3 DIV SWAP1 POP PUSH1 0x1 DUP3 AND DUP1 PUSH2 0x673 JUMPI PUSH1 0x7F DUP3 AND SWAP2 POP JUMPDEST PUSH1 0x20 DUP3 LT DUP2 SUB PUSH2 0x686 JUMPI PUSH2 0x685 PUSH2 0x62F JUMP JUMPDEST JUMPDEST POP SWAP2 SWAP1 POP JUMP JUMPDEST PUSH0 DUP2 SWAP1 POP DUP2 PUSH0 MSTORE PUSH1 0x20 PUSH0 KECCAK256 SWAP1 POP SWAP2 SWAP1 POP JUMP JUMPDEST PUSH0 PUSH1 0x20 PUSH1 0x1F DUP4 ADD DIV SWAP1 POP SWAP2 SWAP1 POP JUMP JUMPDEST PUSH0 DUP3 DUP3 SHL SWAP1 POP SWAP3 SWAP2 POP POP JUMP JUMPDEST PUSH0 PUSH1 0x8 DUP4 MUL PUSH2 0x6E8 PUSH32 0xFFFFFFFFFFFFFFFFFFFFFFFFFFFFFFFFFFFFFFFFFFFFFFFFFFFFFFFFFFFFFFFF DUP3 PUSH2 0x6AD JUMP JUMPDEST PUSH2 0x6F2 DUP7 DUP4 PUSH2 0x6AD JUMP JUMPDEST SWAP6 POP DUP1 NOT DUP5 AND SWAP4 POP DUP1 DUP7 AND DUP5 OR SWAP3 POP POP POP SWAP4 SWAP3 POP POP POP JUMP JUMPDEST PUSH0 DUP2 SWAP1 POP SWAP2 SWAP1 POP JUMP JUMPDEST PUSH0 PUSH2 0x72D PUSH2 0x728 PUSH2 0x723 DUP5 PUSH2 0x2CD JUMP JUMPDEST PUSH2 0x70A JUMP JUMPDEST PUSH2 0x2CD JUMP JUMPDEST SWAP1 POP SWAP2 SWAP1 POP JUMP JUMPDEST PUSH0 DUP2 SWAP1 POP SWAP2 SWAP1 POP JUMP JUMPDEST PUSH2 0x746 DUP4 PUSH2 0x713 JUMP JUMPDEST PUSH2 0x75A PUSH2 0x752 DUP3 PUSH2 0x734 JUMP JUMPDEST DUP5 DUP5 SLOAD PUSH2 0x6B9 JUMP JUMPDEST DUP3 SSTORE POP POP POP POP JUMP JUMPDEST PUSH0 SWAP1 JUMP JUMPDEST PUSH2 0x76E PUSH2 0x762 JUMP JUMPDEST PUSH2 0x779 DUP2 DUP5 DUP5 PUSH2 0x73D JUMP JUMPDEST POP POP POP JUMP JUMPDEST JUMPDEST DUP2 DUP2 LT ISZERO PUSH2 0x79C JUMPI PUSH2 0x791 PUSH0 DUP3 PUSH2 0x766 JUMP JUMPDEST PUSH1 0x1 DUP2 ADD SWAP1 POP PUSH2 0x77F JUMP JUMPDEST POP POP JUMP JUMPDEST PUSH1 0x1F DUP3 GT ISZERO PUSH2 0x7E1 JUMPI PUSH2 0x7B2 DUP2 PUSH2 0x68C JUMP JUMPDEST PUSH2 0x7BB DUP5 PUSH2 0x69E JUMP JUMPDEST DUP2 ADD PUSH1 0x20 DUP6 LT ISZERO PUSH2 0x7CA JUMPI DUP2 SWAP1 POP JUMPDEST PUSH2 0x7DE PUSH2 0x7D6 DUP6 PUSH2 0x69E JUMP JUMPDEST DUP4 ADD DUP3 PUSH2 0x77E JUMP JUMPDEST POP POP JUMPDEST POP POP POP JUMP JUMPDEST PUSH0 DUP3 DUP3 SHR SWAP1 POP SWAP3 SWAP2 POP POP JUMP JUMPDEST PUSH0 PUSH2 0x801 PUSH0 NOT DUP5 PUSH1 0x8 MUL PUSH2 0x7E6 JUMP JUMPDEST NOT DUP1 DUP4 AND SWAP2 POP POP SWAP3 SWAP2 POP POP JUMP JUMPDEST PUSH0 PUSH2 0x819 DUP4 DUP4 PUSH2 0x7F2 JUMP JUMPDEST SWAP2 POP DUP3 PUSH1 0x2 MUL DUP3 OR SWAP1 POP SWAP3 SWAP2 POP POP JUMP JUMPDEST PUSH2 0x832 DUP3 PUSH2 0x364 JUMP JUMPDEST PUSH8 0xFFFFFFFFFFFFFFFF DUP2 GT ISZERO PUSH2 0x84B JUMPI PUSH2 0x84A PUSH2 0x4C4 JUMP JUMPDEST JUMPDEST PUSH2 0x855 DUP3 SLOAD PUSH2 0x65C JUMP JUMPDEST PUSH2 0x860 DUP3 DUP3 DUP6 PUSH2 0x7A0 JUMP JUMPDEST PUSH0 PUSH1 0x20 SWAP1 POP PUSH1 0x1F DUP4 GT PUSH1 0x1 DUP2 EQ PUSH2 0x891 JUMPI PUSH0 DUP5 ISZERO PUSH2 0x87F JUMPI DUP3 DUP8 ADD MLOAD SWAP1 POP JUMPDEST PUSH2 0x889 DUP6 DUP3 PUSH2 0x80E JUMP JUMPDEST DUP7 SSTORE POP PUSH2 0x8F0 JUMP JUMPDEST PUSH1 0x1F NOT DUP5 AND PUSH2 0x89F DUP7 PUSH2 0x68C JUMP JUMPDEST PUSH0 JUMPDEST DUP3 DUP2 LT ISZERO PUSH2 0x8C6 JUMPI DUP5 DUP10 ADD MLOAD DUP3 SSTORE PUSH1 0x1 DUP3 ADD SWAP2 POP PUSH1 0x20 DUP6 ADD SWAP5 POP PUSH1 0x20 DUP2 ADD SWAP1 POP PUSH2 0x8A1 JUMP JUMPDEST DUP7 DUP4 LT ISZERO PUSH2 0x8E3 JUMPI DUP5 DUP10 ADD MLOAD PUSH2 0x8DF PUSH1 0x1F DUP10 AND DUP3 PUSH2 0x7F2 JUMP JUMPDEST DUP4 SSTORE POP JUMPDEST PUSH1 0x1 PUSH1 0x2 DUP9 MUL ADD DUP9 SSTORE POP POP POP JUMPDEST POP POP POP POP POP POP JUMP JUMPDEST PUSH0 DUP2 SWAP1 POP SWAP3 SWAP2 POP POP JUMP JUMPDEST PUSH0 PUSH2 0x90D DUP4 DUP6 PUSH2 0x8F8 JUMP JUMPDEST SWAP4 POP PUSH2 0x91A DUP4 DUP6 DUP5 PUSH2 0x56C JUMP JUMPDEST DUP3 DUP5 ADD SWAP1 POP SWAP4 SWAP3 POP POP POP JUMP JUMPDEST PUSH0 PUSH2 0x932 DUP3 DUP5 DUP7 PUSH2 0x902 JUMP JUMPDEST SWAP2 POP DUP2 SWAP1 POP SWAP4 SWAP3 POP POP POP JUMP INVALID LOG2 PUSH5 0x6970667358 0x22 SLT KECCAK256 0xAE 0xC 0xD6 0xE2 0xA5 PUSH2 0xE783 0xB6 DUP3 JUMPDEST ADDMOD 0xED 0xC0 JUMPI SUB PUSH16 0xAB2B6FC26A912DE4C88FE7E764AFDB64 PUSH20 0x6F6C634300081A0033A2646970667358221220A5 0xBE 0xAF 0xCE SWAP11 MOD 0xBD 0x24 MOD NOT JUMPI POP SWAP12 CODECOPY 0xF6 0xD6 EXP 0xAE DUP1 EXTCODECOPY DUP8 NOT CHAINID 0xC2 0xC6 SWAP3 PUSH16 0x5CDC26BA664736F6C634300081A0033 "
				},
				"gasEstimates": {
					"creation": {
						"codeDepositCost": "745600",
						"executionCost": "777",
						"totalCost": "746377"
					},
					"external": {
						"createSimpleStorageContract()": "infinite",
						"listOfsimpleStorageContracts(uint256)": "infinite",
						"sfGet(uint256)": "infinite",
						"sfStore(uint256,uint256)": "infinite"
					}
				},
				"methodIdentifiers": {
					"createSimpleStorageContract()": "1dda6541",
					"listOfsimpleStorageContracts(uint256)": "43fe9b7b",
					"sfGet(uint256)": "c5f19c20",
					"sfStore(uint256,uint256)": "1563700f"
				}
			},
			"storageLayout": {
				"storage": [
					{
						"astId": 66,
						"contract": "StorageFactory.sol:StorageFactory",
						"label": "listOfsimpleStorageContracts",
						"offset": 0,
						"slot": "0",
						"type": "t_array(t_contract(SimpleStorage)58)dyn_storage"
					}
				],
				"types": {
					"t_array(t_contract(SimpleStorage)58)dyn_storage": {
						"base": "t_contract(SimpleStorage)58",
						"encoding": "dynamic_array",
						"label": "contract SimpleStorage[]",
						"numberOfBytes": "32"
					},
					"t_contract(SimpleStorage)58": {
						"encoding": "inplace",
						"label": "contract SimpleStorage",
						"numberOfBytes": "20"
					}
				}
			},
			"userdoc": {
				"kind": "user",
				"methods": {},
				"version": 1
			}
		}
	}
}