{
	"AddFiveStorage.sol": {
		"AddFiveStorage": {
			"abi": [
				{
					"inputs": [
						{
							"internalType": "string",
							"name": "_name",
							"type": "string"
						},
						{
							"internalType": "uint256",
							"name": "_favoriteNumber",
							"type": "uint256"
						}
					],
					"name": "addPerson",
					"outputs": [],
					"stateMutability": "nonpayable",
					"type": "function"
				},
				{
					"inputs": [
						{
							"internalType": "uint256",
							"name": "",
							"type": "uint256"
						}
					],
					"name": "listOfPeople",
					"outputs": [
						{
							"internalType": "uint256",
							"name": "favoriteNumber",
							"type": "uint256"
						},
						{
							"internalType": "string",
							"name": "name",
							"type": "string"
						}
					],
					"stateMutability": "view",
					"type": "function"
				},
				{
					"inputs": [
						{
							"internalType": "string",
							"name": "",
							"type": "string"
						}
					],
					"name": "nameToFavoriteNumber",
					"outputs": [
						{
							"internalType": "uint256",
							"name": "",
							"type": "uint256"
						}
					],
					"stateMutability": "view",
					"type": "function"
				},
				{
					"inputs": [],
					"name": "retrieve",
					"outputs": [
						{
							"internalType": "uint256",
							"name": "",
							"type": "uint256"
						}
					],
					"stateMutability": "view",
					"type": "function"
				},
				{
					"inputs": [
						{
							"internalType": "uint256",
							"name": "_newNumber",
							"type": "uint256"
						}
					],
					"name": "store",
					"outputs": [],
					"stateMutability": "nonpayable",
					"type": "function"
				}
			],
			"devdoc": {
				"kind": "dev",
				"methods": {},
				"version": 1
			},
			"evm": {
				"assembly": "    /* \"AddFiveStorage.sol\":117:270  contract AddFiveStorage is SimpleStorage{... */\n  mstore(0x40, 0x80)\n  callvalue\n  dup1\n  iszero\n  tag_1\n  jumpi\n  0x00\n  dup1\n  revert\ntag_1:\n  pop\n  dataSize(sub_0)\n  dup1\n  dataOffset(sub_0)\n  0x00\n  codecopy\n  0x00\n  return\nstop\n\nsub_0: assembly {\n        /* \"AddFiveStorage.sol\":117:270  contract AddFiveStorage is SimpleStorage{... */\n      mstore(0x40, 0x80)\n      callvalue\n      dup1\n      iszero\n      tag_1\n      jumpi\n      0x00\n      dup1\n      revert\n    tag_1:\n      pop\n      jumpi(tag_2, lt(calldatasize, 0x04))\n      shr(0xe0, calldataload(0x00))\n      dup1\n      0x2e64cec1\n      eq\n      tag_3\n      jumpi\n      dup1\n      0x2ebce631\n      eq\n      tag_4\n      jumpi\n      dup1\n      0x6057361d\n      eq\n      tag_5\n      jumpi\n      dup1\n      0x6f760f41\n      eq\n      tag_6\n      jumpi\n      dup1\n      0x8bab8dd5\n      eq\n      tag_7\n      jumpi\n    tag_2:\n      0x00\n      dup1\n      revert\n        /* \"SimpleStorage.sol\":472:563  function retrieve() public view returns(uint256){... */\n    tag_3:\n      tag_8\n      tag_9\n      jump\t// in\n    tag_8:\n      mload(0x40)\n      tag_10\n      swap2\n      swap1\n      tag_11\n      jump\t// in\n    tag_10:\n      mload(0x40)\n      dup1\n      swap2\n      sub\n      swap1\n      return\n        /* \"SimpleStorage.sol\":235:263  Person[] public listOfPeople */\n    tag_4:\n      tag_12\n      0x04\n      dup1\n      calldatasize\n      sub\n      dup2\n      add\n      swap1\n      tag_13\n      swap2\n      swap1\n      tag_14\n      jump\t// in\n    tag_13:\n      tag_15\n      jump\t// in\n    tag_12:\n      mload(0x40)\n      tag_16\n      swap3\n      swap2\n      swap1\n      tag_17\n      jump\t// in\n    tag_16:\n      mload(0x40)\n      dup1\n      swap2\n      sub\n      swap1\n      return\n        /* \"AddFiveStorage.sol\":164:267  function store(uint256 _newNumber) override public {... */\n    tag_5:\n      tag_18\n      0x04\n      dup1\n      calldatasize\n      sub\n      dup2\n      add\n      swap1\n      tag_19\n      swap2\n      swap1\n      tag_14\n      jump\t// in\n    tag_19:\n      tag_20\n      jump\t// in\n    tag_18:\n      stop\n        /* \"SimpleStorage.sol\":603:801  function addPerson(string calldata _name, uint256 _favoriteNumber) public {... */\n    tag_6:\n      tag_21\n      0x04\n      dup1\n      calldatasize\n      sub\n      dup2\n      add\n      swap1\n      tag_22\n      swap2\n      swap1\n      tag_23\n      jump\t// in\n    tag_22:\n      tag_24\n      jump\t// in\n    tag_21:\n      stop\n        /* \"SimpleStorage.sol\":272:326  mapping(string => uint256) public nameToFavoriteNumber */\n    tag_7:\n      tag_25\n      0x04\n      dup1\n      calldatasize\n      sub\n      dup2\n      add\n      swap1\n      tag_26\n      swap2\n      swap1\n      tag_27\n      jump\t// in\n    tag_26:\n      tag_28\n      jump\t// in\n    tag_25:\n      mload(0x40)\n      tag_29\n      swap2\n      swap1\n      tag_11\n      jump\t// in\n    tag_29:\n      mload(0x40)\n      dup1\n      swap2\n      sub\n      swap1\n      return\n        /* \"SimpleStorage.sol\":472:563  function retrieve() public view returns(uint256){... */\n    tag_9:\n        /* \"SimpleStorage.sol\":512:519  uint256 */\n      0x00\n        /* \"SimpleStorage.sol\":538:554  myFavoriteNumber */\n      dup1\n      sload\n        /* \"SimpleStorage.sol\":531:554  return myFavoriteNumber */\n      swap1\n      pop\n        /* \"SimpleStorage.sol\":472:563  function retrieve() public view returns(uint256){... */\n      swap1\n      jump\t// out\n        /* \"SimpleStorage.sol\":235:263  Person[] public listOfPeople */\n    tag_15:\n      0x01\n      dup2\n      dup2\n      sload\n      dup2\n      lt\n      tag_31\n      jumpi\n      0x00\n      dup1\n      revert\n    tag_31:\n      swap1\n      0x00\n      mstore\n      keccak256(0x00, 0x20)\n      swap1\n      0x02\n      mul\n      add\n      0x00\n      swap2\n      pop\n      swap1\n      pop\n      dup1\n      0x00\n      add\n      sload\n      swap1\n      dup1\n      0x01\n      add\n      dup1\n      sload\n      tag_33\n      swap1\n      tag_34\n      jump\t// in\n    tag_33:\n      dup1\n      0x1f\n      add\n      0x20\n      dup1\n      swap2\n      div\n      mul\n      0x20\n      add\n      mload(0x40)\n      swap1\n      dup2\n      add\n      0x40\n      mstore\n      dup1\n      swap3\n      swap2\n      swap1\n      dup2\n      dup2\n      mstore\n      0x20\n      add\n      dup3\n      dup1\n      sload\n      tag_35\n      swap1\n      tag_34\n      jump\t// in\n    tag_35:\n      dup1\n      iszero\n      tag_36\n      jumpi\n      dup1\n      0x1f\n      lt\n      tag_37\n      jumpi\n      0x0100\n      dup1\n      dup4\n      sload\n      div\n      mul\n      dup4\n      mstore\n      swap2\n      0x20\n      add\n      swap2\n      jump(tag_36)\n    tag_37:\n      dup3\n      add\n      swap2\n      swap1\n      0x00\n      mstore\n      keccak256(0x00, 0x20)\n      swap1\n    tag_38:\n      dup2\n      sload\n      dup2\n      mstore\n      swap1\n      0x01\n      add\n      swap1\n      0x20\n      add\n      dup1\n      dup4\n      gt\n      tag_38\n      jumpi\n      dup3\n      swap1\n      sub\n      0x1f\n      and\n      dup3\n      add\n      swap2\n    tag_36:\n      pop\n      pop\n      pop\n      pop\n      pop\n      swap1\n      pop\n      dup3\n      jump\t// out\n        /* \"AddFiveStorage.sol\":164:267  function store(uint256 _newNumber) override public {... */\n    tag_20:\n        /* \"AddFiveStorage.sol\":258:259  5 */\n      0x05\n        /* \"AddFiveStorage.sol\":245:255  _newNumber */\n      dup2\n        /* \"AddFiveStorage.sol\":245:259  _newNumber + 5 */\n      tag_40\n      swap2\n      swap1\n      tag_41\n      jump\t// in\n    tag_40:\n        /* \"AddFiveStorage.sol\":226:242  myFavoriteNumber */\n      0x00\n        /* \"AddFiveStorage.sol\":226:259  myFavoriteNumber = _newNumber + 5 */\n      dup2\n      swap1\n      sstore\n      pop\n        /* \"AddFiveStorage.sol\":164:267  function store(uint256 _newNumber) override public {... */\n      pop\n      jump\t// out\n        /* \"SimpleStorage.sol\":603:801  function addPerson(string calldata _name, uint256 _favoriteNumber) public {... */\n    tag_24:\n        /* \"SimpleStorage.sol\":688:700  listOfPeople */\n      0x01\n        /* \"SimpleStorage.sol\":706:736  Person(_favoriteNumber, _name) */\n      mload(0x40)\n      dup1\n      0x40\n      add\n      0x40\n      mstore\n      dup1\n        /* \"SimpleStorage.sol\":713:728  _favoriteNumber */\n      dup4\n        /* \"SimpleStorage.sol\":706:736  Person(_favoriteNumber, _name) */\n      dup2\n      mstore\n      0x20\n      add\n        /* \"SimpleStorage.sol\":730:735  _name */\n      dup6\n      dup6\n        /* \"SimpleStorage.sol\":706:736  Person(_favoriteNumber, _name) */\n      dup1\n      dup1\n      0x1f\n      add\n      0x20\n      dup1\n      swap2\n      div\n      mul\n      0x20\n      add\n      mload(0x40)\n      swap1\n      dup2\n      add\n      0x40\n      mstore\n      dup1\n      swap4\n      swap3\n      swap2\n      swap1\n      dup2\n      dup2\n      mstore\n      0x20\n      add\n      dup4\n      dup4\n      dup1\n      dup3\n      dup5\n      calldatacopy\n      0x00\n      dup2\n      dup5\n      add\n      mstore\n      not(0x1f)\n      0x1f\n      dup3\n      add\n      and\n      swap1\n      pop\n      dup1\n      dup4\n      add\n      swap3\n      pop\n      pop\n      pop\n      pop\n      pop\n      pop\n      pop\n      dup2\n      mstore\n      pop\n        /* \"SimpleStorage.sol\":688:737  listOfPeople.push(Person(_favoriteNumber, _name)) */\n      swap1\n      dup1\n      0x01\n      dup2\n      sload\n      add\n      dup1\n      dup3\n      sstore\n      dup1\n      swap2\n      pop\n      pop\n      0x01\n      swap1\n      sub\n      swap1\n      0x00\n      mstore\n      keccak256(0x00, 0x20)\n      swap1\n      0x02\n      mul\n      add\n      0x00\n      swap1\n      swap2\n      swap1\n      swap2\n      swap1\n      swap2\n      pop\n      0x00\n      dup3\n      add\n      mload\n      dup2\n      0x00\n      add\n      sstore\n      0x20\n      dup3\n      add\n      mload\n      dup2\n      0x01\n      add\n      swap1\n      dup2\n      tag_44\n      swap2\n      swap1\n      tag_45\n      jump\t// in\n    tag_44:\n      pop\n      pop\n      pop\n        /* \"SimpleStorage.sol\":778:793  _favoriteNumber */\n      dup1\n        /* \"SimpleStorage.sol\":748:768  nameToFavoriteNumber */\n      0x02\n        /* \"SimpleStorage.sol\":769:774  _name */\n      dup5\n      dup5\n        /* \"SimpleStorage.sol\":748:775  nameToFavoriteNumber[_name] */\n      mload(0x40)\n      tag_46\n      swap3\n      swap2\n      swap1\n      tag_47\n      jump\t// in\n    tag_46:\n      swap1\n      dup2\n      mstore\n      0x20\n      add\n      mload(0x40)\n      dup1\n      swap2\n      sub\n      swap1\n      keccak256\n        /* \"SimpleStorage.sol\":748:793  nameToFavoriteNumber[_name] = _favoriteNumber */\n      dup2\n      swap1\n      sstore\n      pop\n        /* \"SimpleStorage.sol\":603:801  function addPerson(string calldata _name, uint256 _favoriteNumber) public {... */\n      pop\n      pop\n      pop\n      jump\t// out\n        /* \"SimpleStorage.sol\":272:326  mapping(string => uint256) public nameToFavoriteNumber */\n    tag_28:\n      0x02\n      dup2\n      dup1\n      mload\n      0x20\n      dup2\n      add\n      dup3\n      add\n      dup1\n      mload\n      dup5\n      dup3\n      mstore\n      0x20\n      dup4\n      add\n      0x20\n      dup6\n      add\n      keccak256\n      dup2\n      dup4\n      mstore\n      dup1\n      swap6\n      pop\n      pop\n      pop\n      pop\n      pop\n      pop\n      0x00\n      swap2\n      pop\n      swap1\n      pop\n      sload\n      dup2\n      jump\t// out\n        /* \"#utility.yul\":7:84   */\n    tag_48:\n        /* \"#utility.yul\":44:51   */\n      0x00\n        /* \"#utility.yul\":73:78   */\n      dup2\n        /* \"#utility.yul\":62:78   */\n      swap1\n      pop\n        /* \"#utility.yul\":7:84   */\n      swap2\n      swap1\n      pop\n      jump\t// out\n        /* \"#utility.yul\":90:208   */\n    tag_49:\n        /* \"#utility.yul\":177:201   */\n      tag_94\n        /* \"#utility.yul\":195:200   */\n      dup2\n        /* \"#utility.yul\":177:201   */\n      tag_48\n      jump\t// in\n    tag_94:\n        /* \"#utility.yul\":172:175   */\n      dup3\n        /* \"#utility.yul\":165:202   */\n      mstore\n        /* \"#utility.yul\":90:208   */\n      pop\n      pop\n      jump\t// out\n        /* \"#utility.yul\":214:436   */\n    tag_11:\n        /* \"#utility.yul\":307:311   */\n      0x00\n        /* \"#utility.yul\":345:347   */\n      0x20\n        /* \"#utility.yul\":334:343   */\n      dup3\n        /* \"#utility.yul\":330:348   */\n      add\n        /* \"#utility.yul\":322:348   */\n      swap1\n      pop\n        /* \"#utility.yul\":358:429   */\n      tag_96\n        /* \"#utility.yul\":426:427   */\n      0x00\n        /* \"#utility.yul\":415:424   */\n      dup4\n        /* \"#utility.yul\":411:428   */\n      add\n        /* \"#utility.yul\":402:408   */\n      dup5\n        /* \"#utility.yul\":358:429   */\n      tag_49\n      jump\t// in\n    tag_96:\n        /* \"#utility.yul\":214:436   */\n      swap3\n      swap2\n      pop\n      pop\n      jump\t// out\n        /* \"#utility.yul\":442:517   */\n    tag_50:\n        /* \"#utility.yul\":475:481   */\n      0x00\n        /* \"#utility.yul\":508:510   */\n      0x40\n        /* \"#utility.yul\":502:511   */\n      mload\n        /* \"#utility.yul\":492:511   */\n      swap1\n      pop\n        /* \"#utility.yul\":442:517   */\n      swap1\n      jump\t// out\n        /* \"#utility.yul\":523:640   */\n    tag_51:\n        /* \"#utility.yul\":632:633   */\n      0x00\n        /* \"#utility.yul\":629:630   */\n      dup1\n        /* \"#utility.yul\":622:634   */\n      revert\n        /* \"#utility.yul\":646:763   */\n    tag_52:\n        /* \"#utility.yul\":755:756   */\n      0x00\n        /* \"#utility.yul\":752:753   */\n      dup1\n        /* \"#utility.yul\":745:757   */\n      revert\n        /* \"#utility.yul\":769:891   */\n    tag_53:\n        /* \"#utility.yul\":842:866   */\n      tag_101\n        /* \"#utility.yul\":860:865   */\n      dup2\n        /* \"#utility.yul\":842:866   */\n      tag_48\n      jump\t// in\n    tag_101:\n        /* \"#utility.yul\":835:840   */\n      dup2\n        /* \"#utility.yul\":832:867   */\n      eq\n        /* \"#utility.yul\":822:885   */\n      tag_102\n      jumpi\n        /* \"#utility.yul\":881:882   */\n      0x00\n        /* \"#utility.yul\":878:879   */\n      dup1\n        /* \"#utility.yul\":871:883   */\n      revert\n        /* \"#utility.yul\":822:885   */\n    tag_102:\n        /* \"#utility.yul\":769:891   */\n      pop\n      jump\t// out\n        /* \"#utility.yul\":897:1036   */\n    tag_54:\n        /* \"#utility.yul\":943:948   */\n      0x00\n        /* \"#utility.yul\":981:987   */\n      dup2\n        /* \"#utility.yul\":968:988   */\n      calldataload\n        /* \"#utility.yul\":959:988   */\n      swap1\n      pop\n        /* \"#utility.yul\":997:1030   */\n      tag_104\n        /* \"#utility.yul\":1024:1029   */\n      dup2\n        /* \"#utility.yul\":997:1030   */\n      tag_53\n      jump\t// in\n    tag_104:\n        /* \"#utility.yul\":897:1036   */\n      swap3\n      swap2\n      pop\n      pop\n      jump\t// out\n        /* \"#utility.yul\":1042:1371   */\n    tag_14:\n        /* \"#utility.yul\":1101:1107   */\n      0x00\n        /* \"#utility.yul\":1150:1152   */\n      0x20\n        /* \"#utility.yul\":1138:1147   */\n      dup3\n        /* \"#utility.yul\":1129:1136   */\n      dup5\n        /* \"#utility.yul\":1125:1148   */\n      sub\n        /* \"#utility.yul\":1121:1153   */\n      slt\n        /* \"#utility.yul\":1118:1237   */\n      iszero\n      tag_106\n      jumpi\n        /* \"#utility.yul\":1156:1235   */\n      tag_107\n      tag_51\n      jump\t// in\n    tag_107:\n        /* \"#utility.yul\":1118:1237   */\n    tag_106:\n        /* \"#utility.yul\":1276:1277   */\n      0x00\n        /* \"#utility.yul\":1301:1354   */\n      tag_108\n        /* \"#utility.yul\":1346:1353   */\n      dup5\n        /* \"#utility.yul\":1337:1343   */\n      dup3\n        /* \"#utility.yul\":1326:1335   */\n      dup6\n        /* \"#utility.yul\":1322:1344   */\n      add\n        /* \"#utility.yul\":1301:1354   */\n      tag_54\n      jump\t// in\n    tag_108:\n        /* \"#utility.yul\":1291:1354   */\n      swap2\n      pop\n        /* \"#utility.yul\":1247:1364   */\n      pop\n        /* \"#utility.yul\":1042:1371   */\n      swap3\n      swap2\n      pop\n      pop\n      jump\t// out\n        /* \"#utility.yul\":1377:1476   */\n    tag_55:\n        /* \"#utility.yul\":1429:1435   */\n      0x00\n        /* \"#utility.yul\":1463:1468   */\n      dup2\n        /* \"#utility.yul\":1457:1469   */\n      mload\n        /* \"#utility.yul\":1447:1469   */\n      swap1\n      pop\n        /* \"#utility.yul\":1377:1476   */\n      swap2\n      swap1\n      pop\n      jump\t// out\n        /* \"#utility.yul\":1482:1651   */\n    tag_56:\n        /* \"#utility.yul\":1566:1577   */\n      0x00\n        /* \"#utility.yul\":1600:1606   */\n      dup3\n        /* \"#utility.yul\":1595:1598   */\n      dup3\n        /* \"#utility.yul\":1588:1607   */\n      mstore\n        /* \"#utility.yul\":1640:1644   */\n      0x20\n        /* \"#utility.yul\":1635:1638   */\n      dup3\n        /* \"#utility.yul\":1631:1645   */\n      add\n        /* \"#utility.yul\":1616:1645   */\n      swap1\n      pop\n        /* \"#utility.yul\":1482:1651   */\n      swap3\n      swap2\n      pop\n      pop\n      jump\t// out\n        /* \"#utility.yul\":1657:1796   */\n    tag_57:\n        /* \"#utility.yul\":1746:1752   */\n      dup3\n        /* \"#utility.yul\":1741:1744   */\n      dup2\n        /* \"#utility.yul\":1736:1739   */\n      dup4\n        /* \"#utility.yul\":1730:1753   */\n      mcopy\n        /* \"#utility.yul\":1787:1788   */\n      0x00\n        /* \"#utility.yul\":1778:1784   */\n      dup4\n        /* \"#utility.yul\":1773:1776   */\n      dup4\n        /* \"#utility.yul\":1769:1785   */\n      add\n        /* \"#utility.yul\":1762:1789   */\n      mstore\n        /* \"#utility.yul\":1657:1796   */\n      pop\n      pop\n      pop\n      jump\t// out\n        /* \"#utility.yul\":1802:1904   */\n    tag_58:\n        /* \"#utility.yul\":1843:1849   */\n      0x00\n        /* \"#utility.yul\":1894:1896   */\n      0x1f\n        /* \"#utility.yul\":1890:1897   */\n      not\n        /* \"#utility.yul\":1885:1887   */\n      0x1f\n        /* \"#utility.yul\":1878:1883   */\n      dup4\n        /* \"#utility.yul\":1874:1888   */\n      add\n        /* \"#utility.yul\":1870:1898   */\n      and\n        /* \"#utility.yul\":1860:1898   */\n      swap1\n      pop\n        /* \"#utility.yul\":1802:1904   */\n      swap2\n      swap1\n      pop\n      jump\t// out\n        /* \"#utility.yul\":1910:2287   */\n    tag_59:\n        /* \"#utility.yul\":1998:2001   */\n      0x00\n        /* \"#utility.yul\":2026:2065   */\n      tag_114\n        /* \"#utility.yul\":2059:2064   */\n      dup3\n        /* \"#utility.yul\":2026:2065   */\n      tag_55\n      jump\t// in\n    tag_114:\n        /* \"#utility.yul\":2081:2152   */\n      tag_115\n        /* \"#utility.yul\":2145:2151   */\n      dup2\n        /* \"#utility.yul\":2140:2143   */\n      dup6\n        /* \"#utility.yul\":2081:2152   */\n      tag_56\n      jump\t// in\n    tag_115:\n        /* \"#utility.yul\":2074:2152   */\n      swap4\n      pop\n        /* \"#utility.yul\":2161:2226   */\n      tag_116\n        /* \"#utility.yul\":2219:2225   */\n      dup2\n        /* \"#utility.yul\":2214:2217   */\n      dup6\n        /* \"#utility.yul\":2207:2211   */\n      0x20\n        /* \"#utility.yul\":2200:2205   */\n      dup7\n        /* \"#utility.yul\":2196:2212   */\n      add\n        /* \"#utility.yul\":2161:2226   */\n      tag_57\n      jump\t// in\n    tag_116:\n        /* \"#utility.yul\":2251:2280   */\n      tag_117\n        /* \"#utility.yul\":2273:2279   */\n      dup2\n        /* \"#utility.yul\":2251:2280   */\n      tag_58\n      jump\t// in\n    tag_117:\n        /* \"#utility.yul\":2246:2249   */\n      dup5\n        /* \"#utility.yul\":2242:2281   */\n      add\n        /* \"#utility.yul\":2235:2281   */\n      swap2\n      pop\n        /* \"#utility.yul\":2002:2287   */\n      pop\n        /* \"#utility.yul\":1910:2287   */\n      swap3\n      swap2\n      pop\n      pop\n      jump\t// out\n        /* \"#utility.yul\":2293:2716   */\n    tag_17:\n        /* \"#utility.yul\":2434:2438   */\n      0x00\n        /* \"#utility.yul\":2472:2474   */\n      0x40\n        /* \"#utility.yul\":2461:2470   */\n      dup3\n        /* \"#utility.yul\":2457:2475   */\n      add\n        /* \"#utility.yul\":2449:2475   */\n      swap1\n      pop\n        /* \"#utility.yul\":2485:2556   */\n      tag_119\n        /* \"#utility.yul\":2553:2554   */\n      0x00\n        /* \"#utility.yul\":2542:2551   */\n      dup4\n        /* \"#utility.yul\":2538:2555   */\n      add\n        /* \"#utility.yul\":2529:2535   */\n      dup6\n        /* \"#utility.yul\":2485:2556   */\n      tag_49\n      jump\t// in\n    tag_119:\n        /* \"#utility.yul\":2603:2612   */\n      dup2\n        /* \"#utility.yul\":2597:2601   */\n      dup2\n        /* \"#utility.yul\":2593:2613   */\n      sub\n        /* \"#utility.yul\":2588:2590   */\n      0x20\n        /* \"#utility.yul\":2577:2586   */\n      dup4\n        /* \"#utility.yul\":2573:2591   */\n      add\n        /* \"#utility.yul\":2566:2614   */\n      mstore\n        /* \"#utility.yul\":2631:2709   */\n      tag_120\n        /* \"#utility.yul\":2704:2708   */\n      dup2\n        /* \"#utility.yul\":2695:2701   */\n      dup5\n        /* \"#utility.yul\":2631:2709   */\n      tag_59\n      jump\t// in\n    tag_120:\n        /* \"#utility.yul\":2623:2709   */\n      swap1\n      pop\n        /* \"#utility.yul\":2293:2716   */\n      swap4\n      swap3\n      pop\n      pop\n      pop\n      jump\t// out\n        /* \"#utility.yul\":2722:2839   */\n    tag_60:\n        /* \"#utility.yul\":2831:2832   */\n      0x00\n        /* \"#utility.yul\":2828:2829   */\n      dup1\n        /* \"#utility.yul\":2821:2833   */\n      revert\n        /* \"#utility.yul\":2845:2962   */\n    tag_61:\n        /* \"#utility.yul\":2954:2955   */\n      0x00\n        /* \"#utility.yul\":2951:2952   */\n      dup1\n        /* \"#utility.yul\":2944:2956   */\n      revert\n        /* \"#utility.yul\":2968:3085   */\n    tag_62:\n        /* \"#utility.yul\":3077:3078   */\n      0x00\n        /* \"#utility.yul\":3074:3075   */\n      dup1\n        /* \"#utility.yul\":3067:3079   */\n      revert\n        /* \"#utility.yul\":3105:3658   */\n    tag_63:\n        /* \"#utility.yul\":3163:3171   */\n      0x00\n        /* \"#utility.yul\":3173:3179   */\n      dup1\n        /* \"#utility.yul\":3223:3226   */\n      dup4\n        /* \"#utility.yul\":3216:3220   */\n      0x1f\n        /* \"#utility.yul\":3208:3214   */\n      dup5\n        /* \"#utility.yul\":3204:3221   */\n      add\n        /* \"#utility.yul\":3200:3227   */\n      slt\n        /* \"#utility.yul\":3190:3312   */\n      tag_125\n      jumpi\n        /* \"#utility.yul\":3231:3310   */\n      tag_126\n      tag_60\n      jump\t// in\n    tag_126:\n        /* \"#utility.yul\":3190:3312   */\n    tag_125:\n        /* \"#utility.yul\":3344:3350   */\n      dup3\n        /* \"#utility.yul\":3331:3351   */\n      calldataload\n        /* \"#utility.yul\":3321:3351   */\n      swap1\n      pop\n        /* \"#utility.yul\":3374:3392   */\n      0xffffffffffffffff\n        /* \"#utility.yul\":3366:3372   */\n      dup2\n        /* \"#utility.yul\":3363:3393   */\n      gt\n        /* \"#utility.yul\":3360:3477   */\n      iszero\n      tag_127\n      jumpi\n        /* \"#utility.yul\":3396:3475   */\n      tag_128\n      tag_61\n      jump\t// in\n    tag_128:\n        /* \"#utility.yul\":3360:3477   */\n    tag_127:\n        /* \"#utility.yul\":3510:3514   */\n      0x20\n        /* \"#utility.yul\":3502:3508   */\n      dup4\n        /* \"#utility.yul\":3498:3515   */\n      add\n        /* \"#utility.yul\":3486:3515   */\n      swap2\n      pop\n        /* \"#utility.yul\":3564:3567   */\n      dup4\n        /* \"#utility.yul\":3556:3560   */\n      0x01\n        /* \"#utility.yul\":3548:3554   */\n      dup3\n        /* \"#utility.yul\":3544:3561   */\n      mul\n        /* \"#utility.yul\":3534:3542   */\n      dup4\n        /* \"#utility.yul\":3530:3562   */\n      add\n        /* \"#utility.yul\":3527:3568   */\n      gt\n        /* \"#utility.yul\":3524:3652   */\n      iszero\n      tag_129\n      jumpi\n        /* \"#utility.yul\":3571:3650   */\n      tag_130\n      tag_62\n      jump\t// in\n    tag_130:\n        /* \"#utility.yul\":3524:3652   */\n    tag_129:\n        /* \"#utility.yul\":3105:3658   */\n      swap3\n      pop\n      swap3\n      swap1\n      pop\n      jump\t// out\n        /* \"#utility.yul\":3664:4338   */\n    tag_23:\n        /* \"#utility.yul\":3744:3750   */\n      0x00\n        /* \"#utility.yul\":3752:3758   */\n      dup1\n        /* \"#utility.yul\":3760:3766   */\n      0x00\n        /* \"#utility.yul\":3809:3811   */\n      0x40\n        /* \"#utility.yul\":3797:3806   */\n      dup5\n        /* \"#utility.yul\":3788:3795   */\n      dup7\n        /* \"#utility.yul\":3784:3807   */\n      sub\n        /* \"#utility.yul\":3780:3812   */\n      slt\n        /* \"#utility.yul\":3777:3896   */\n      iszero\n      tag_132\n      jumpi\n        /* \"#utility.yul\":3815:3894   */\n      tag_133\n      tag_51\n      jump\t// in\n    tag_133:\n        /* \"#utility.yul\":3777:3896   */\n    tag_132:\n        /* \"#utility.yul\":3963:3964   */\n      0x00\n        /* \"#utility.yul\":3952:3961   */\n      dup5\n        /* \"#utility.yul\":3948:3965   */\n      add\n        /* \"#utility.yul\":3935:3966   */\n      calldataload\n        /* \"#utility.yul\":3993:4011   */\n      0xffffffffffffffff\n        /* \"#utility.yul\":3985:3991   */\n      dup2\n        /* \"#utility.yul\":3982:4012   */\n      gt\n        /* \"#utility.yul\":3979:4096   */\n      iszero\n      tag_134\n      jumpi\n        /* \"#utility.yul\":4015:4094   */\n      tag_135\n      tag_52\n      jump\t// in\n    tag_135:\n        /* \"#utility.yul\":3979:4096   */\n    tag_134:\n        /* \"#utility.yul\":4128:4193   */\n      tag_136\n        /* \"#utility.yul\":4185:4192   */\n      dup7\n        /* \"#utility.yul\":4176:4182   */\n      dup3\n        /* \"#utility.yul\":4165:4174   */\n      dup8\n        /* \"#utility.yul\":4161:4183   */\n      add\n        /* \"#utility.yul\":4128:4193   */\n      tag_63\n      jump\t// in\n    tag_136:\n        /* \"#utility.yul\":4110:4193   */\n      swap4\n      pop\n      swap4\n      pop\n        /* \"#utility.yul\":3906:4203   */\n      pop\n        /* \"#utility.yul\":4242:4244   */\n      0x20\n        /* \"#utility.yul\":4268:4321   */\n      tag_137\n        /* \"#utility.yul\":4313:4320   */\n      dup7\n        /* \"#utility.yul\":4304:4310   */\n      dup3\n        /* \"#utility.yul\":4293:4302   */\n      dup8\n        /* \"#utility.yul\":4289:4311   */\n      add\n        /* \"#utility.yul\":4268:4321   */\n      tag_54\n      jump\t// in\n    tag_137:\n        /* \"#utility.yul\":4258:4321   */\n      swap2\n      pop\n        /* \"#utility.yul\":4213:4331   */\n      pop\n        /* \"#utility.yul\":3664:4338   */\n      swap3\n      pop\n      swap3\n      pop\n      swap3\n      jump\t// out\n        /* \"#utility.yul\":4344:4461   */\n    tag_64:\n        /* \"#utility.yul\":4453:4454   */\n      0x00\n        /* \"#utility.yul\":4450:4451   */\n      dup1\n        /* \"#utility.yul\":4443:4455   */\n      revert\n        /* \"#utility.yul\":4467:4647   */\n    tag_65:\n        /* \"#utility.yul\":4515:4592   */\n      0x4e487b7100000000000000000000000000000000000000000000000000000000\n        /* \"#utility.yul\":4512:4513   */\n      0x00\n        /* \"#utility.yul\":4505:4593   */\n      mstore\n        /* \"#utility.yul\":4612:4616   */\n      0x41\n        /* \"#utility.yul\":4609:4610   */\n      0x04\n        /* \"#utility.yul\":4602:4617   */\n      mstore\n        /* \"#utility.yul\":4636:4640   */\n      0x24\n        /* \"#utility.yul\":4633:4634   */\n      0x00\n        /* \"#utility.yul\":4626:4641   */\n      revert\n        /* \"#utility.yul\":4653:4934   */\n    tag_66:\n        /* \"#utility.yul\":4736:4763   */\n      tag_141\n        /* \"#utility.yul\":4758:4762   */\n      dup3\n        /* \"#utility.yul\":4736:4763   */\n      tag_58\n      jump\t// in\n    tag_141:\n        /* \"#utility.yul\":4728:4734   */\n      dup2\n        /* \"#utility.yul\":4724:4764   */\n      add\n        /* \"#utility.yul\":4866:4872   */\n      dup2\n        /* \"#utility.yul\":4854:4864   */\n      dup2\n        /* \"#utility.yul\":4851:4873   */\n      lt\n        /* \"#utility.yul\":4830:4848   */\n      0xffffffffffffffff\n        /* \"#utility.yul\":4818:4828   */\n      dup3\n        /* \"#utility.yul\":4815:4849   */\n      gt\n        /* \"#utility.yul\":4812:4874   */\n      or\n        /* \"#utility.yul\":4809:4897   */\n      iszero\n      tag_142\n      jumpi\n        /* \"#utility.yul\":4877:4895   */\n      tag_143\n      tag_65\n      jump\t// in\n    tag_143:\n        /* \"#utility.yul\":4809:4897   */\n    tag_142:\n        /* \"#utility.yul\":4917:4927   */\n      dup1\n        /* \"#utility.yul\":4913:4915   */\n      0x40\n        /* \"#utility.yul\":4906:4928   */\n      mstore\n        /* \"#utility.yul\":4696:4934   */\n      pop\n        /* \"#utility.yul\":4653:4934   */\n      pop\n      pop\n      jump\t// out\n        /* \"#utility.yul\":4940:5069   */\n    tag_67:\n        /* \"#utility.yul\":4974:4980   */\n      0x00\n        /* \"#utility.yul\":5001:5021   */\n      tag_145\n      tag_50\n      jump\t// in\n    tag_145:\n        /* \"#utility.yul\":4991:5021   */\n      swap1\n      pop\n        /* \"#utility.yul\":5030:5063   */\n      tag_146\n        /* \"#utility.yul\":5058:5062   */\n      dup3\n        /* \"#utility.yul\":5050:5056   */\n      dup3\n        /* \"#utility.yul\":5030:5063   */\n      tag_66\n      jump\t// in\n    tag_146:\n        /* \"#utility.yul\":4940:5069   */\n      swap2\n      swap1\n      pop\n      jump\t// out\n        /* \"#utility.yul\":5075:5383   */\n    tag_68:\n        /* \"#utility.yul\":5137:5141   */\n      0x00\n        /* \"#utility.yul\":5227:5245   */\n      0xffffffffffffffff\n        /* \"#utility.yul\":5219:5225   */\n      dup3\n        /* \"#utility.yul\":5216:5246   */\n      gt\n        /* \"#utility.yul\":5213:5269   */\n      iszero\n      tag_148\n      jumpi\n        /* \"#utility.yul\":5249:5267   */\n      tag_149\n      tag_65\n      jump\t// in\n    tag_149:\n        /* \"#utility.yul\":5213:5269   */\n    tag_148:\n        /* \"#utility.yul\":5287:5316   */\n      tag_150\n        /* \"#utility.yul\":5309:5315   */\n      dup3\n        /* \"#utility.yul\":5287:5316   */\n      tag_58\n      jump\t// in\n    tag_150:\n        /* \"#utility.yul\":5279:5316   */\n      swap1\n      pop\n        /* \"#utility.yul\":5371:5375   */\n      0x20\n        /* \"#utility.yul\":5365:5369   */\n      dup2\n        /* \"#utility.yul\":5361:5376   */\n      add\n        /* \"#utility.yul\":5353:5376   */\n      swap1\n      pop\n        /* \"#utility.yul\":5075:5383   */\n      swap2\n      swap1\n      pop\n      jump\t// out\n        /* \"#utility.yul\":5389:5537   */\n    tag_69:\n        /* \"#utility.yul\":5487:5493   */\n      dup3\n        /* \"#utility.yul\":5482:5485   */\n      dup2\n        /* \"#utility.yul\":5477:5480   */\n      dup4\n        /* \"#utility.yul\":5464:5494   */\n      calldatacopy\n        /* \"#utility.yul\":5528:5529   */\n      0x00\n        /* \"#utility.yul\":5519:5525   */\n      dup4\n        /* \"#utility.yul\":5514:5517   */\n      dup4\n        /* \"#utility.yul\":5510:5526   */\n      add\n        /* \"#utility.yul\":5503:5530   */\n      mstore\n        /* \"#utility.yul\":5389:5537   */\n      pop\n      pop\n      pop\n      jump\t// out\n        /* \"#utility.yul\":5543:5968   */\n    tag_70:\n        /* \"#utility.yul\":5621:5626   */\n      0x00\n        /* \"#utility.yul\":5646:5712   */\n      tag_153\n        /* \"#utility.yul\":5662:5711   */\n      tag_154\n        /* \"#utility.yul\":5704:5710   */\n      dup5\n        /* \"#utility.yul\":5662:5711   */\n      tag_68\n      jump\t// in\n    tag_154:\n        /* \"#utility.yul\":5646:5712   */\n      tag_67\n      jump\t// in\n    tag_153:\n        /* \"#utility.yul\":5637:5712   */\n      swap1\n      pop\n        /* \"#utility.yul\":5735:5741   */\n      dup3\n        /* \"#utility.yul\":5728:5733   */\n      dup2\n        /* \"#utility.yul\":5721:5742   */\n      mstore\n        /* \"#utility.yul\":5773:5777   */\n      0x20\n        /* \"#utility.yul\":5766:5771   */\n      dup2\n        /* \"#utility.yul\":5762:5778   */\n      add\n        /* \"#utility.yul\":5811:5814   */\n      dup5\n        /* \"#utility.yul\":5802:5808   */\n      dup5\n        /* \"#utility.yul\":5797:5800   */\n      dup5\n        /* \"#utility.yul\":5793:5809   */\n      add\n        /* \"#utility.yul\":5790:5815   */\n      gt\n        /* \"#utility.yul\":5787:5899   */\n      iszero\n      tag_155\n      jumpi\n        /* \"#utility.yul\":5818:5897   */\n      tag_156\n      tag_64\n      jump\t// in\n    tag_156:\n        /* \"#utility.yul\":5787:5899   */\n    tag_155:\n        /* \"#utility.yul\":5908:5962   */\n      tag_157\n        /* \"#utility.yul\":5955:5961   */\n      dup5\n        /* \"#utility.yul\":5950:5953   */\n      dup3\n        /* \"#utility.yul\":5945:5948   */\n      dup6\n        /* \"#utility.yul\":5908:5962   */\n      tag_69\n      jump\t// in\n    tag_157:\n        /* \"#utility.yul\":5627:5968   */\n      pop\n        /* \"#utility.yul\":5543:5968   */\n      swap4\n      swap3\n      pop\n      pop\n      pop\n      jump\t// out\n        /* \"#utility.yul\":5988:6328   */\n    tag_71:\n        /* \"#utility.yul\":6044:6049   */\n      0x00\n        /* \"#utility.yul\":6093:6096   */\n      dup3\n        /* \"#utility.yul\":6086:6090   */\n      0x1f\n        /* \"#utility.yul\":6078:6084   */\n      dup4\n        /* \"#utility.yul\":6074:6091   */\n      add\n        /* \"#utility.yul\":6070:6097   */\n      slt\n        /* \"#utility.yul\":6060:6182   */\n      tag_159\n      jumpi\n        /* \"#utility.yul\":6101:6180   */\n      tag_160\n      tag_60\n      jump\t// in\n    tag_160:\n        /* \"#utility.yul\":6060:6182   */\n    tag_159:\n        /* \"#utility.yul\":6218:6224   */\n      dup2\n        /* \"#utility.yul\":6205:6225   */\n      calldataload\n        /* \"#utility.yul\":6243:6322   */\n      tag_161\n        /* \"#utility.yul\":6318:6321   */\n      dup5\n        /* \"#utility.yul\":6310:6316   */\n      dup3\n        /* \"#utility.yul\":6303:6307   */\n      0x20\n        /* \"#utility.yul\":6295:6301   */\n      dup7\n        /* \"#utility.yul\":6291:6308   */\n      add\n        /* \"#utility.yul\":6243:6322   */\n      tag_70\n      jump\t// in\n    tag_161:\n        /* \"#utility.yul\":6234:6322   */\n      swap2\n      pop\n        /* \"#utility.yul\":6050:6328   */\n      pop\n        /* \"#utility.yul\":5988:6328   */\n      swap3\n      swap2\n      pop\n      pop\n      jump\t// out\n        /* \"#utility.yul\":6334:6843   */\n    tag_27:\n        /* \"#utility.yul\":6403:6409   */\n      0x00\n        /* \"#utility.yul\":6452:6454   */\n      0x20\n        /* \"#utility.yul\":6440:6449   */\n      dup3\n        /* \"#utility.yul\":6431:6438   */\n      dup5\n        /* \"#utility.yul\":6427:6450   */\n      sub\n        /* \"#utility.yul\":6423:6455   */\n      slt\n        /* \"#utility.yul\":6420:6539   */\n      iszero\n      tag_163\n      jumpi\n        /* \"#utility.yul\":6458:6537   */\n      tag_164\n      tag_51\n      jump\t// in\n    tag_164:\n        /* \"#utility.yul\":6420:6539   */\n    tag_163:\n        /* \"#utility.yul\":6606:6607   */\n      0x00\n        /* \"#utility.yul\":6595:6604   */\n      dup3\n        /* \"#utility.yul\":6591:6608   */\n      add\n        /* \"#utility.yul\":6578:6609   */\n      calldataload\n        /* \"#utility.yul\":6636:6654   */\n      0xffffffffffffffff\n        /* \"#utility.yul\":6628:6634   */\n      dup2\n        /* \"#utility.yul\":6625:6655   */\n      gt\n        /* \"#utility.yul\":6622:6739   */\n      iszero\n      tag_165\n      jumpi\n        /* \"#utility.yul\":6658:6737   */\n      tag_166\n      tag_52\n      jump\t// in\n    tag_166:\n        /* \"#utility.yul\":6622:6739   */\n    tag_165:\n        /* \"#utility.yul\":6763:6826   */\n      tag_167\n        /* \"#utility.yul\":6818:6825   */\n      dup5\n        /* \"#utility.yul\":6809:6815   */\n      dup3\n        /* \"#utility.yul\":6798:6807   */\n      dup6\n        /* \"#utility.yul\":6794:6816   */\n      add\n        /* \"#utility.yul\":6763:6826   */\n      tag_71\n      jump\t// in\n    tag_167:\n        /* \"#utility.yul\":6753:6826   */\n      swap2\n      pop\n        /* \"#utility.yul\":6549:6836   */\n      pop\n        /* \"#utility.yul\":6334:6843   */\n      swap3\n      swap2\n      pop\n      pop\n      jump\t// out\n        /* \"#utility.yul\":6849:7029   */\n    tag_72:\n        /* \"#utility.yul\":6897:6974   */\n      0x4e487b7100000000000000000000000000000000000000000000000000000000\n        /* \"#utility.yul\":6894:6895   */\n      0x00\n        /* \"#utility.yul\":6887:6975   */\n      mstore\n        /* \"#utility.yul\":6994:6998   */\n      0x22\n        /* \"#utility.yul\":6991:6992   */\n      0x04\n        /* \"#utility.yul\":6984:6999   */\n      mstore\n        /* \"#utility.yul\":7018:7022   */\n      0x24\n        /* \"#utility.yul\":7015:7016   */\n      0x00\n        /* \"#utility.yul\":7008:7023   */\n      revert\n        /* \"#utility.yul\":7035:7355   */\n    tag_34:\n        /* \"#utility.yul\":7079:7085   */\n      0x00\n        /* \"#utility.yul\":7116:7117   */\n      0x02\n        /* \"#utility.yul\":7110:7114   */\n      dup3\n        /* \"#utility.yul\":7106:7118   */\n      div\n        /* \"#utility.yul\":7096:7118   */\n      swap1\n      pop\n        /* \"#utility.yul\":7163:7164   */\n      0x01\n        /* \"#utility.yul\":7157:7161   */\n      dup3\n        /* \"#utility.yul\":7153:7165   */\n      and\n        /* \"#utility.yul\":7184:7202   */\n      dup1\n        /* \"#utility.yul\":7174:7255   */\n      tag_170\n      jumpi\n        /* \"#utility.yul\":7240:7244   */\n      0x7f\n        /* \"#utility.yul\":7232:7238   */\n      dup3\n        /* \"#utility.yul\":7228:7245   */\n      and\n        /* \"#utility.yul\":7218:7245   */\n      swap2\n      pop\n        /* \"#utility.yul\":7174:7255   */\n    tag_170:\n        /* \"#utility.yul\":7302:7304   */\n      0x20\n        /* \"#utility.yul\":7294:7300   */\n      dup3\n        /* \"#utility.yul\":7291:7305   */\n      lt\n        /* \"#utility.yul\":7271:7289   */\n      dup2\n        /* \"#utility.yul\":7268:7306   */\n      sub\n        /* \"#utility.yul\":7265:7349   */\n      tag_171\n      jumpi\n        /* \"#utility.yul\":7321:7339   */\n      tag_172\n      tag_72\n      jump\t// in\n    tag_172:\n        /* \"#utility.yul\":7265:7349   */\n    tag_171:\n        /* \"#utility.yul\":7086:7355   */\n      pop\n        /* \"#utility.yul\":7035:7355   */\n      swap2\n      swap1\n      pop\n      jump\t// out\n        /* \"#utility.yul\":7361:7541   */\n    tag_73:\n        /* \"#utility.yul\":7409:7486   */\n      0x4e487b7100000000000000000000000000000000000000000000000000000000\n        /* \"#utility.yul\":7406:7407   */\n      0x00\n        /* \"#utility.yul\":7399:7487   */\n      mstore\n        /* \"#utility.yul\":7506:7510   */\n      0x11\n        /* \"#utility.yul\":7503:7504   */\n      0x04\n        /* \"#utility.yul\":7496:7511   */\n      mstore\n        /* \"#utility.yul\":7530:7534   */\n      0x24\n        /* \"#utility.yul\":7527:7528   */\n      0x00\n        /* \"#utility.yul\":7520:7535   */\n      revert\n        /* \"#utility.yul\":7547:7738   */\n    tag_41:\n        /* \"#utility.yul\":7587:7590   */\n      0x00\n        /* \"#utility.yul\":7606:7626   */\n      tag_175\n        /* \"#utility.yul\":7624:7625   */\n      dup3\n        /* \"#utility.yul\":7606:7626   */\n      tag_48\n      jump\t// in\n    tag_175:\n        /* \"#utility.yul\":7601:7626   */\n      swap2\n      pop\n        /* \"#utility.yul\":7640:7660   */\n      tag_176\n        /* \"#utility.yul\":7658:7659   */\n      dup4\n        /* \"#utility.yul\":7640:7660   */\n      tag_48\n      jump\t// in\n    tag_176:\n        /* \"#utility.yul\":7635:7660   */\n      swap3\n      pop\n        /* \"#utility.yul\":7683:7684   */\n      dup3\n        /* \"#utility.yul\":7680:7681   */\n      dup3\n        /* \"#utility.yul\":7676:7685   */\n      add\n        /* \"#utility.yul\":7669:7685   */\n      swap1\n      pop\n        /* \"#utility.yul\":7704:7707   */\n      dup1\n        /* \"#utility.yul\":7701:7702   */\n      dup3\n        /* \"#utility.yul\":7698:7708   */\n      gt\n        /* \"#utility.yul\":7695:7731   */\n      iszero\n      tag_177\n      jumpi\n        /* \"#utility.yul\":7711:7729   */\n      tag_178\n      tag_73\n      jump\t// in\n    tag_178:\n        /* \"#utility.yul\":7695:7731   */\n    tag_177:\n        /* \"#utility.yul\":7547:7738   */\n      swap3\n      swap2\n      pop\n      pop\n      jump\t// out\n        /* \"#utility.yul\":7744:7885   */\n    tag_74:\n        /* \"#utility.yul\":7793:7797   */\n      0x00\n        /* \"#utility.yul\":7816:7819   */\n      dup2\n        /* \"#utility.yul\":7808:7819   */\n      swap1\n      pop\n        /* \"#utility.yul\":7839:7842   */\n      dup2\n        /* \"#utility.yul\":7836:7837   */\n      0x00\n        /* \"#utility.yul\":7829:7843   */\n      mstore\n        /* \"#utility.yul\":7873:7877   */\n      0x20\n        /* \"#utility.yul\":7870:7871   */\n      0x00\n        /* \"#utility.yul\":7860:7878   */\n      keccak256\n        /* \"#utility.yul\":7852:7878   */\n      swap1\n      pop\n        /* \"#utility.yul\":7744:7885   */\n      swap2\n      swap1\n      pop\n      jump\t// out\n        /* \"#utility.yul\":7891:7984   */\n    tag_75:\n        /* \"#utility.yul\":7928:7934   */\n      0x00\n        /* \"#utility.yul\":7975:7977   */\n      0x20\n        /* \"#utility.yul\":7970:7972   */\n      0x1f\n        /* \"#utility.yul\":7963:7968   */\n      dup4\n        /* \"#utility.yul\":7959:7973   */\n      add\n        /* \"#utility.yul\":7955:7978   */\n      div\n        /* \"#utility.yul\":7945:7978   */\n      swap1\n      pop\n        /* \"#utility.yul\":7891:7984   */\n      swap2\n      swap1\n      pop\n      jump\t// out\n        /* \"#utility.yul\":7990:8097   */\n    tag_76:\n        /* \"#utility.yul\":8034:8042   */\n      0x00\n        /* \"#utility.yul\":8084:8089   */\n      dup3\n        /* \"#utility.yul\":8078:8082   */\n      dup3\n        /* \"#utility.yul\":8074:8090   */\n      shl\n        /* \"#utility.yul\":8053:8090   */\n      swap1\n      pop\n        /* \"#utility.yul\":7990:8097   */\n      swap3\n      swap2\n      pop\n      pop\n      jump\t// out\n        /* \"#utility.yul\":8103:8496   */\n    tag_77:\n        /* \"#utility.yul\":8172:8178   */\n      0x00\n        /* \"#utility.yul\":8222:8223   */\n      0x08\n        /* \"#utility.yul\":8210:8220   */\n      dup4\n        /* \"#utility.yul\":8206:8224   */\n      mul\n        /* \"#utility.yul\":8245:8342   */\n      tag_183\n        /* \"#utility.yul\":8275:8341   */\n      0xffffffffffffffffffffffffffffffffffffffffffffffffffffffffffffffff\n        /* \"#utility.yul\":8264:8273   */\n      dup3\n        /* \"#utility.yul\":8245:8342   */\n      tag_76\n      jump\t// in\n    tag_183:\n        /* \"#utility.yul\":8363:8402   */\n      tag_184\n        /* \"#utility.yul\":8393:8401   */\n      dup7\n        /* \"#utility.yul\":8382:8391   */\n      dup4\n        /* \"#utility.yul\":8363:8402   */\n      tag_76\n      jump\t// in\n    tag_184:\n        /* \"#utility.yul\":8351:8402   */\n      swap6\n      pop\n        /* \"#utility.yul\":8435:8439   */\n      dup1\n        /* \"#utility.yul\":8431:8440   */\n      not\n        /* \"#utility.yul\":8424:8429   */\n      dup5\n        /* \"#utility.yul\":8420:8441   */\n      and\n        /* \"#utility.yul\":8411:8441   */\n      swap4\n      pop\n        /* \"#utility.yul\":8484:8488   */\n      dup1\n        /* \"#utility.yul\":8474:8482   */\n      dup7\n        /* \"#utility.yul\":8470:8489   */\n      and\n        /* \"#utility.yul\":8463:8468   */\n      dup5\n        /* \"#utility.yul\":8460:8490   */\n      or\n        /* \"#utility.yul\":8450:8490   */\n      swap3\n      pop\n        /* \"#utility.yul\":8179:8496   */\n      pop\n      pop\n        /* \"#utility.yul\":8103:8496   */\n      swap4\n      swap3\n      pop\n      pop\n      pop\n      jump\t// out\n        /* \"#utility.yul\":8502:8562   */\n    tag_78:\n        /* \"#utility.yul\":8530:8533   */\n      0x00\n        /* \"#utility.yul\":8551:8556   */\n      dup2\n        /* \"#utility.yul\":8544:8556   */\n      swap1\n      pop\n        /* \"#utility.yul\":8502:8562   */\n      swap2\n      swap1\n      pop\n      jump\t// out\n        /* \"#utility.yul\":8568:8710   */\n    tag_79:\n        /* \"#utility.yul\":8618:8627   */\n      0x00\n        /* \"#utility.yul\":8651:8704   */\n      tag_187\n        /* \"#utility.yul\":8669:8703   */\n      tag_188\n        /* \"#utility.yul\":8678:8702   */\n      tag_189\n        /* \"#utility.yul\":8696:8701   */\n      dup5\n        /* \"#utility.yul\":8678:8702   */\n      tag_48\n      jump\t// in\n    tag_189:\n        /* \"#utility.yul\":8669:8703   */\n      tag_78\n      jump\t// in\n    tag_188:\n        /* \"#utility.yul\":8651:8704   */\n      tag_48\n      jump\t// in\n    tag_187:\n        /* \"#utility.yul\":8638:8704   */\n      swap1\n      pop\n        /* \"#utility.yul\":8568:8710   */\n      swap2\n      swap1\n      pop\n      jump\t// out\n        /* \"#utility.yul\":8716:8791   */\n    tag_80:\n        /* \"#utility.yul\":8759:8762   */\n      0x00\n        /* \"#utility.yul\":8780:8785   */\n      dup2\n        /* \"#utility.yul\":8773:8785   */\n      swap1\n      pop\n        /* \"#utility.yul\":8716:8791   */\n      swap2\n      swap1\n      pop\n      jump\t// out\n        /* \"#utility.yul\":8797:9066   */\n    tag_81:\n        /* \"#utility.yul\":8907:8946   */\n      tag_192\n        /* \"#utility.yul\":8938:8945   */\n      dup4\n        /* \"#utility.yul\":8907:8946   */\n      tag_79\n      jump\t// in\n    tag_192:\n        /* \"#utility.yul\":8968:9059   */\n      tag_193\n        /* \"#utility.yul\":9017:9058   */\n      tag_194\n        /* \"#utility.yul\":9041:9057   */\n      dup3\n        /* \"#utility.yul\":9017:9058   */\n      tag_80\n      jump\t// in\n    tag_194:\n        /* \"#utility.yul\":9009:9015   */\n      dup5\n        /* \"#utility.yul\":9002:9006   */\n      dup5\n        /* \"#utility.yul\":8996:9007   */\n      sload\n        /* \"#utility.yul\":8968:9059   */\n      tag_77\n      jump\t// in\n    tag_193:\n        /* \"#utility.yul\":8962:8966   */\n      dup3\n        /* \"#utility.yul\":8955:9060   */\n      sstore\n        /* \"#utility.yul\":8873:9066   */\n      pop\n        /* \"#utility.yul\":8797:9066   */\n      pop\n      pop\n      pop\n      jump\t// out\n        /* \"#utility.yul\":9072:9145   */\n    tag_82:\n        /* \"#utility.yul\":9117:9120   */\n      0x00\n        /* \"#utility.yul\":9072:9145   */\n      swap1\n      jump\t// out\n        /* \"#utility.yul\":9151:9340   */\n    tag_83:\n        /* \"#utility.yul\":9228:9260   */\n      tag_197\n      tag_82\n      jump\t// in\n    tag_197:\n        /* \"#utility.yul\":9269:9334   */\n      tag_198\n        /* \"#utility.yul\":9327:9333   */\n      dup2\n        /* \"#utility.yul\":9319:9325   */\n      dup5\n        /* \"#utility.yul\":9313:9317   */\n      dup5\n        /* \"#utility.yul\":9269:9334   */\n      tag_81\n      jump\t// in\n    tag_198:\n        /* \"#utility.yul\":9204:9340   */\n      pop\n        /* \"#utility.yul\":9151:9340   */\n      pop\n      pop\n      jump\t// out\n        /* \"#utility.yul\":9346:9532   */\n    tag_84:\n        /* \"#utility.yul\":9406:9526   */\n    tag_200:\n        /* \"#utility.yul\":9423:9426   */\n      dup2\n        /* \"#utility.yul\":9416:9421   */\n      dup2\n        /* \"#utility.yul\":9413:9427   */\n      lt\n        /* \"#utility.yul\":9406:9526   */\n      iszero\n      tag_202\n      jumpi\n        /* \"#utility.yul\":9477:9516   */\n      tag_203\n        /* \"#utility.yul\":9514:9515   */\n      0x00\n        /* \"#utility.yul\":9507:9512   */\n      dup3\n        /* \"#utility.yul\":9477:9516   */\n      tag_83\n      jump\t// in\n    tag_203:\n        /* \"#utility.yul\":9450:9451   */\n      0x01\n        /* \"#utility.yul\":9443:9448   */\n      dup2\n        /* \"#utility.yul\":9439:9452   */\n      add\n        /* \"#utility.yul\":9430:9452   */\n      swap1\n      pop\n        /* \"#utility.yul\":9406:9526   */\n      jump(tag_200)\n    tag_202:\n        /* \"#utility.yul\":9346:9532   */\n      pop\n      pop\n      jump\t// out\n        /* \"#utility.yul\":9538:10081   */\n    tag_85:\n        /* \"#utility.yul\":9639:9641   */\n      0x1f\n        /* \"#utility.yul\":9634:9637   */\n      dup3\n        /* \"#utility.yul\":9631:9642   */\n      gt\n        /* \"#utility.yul\":9628:10074   */\n      iszero\n      tag_205\n      jumpi\n        /* \"#utility.yul\":9673:9711   */\n      tag_206\n        /* \"#utility.yul\":9705:9710   */\n      dup2\n        /* \"#utility.yul\":9673:9711   */\n      tag_74\n      jump\t// in\n    tag_206:\n        /* \"#utility.yul\":9757:9786   */\n      tag_207\n        /* \"#utility.yul\":9775:9785   */\n      dup5\n        /* \"#utility.yul\":9757:9786   */\n      tag_75\n      jump\t// in\n    tag_207:\n        /* \"#utility.yul\":9747:9755   */\n      dup2\n        /* \"#utility.yul\":9743:9787   */\n      add\n        /* \"#utility.yul\":9940:9942   */\n      0x20\n        /* \"#utility.yul\":9928:9938   */\n      dup6\n        /* \"#utility.yul\":9925:9943   */\n      lt\n        /* \"#utility.yul\":9922:9971   */\n      iszero\n      tag_208\n      jumpi\n        /* \"#utility.yul\":9961:9969   */\n      dup2\n        /* \"#utility.yul\":9946:9969   */\n      swap1\n      pop\n        /* \"#utility.yul\":9922:9971   */\n    tag_208:\n        /* \"#utility.yul\":9984:10064   */\n      tag_209\n        /* \"#utility.yul\":10040:10062   */\n      tag_210\n        /* \"#utility.yul\":10058:10061   */\n      dup6\n        /* \"#utility.yul\":10040:10062   */\n      tag_75\n      jump\t// in\n    tag_210:\n        /* \"#utility.yul\":10030:10038   */\n      dup4\n        /* \"#utility.yul\":10026:10063   */\n      add\n        /* \"#utility.yul\":10013:10024   */\n      dup3\n        /* \"#utility.yul\":9984:10064   */\n      tag_84\n      jump\t// in\n    tag_209:\n        /* \"#utility.yul\":9643:10074   */\n      pop\n      pop\n        /* \"#utility.yul\":9628:10074   */\n    tag_205:\n        /* \"#utility.yul\":9538:10081   */\n      pop\n      pop\n      pop\n      jump\t// out\n        /* \"#utility.yul\":10087:10204   */\n    tag_86:\n        /* \"#utility.yul\":10141:10149   */\n      0x00\n        /* \"#utility.yul\":10191:10196   */\n      dup3\n        /* \"#utility.yul\":10185:10189   */\n      dup3\n        /* \"#utility.yul\":10181:10197   */\n      shr\n        /* \"#utility.yul\":10160:10197   */\n      swap1\n      pop\n        /* \"#utility.yul\":10087:10204   */\n      swap3\n      swap2\n      pop\n      pop\n      jump\t// out\n        /* \"#utility.yul\":10210:10379   */\n    tag_87:\n        /* \"#utility.yul\":10254:10260   */\n      0x00\n        /* \"#utility.yul\":10287:10338   */\n      tag_213\n        /* \"#utility.yul\":10335:10336   */\n      0x00\n        /* \"#utility.yul\":10331:10337   */\n      not\n        /* \"#utility.yul\":10323:10328   */\n      dup5\n        /* \"#utility.yul\":10320:10321   */\n      0x08\n        /* \"#utility.yul\":10316:10329   */\n      mul\n        /* \"#utility.yul\":10287:10338   */\n      tag_86\n      jump\t// in\n    tag_213:\n        /* \"#utility.yul\":10283:10339   */\n      not\n        /* \"#utility.yul\":10368:10372   */\n      dup1\n        /* \"#utility.yul\":10362:10366   */\n      dup4\n        /* \"#utility.yul\":10358:10373   */\n      and\n        /* \"#utility.yul\":10348:10373   */\n      swap2\n      pop\n        /* \"#utility.yul\":10261:10379   */\n      pop\n        /* \"#utility.yul\":10210:10379   */\n      swap3\n      swap2\n      pop\n      pop\n      jump\t// out\n        /* \"#utility.yul\":10384:10679   */\n    tag_88:\n        /* \"#utility.yul\":10460:10464   */\n      0x00\n        /* \"#utility.yul\":10606:10635   */\n      tag_215\n        /* \"#utility.yul\":10631:10634   */\n      dup4\n        /* \"#utility.yul\":10625:10629   */\n      dup4\n        /* \"#utility.yul\":10606:10635   */\n      tag_87\n      jump\t// in\n    tag_215:\n        /* \"#utility.yul\":10598:10635   */\n      swap2\n      pop\n        /* \"#utility.yul\":10668:10671   */\n      dup3\n        /* \"#utility.yul\":10665:10666   */\n      0x02\n        /* \"#utility.yul\":10661:10672   */\n      mul\n        /* \"#utility.yul\":10655:10659   */\n      dup3\n        /* \"#utility.yul\":10652:10673   */\n      or\n        /* \"#utility.yul\":10644:10673   */\n      swap1\n      pop\n        /* \"#utility.yul\":10384:10679   */\n      swap3\n      swap2\n      pop\n      pop\n      jump\t// out\n        /* \"#utility.yul\":10684:12079   */\n    tag_45:\n        /* \"#utility.yul\":10801:10838   */\n      tag_217\n        /* \"#utility.yul\":10834:10837   */\n      dup3\n        /* \"#utility.yul\":10801:10838   */\n      tag_55\n      jump\t// in\n    tag_217:\n        /* \"#utility.yul\":10903:10921   */\n      0xffffffffffffffff\n        /* \"#utility.yul\":10895:10901   */\n      dup2\n        /* \"#utility.yul\":10892:10922   */\n      gt\n        /* \"#utility.yul\":10889:10945   */\n      iszero\n      tag_218\n      jumpi\n        /* \"#utility.yul\":10925:10943   */\n      tag_219\n      tag_65\n      jump\t// in\n    tag_219:\n        /* \"#utility.yul\":10889:10945   */\n    tag_218:\n        /* \"#utility.yul\":10969:11007   */\n      tag_220\n        /* \"#utility.yul\":11001:11005   */\n      dup3\n        /* \"#utility.yul\":10995:11006   */\n      sload\n        /* \"#utility.yul\":10969:11007   */\n      tag_34\n      jump\t// in\n    tag_220:\n        /* \"#utility.yul\":11054:11121   */\n      tag_221\n        /* \"#utility.yul\":11114:11120   */\n      dup3\n        /* \"#utility.yul\":11106:11112   */\n      dup3\n        /* \"#utility.yul\":11100:11104   */\n      dup6\n        /* \"#utility.yul\":11054:11121   */\n      tag_85\n      jump\t// in\n    tag_221:\n        /* \"#utility.yul\":11148:11149   */\n      0x00\n        /* \"#utility.yul\":11172:11176   */\n      0x20\n        /* \"#utility.yul\":11159:11176   */\n      swap1\n      pop\n        /* \"#utility.yul\":11204:11206   */\n      0x1f\n        /* \"#utility.yul\":11196:11202   */\n      dup4\n        /* \"#utility.yul\":11193:11207   */\n      gt\n        /* \"#utility.yul\":11221:11222   */\n      0x01\n        /* \"#utility.yul\":11216:11834   */\n      dup2\n      eq\n      tag_223\n      jumpi\n        /* \"#utility.yul\":11878:11879   */\n      0x00\n        /* \"#utility.yul\":11895:11901   */\n      dup5\n        /* \"#utility.yul\":11892:11969   */\n      iszero\n      tag_224\n      jumpi\n        /* \"#utility.yul\":11944:11953   */\n      dup3\n        /* \"#utility.yul\":11939:11942   */\n      dup8\n        /* \"#utility.yul\":11935:11954   */\n      add\n        /* \"#utility.yul\":11929:11955   */\n      mload\n        /* \"#utility.yul\":11920:11955   */\n      swap1\n      pop\n        /* \"#utility.yul\":11892:11969   */\n    tag_224:\n        /* \"#utility.yul\":11995:12062   */\n      tag_225\n        /* \"#utility.yul\":12055:12061   */\n      dup6\n        /* \"#utility.yul\":12048:12053   */\n      dup3\n        /* \"#utility.yul\":11995:12062   */\n      tag_88\n      jump\t// in\n    tag_225:\n        /* \"#utility.yul\":11989:11993   */\n      dup7\n        /* \"#utility.yul\":11982:12063   */\n      sstore\n        /* \"#utility.yul\":11851:12073   */\n      pop\n        /* \"#utility.yul\":11186:12073   */\n      jump(tag_222)\n        /* \"#utility.yul\":11216:11834   */\n    tag_223:\n        /* \"#utility.yul\":11268:11272   */\n      0x1f\n        /* \"#utility.yul\":11264:11273   */\n      not\n        /* \"#utility.yul\":11256:11262   */\n      dup5\n        /* \"#utility.yul\":11252:11274   */\n      and\n        /* \"#utility.yul\":11302:11339   */\n      tag_226\n        /* \"#utility.yul\":11334:11338   */\n      dup7\n        /* \"#utility.yul\":11302:11339   */\n      tag_74\n      jump\t// in\n    tag_226:\n        /* \"#utility.yul\":11361:11362   */\n      0x00\n        /* \"#utility.yul\":11375:11583   */\n    tag_227:\n        /* \"#utility.yul\":11389:11396   */\n      dup3\n        /* \"#utility.yul\":11386:11387   */\n      dup2\n        /* \"#utility.yul\":11383:11397   */\n      lt\n        /* \"#utility.yul\":11375:11583   */\n      iszero\n      tag_229\n      jumpi\n        /* \"#utility.yul\":11468:11477   */\n      dup5\n        /* \"#utility.yul\":11463:11466   */\n      dup10\n        /* \"#utility.yul\":11459:11478   */\n      add\n        /* \"#utility.yul\":11453:11479   */\n      mload\n        /* \"#utility.yul\":11445:11451   */\n      dup3\n        /* \"#utility.yul\":11438:11480   */\n      sstore\n        /* \"#utility.yul\":11519:11520   */\n      0x01\n        /* \"#utility.yul\":11511:11517   */\n      dup3\n        /* \"#utility.yul\":11507:11521   */\n      add\n        /* \"#utility.yul\":11497:11521   */\n      swap2\n      pop\n        /* \"#utility.yul\":11566:11568   */\n      0x20\n        /* \"#utility.yul\":11555:11564   */\n      dup6\n        /* \"#utility.yul\":11551:11569   */\n      add\n        /* \"#utility.yul\":11538:11569   */\n      swap5\n      pop\n        /* \"#utility.yul\":11412:11416   */\n      0x20\n        /* \"#utility.yul\":11409:11410   */\n      dup2\n        /* \"#utility.yul\":11405:11417   */\n      add\n        /* \"#utility.yul\":11400:11417   */\n      swap1\n      pop\n        /* \"#utility.yul\":11375:11583   */\n      jump(tag_227)\n    tag_229:\n        /* \"#utility.yul\":11611:11617   */\n      dup7\n        /* \"#utility.yul\":11602:11609   */\n      dup4\n        /* \"#utility.yul\":11599:11618   */\n      lt\n        /* \"#utility.yul\":11596:11775   */\n      iszero\n      tag_230\n      jumpi\n        /* \"#utility.yul\":11669:11678   */\n      dup5\n        /* \"#utility.yul\":11664:11667   */\n      dup10\n        /* \"#utility.yul\":11660:11679   */\n      add\n        /* \"#utility.yul\":11654:11680   */\n      mload\n        /* \"#utility.yul\":11712:11760   */\n      tag_231\n        /* \"#utility.yul\":11754:11758   */\n      0x1f\n        /* \"#utility.yul\":11746:11752   */\n      dup10\n        /* \"#utility.yul\":11742:11759   */\n      and\n        /* \"#utility.yul\":11731:11740   */\n      dup3\n        /* \"#utility.yul\":11712:11760   */\n      tag_87\n      jump\t// in\n    tag_231:\n        /* \"#utility.yul\":11704:11710   */\n      dup4\n        /* \"#utility.yul\":11697:11761   */\n      sstore\n        /* \"#utility.yul\":11619:11775   */\n      pop\n        /* \"#utility.yul\":11596:11775   */\n    tag_230:\n        /* \"#utility.yul\":11821:11822   */\n      0x01\n        /* \"#utility.yul\":11817:11818   */\n      0x02\n        /* \"#utility.yul\":11809:11815   */\n      dup9\n        /* \"#utility.yul\":11805:11819   */\n      mul\n        /* \"#utility.yul\":11801:11823   */\n      add\n        /* \"#utility.yul\":11795:11799   */\n      dup9\n        /* \"#utility.yul\":11788:11824   */\n      sstore\n        /* \"#utility.yul\":11223:11834   */\n      pop\n      pop\n      pop\n        /* \"#utility.yul\":11186:12073   */\n    tag_222:\n      pop\n        /* \"#utility.yul\":10776:12079   */\n      pop\n      pop\n      pop\n        /* \"#utility.yul\":10684:12079   */\n      pop\n      pop\n      jump\t// out\n        /* \"#utility.yul\":12085:12233   */\n    tag_89:\n        /* \"#utility.yul\":12187:12198   */\n      0x00\n        /* \"#utility.yul\":12224:12227   */\n      dup2\n        /* \"#utility.yul\":12209:12227   */\n      swap1\n      pop\n        /* \"#utility.yul\":12085:12233   */\n      swap3\n      swap2\n      pop\n      pop\n      jump\t// out\n        /* \"#utility.yul\":12263:12593   */\n    tag_90:\n        /* \"#utility.yul\":12379:12382   */\n      0x00\n        /* \"#utility.yul\":12400:12489   */\n      tag_234\n        /* \"#utility.yul\":12482:12488   */\n      dup4\n        /* \"#utility.yul\":12477:12480   */\n      dup6\n        /* \"#utility.yul\":12400:12489   */\n      tag_89\n      jump\t// in\n    tag_234:\n        /* \"#utility.yul\":12393:12489   */\n      swap4\n      pop\n        /* \"#utility.yul\":12499:12555   */\n      tag_235\n        /* \"#utility.yul\":12548:12554   */\n      dup4\n        /* \"#utility.yul\":12543:12546   */\n      dup6\n        /* \"#utility.yul\":12536:12541   */\n      dup5\n        /* \"#utility.yul\":12499:12555   */\n      tag_69\n      jump\t// in\n    tag_235:\n        /* \"#utility.yul\":12580:12586   */\n      dup3\n        /* \"#utility.yul\":12575:12578   */\n      dup5\n        /* \"#utility.yul\":12571:12587   */\n      add\n        /* \"#utility.yul\":12564:12587   */\n      swap1\n      pop\n        /* \"#utility.yul\":12263:12593   */\n      swap4\n      swap3\n      pop\n      pop\n      pop\n      jump\t// out\n        /* \"#utility.yul\":12599:12894   */\n    tag_47:\n        /* \"#utility.yul\":12741:12744   */\n      0x00\n        /* \"#utility.yul\":12763:12868   */\n      tag_237\n        /* \"#utility.yul\":12864:12867   */\n      dup3\n        /* \"#utility.yul\":12855:12861   */\n      dup5\n        /* \"#utility.yul\":12847:12853   */\n      dup7\n        /* \"#utility.yul\":12763:12868   */\n      tag_90\n      jump\t// in\n    tag_237:\n        /* \"#utility.yul\":12756:12868   */\n      swap2\n      pop\n        /* \"#utility.yul\":12885:12888   */\n      dup2\n        /* \"#utility.yul\":12878:12888   */\n      swap1\n      pop\n        /* \"#utility.yul\":12599:12894   */\n      swap4\n      swap3\n      pop\n      pop\n      pop\n      jump\t// out\n\n    auxdata: 0xa2646970667358221220df6c755b30b6bfde67c9af626713db15c4beac5fce3e75f4bcd0b7d306f064d864736f6c634300081a0033\n}\n",
				"bytecode": {
					"linkReferences": {},
					"object": "6080604052348015600e575f80fd5b506109e08061001c5f395ff3fe608060405234801561000f575f80fd5b5060043610610055575f3560e01c80632e64cec1146100595780632ebce631146100775780636057361d146100a85780636f760f41146100c45780638bab8dd5146100e0575b5f80fd5b610061610110565b60405161006e91906102f1565b60405180910390f35b610091600480360381019061008c9190610345565b610118565b60405161009f9291906103e0565b60405180910390f35b6100c260048036038101906100bd9190610345565b6101cd565b005b6100de60048036038101906100d9919061046f565b6101e2565b005b6100fa60048036038101906100f591906105f4565b6102ac565b60405161010791906102f1565b60405180910390f35b5f8054905090565b60018181548110610127575f80fd5b905f5260205f2090600202015f91509050805f01549080600101805461014c90610668565b80601f016020809104026020016040519081016040528092919081815260200182805461017890610668565b80156101c35780601f1061019a576101008083540402835291602001916101c3565b820191905f5260205f20905b8154815290600101906020018083116101a657829003601f168201915b5050505050905082565b6005816101da91906106c5565b5f8190555050565b6001604051806040016040528083815260200185858080601f0160208091040260200160405190810160405280939291908181526020018383808284375f81840152601f19601f82011690508083019250505050505050815250908060018154018082558091505060019003905f5260205f2090600202015f909190919091505f820151815f0155602082015181600101908161027f9190610895565b5050508060028484604051610295929190610992565b908152602001604051809103902081905550505050565b6002818051602081018201805184825260208301602085012081835280955050505050505f915090505481565b5f819050919050565b6102eb816102d9565b82525050565b5f6020820190506103045f8301846102e2565b92915050565b5f604051905090565b5f80fd5b5f80fd5b610324816102d9565b811461032e575f80fd5b50565b5f8135905061033f8161031b565b92915050565b5f6020828403121561035a57610359610313565b5b5f61036784828501610331565b91505092915050565b5f81519050919050565b5f82825260208201905092915050565b8281835e5f83830152505050565b5f601f19601f8301169050919050565b5f6103b282610370565b6103bc818561037a565b93506103cc81856020860161038a565b6103d581610398565b840191505092915050565b5f6040820190506103f35f8301856102e2565b818103602083015261040581846103a8565b90509392505050565b5f80fd5b5f80fd5b5f80fd5b5f8083601f84011261042f5761042e61040e565b5b8235905067ffffffffffffffff81111561044c5761044b610412565b5b60208301915083600182028301111561046857610467610416565b5b9250929050565b5f805f6040848603121561048657610485610313565b5b5f84013567ffffffffffffffff8111156104a3576104a2610317565b5b6104af8682870161041a565b935093505060206104c286828701610331565b9150509250925092565b5f80fd5b7f4e487b71000000000000000000000000000000000000000000000000000000005f52604160045260245ffd5b61050682610398565b810181811067ffffffffffffffff82111715610525576105246104d0565b5b80604052505050565b5f61053761030a565b905061054382826104fd565b919050565b5f67ffffffffffffffff821115610562576105616104d0565b5b61056b82610398565b9050602081019050919050565b828183375f83830152505050565b5f61059861059384610548565b61052e565b9050828152602081018484840111156105b4576105b36104cc565b5b6105bf848285610578565b509392505050565b5f82601f8301126105db576105da61040e565b5b81356105eb848260208601610586565b91505092915050565b5f6020828403121561060957610608610313565b5b5f82013567ffffffffffffffff81111561062657610625610317565b5b610632848285016105c7565b91505092915050565b7f4e487b71000000000000000000000000000000000000000000000000000000005f52602260045260245ffd5b5f600282049050600182168061067f57607f821691505b6020821081036106925761069161063b565b5b50919050565b7f4e487b71000000000000000000000000000000000000000000000000000000005f52601160045260245ffd5b5f6106cf826102d9565b91506106da836102d9565b92508282019050808211156106f2576106f1610698565b5b92915050565b5f819050815f5260205f209050919050565b5f6020601f8301049050919050565b5f82821b905092915050565b5f600883026107547fffffffffffffffffffffffffffffffffffffffffffffffffffffffffffffffff82610719565b61075e8683610719565b95508019841693508086168417925050509392505050565b5f819050919050565b5f61079961079461078f846102d9565b610776565b6102d9565b9050919050565b5f819050919050565b6107b28361077f565b6107c66107be826107a0565b848454610725565b825550505050565b5f90565b6107da6107ce565b6107e58184846107a9565b505050565b5b81811015610808576107fd5f826107d2565b6001810190506107eb565b5050565b601f82111561084d5761081e816106f8565b6108278461070a565b81016020851015610836578190505b61084a6108428561070a565b8301826107ea565b50505b505050565b5f82821c905092915050565b5f61086d5f1984600802610852565b1980831691505092915050565b5f610885838361085e565b9150826002028217905092915050565b61089e82610370565b67ffffffffffffffff8111156108b7576108b66104d0565b5b6108c18254610668565b6108cc82828561080c565b5f60209050601f8311600181146108fd575f84156108eb578287015190505b6108f5858261087a565b86555061095c565b601f19841661090b866106f8565b5f5b828110156109325784890151825560018201915060208501945060208101905061090d565b8683101561094f578489015161094b601f89168261085e565b8355505b6001600288020188555050505b505050505050565b5f81905092915050565b5f6109798385610964565b9350610986838584610578565b82840190509392505050565b5f61099e82848661096e565b9150819050939250505056fea2646970667358221220df6c755b30b6bfde67c9af626713db15c4beac5fce3e75f4bcd0b7d306f064d864736f6c634300081a0033",
					"opcodes": "PUSH1 0x80 PUSH1 0x40 MSTORE CALLVALUE DUP1 ISZERO PUSH1 0xE JUMPI PUSH0 DUP1 REVERT JUMPDEST POP PUSH2 0x9E0 DUP1 PUSH2 0x1C PUSH0 CODECOPY PUSH0 RETURN INVALID PUSH1 0x80 PUSH1 0x40 MSTORE CALLVALUE DUP1 ISZERO PUSH2 0xF JUMPI PUSH0 DUP1 REVERT JUMPDEST POP PUSH1 0x4 CALLDATASIZE LT PUSH2 0x55 JUMPI PUSH0 CALLDATALOAD PUSH1 0xE0 SHR DUP1 PUSH4 0x2E64CEC1 EQ PUSH2 0x59 JUMPI DUP1 PUSH4 0x2EBCE631 EQ PUSH2 0x77 JUMPI DUP1 PUSH4 0x6057361D EQ PUSH2 0xA8 JUMPI DUP1 PUSH4 0x6F760F41 EQ PUSH2 0xC4 JUMPI DUP1 PUSH4 0x8BAB8DD5 EQ PUSH2 0xE0 JUMPI JUMPDEST PUSH0 DUP1 REVERT JUMPDEST PUSH2 0x61 PUSH2 0x110 JUMP JUMPDEST PUSH1 0x40 MLOAD PUSH2 0x6E SWAP2 SWAP1 PUSH2 0x2F1 JUMP JUMPDEST PUSH1 0x40 MLOAD DUP1 SWAP2 SUB SWAP1 RETURN JUMPDEST PUSH2 0x91 PUSH1 0x4 DUP1 CALLDATASIZE SUB DUP2 ADD SWAP1 PUSH2 0x8C SWAP2 SWAP1 PUSH2 0x345 JUMP JUMPDEST PUSH2 0x118 JUMP JUMPDEST PUSH1 0x40 MLOAD PUSH2 0x9F SWAP3 SWAP2 SWAP1 PUSH2 0x3E0 JUMP JUMPDEST PUSH1 0x40 MLOAD DUP1 SWAP2 SUB SWAP1 RETURN JUMPDEST PUSH2 0xC2 PUSH1 0x4 DUP1 CALLDATASIZE SUB DUP2 ADD SWAP1 PUSH2 0xBD SWAP2 SWAP1 PUSH2 0x345 JUMP JUMPDEST PUSH2 0x1CD JUMP JUMPDEST STOP JUMPDEST PUSH2 0xDE PUSH1 0x4 DUP1 CALLDATASIZE SUB DUP2 ADD SWAP1 PUSH2 0xD9 SWAP2 SWAP1 PUSH2 0x46F JUMP JUMPDEST PUSH2 0x1E2 JUMP JUMPDEST STOP JUMPDEST PUSH2 0xFA PUSH1 0x4 DUP1 CALLDATASIZE SUB DUP2 ADD SWAP1 PUSH2 0xF5 SWAP2 SWAP1 PUSH2 0x5F4 JUMP JUMPDEST PUSH2 0x2AC JUMP JUMPDEST PUSH1 0x40 MLOAD PUSH2 0x107 SWAP2 SWAP1 PUSH2 0x2F1 JUMP JUMPDEST PUSH1 0x40 MLOAD DUP1 SWAP2 SUB SWAP1 RETURN JUMPDEST PUSH0 DUP1 SLOAD SWAP1 POP SWAP1 JUMP JUMPDEST PUSH1 0x1 DUP2 DUP2 SLOAD DUP2 LT PUSH2 0x127 JUMPI PUSH0 DUP1 REVERT JUMPDEST SWAP1 PUSH0 MSTORE PUSH1 0x20 PUSH0 KECCAK256 SWAP1 PUSH1 0x2 MUL ADD PUSH0 SWAP2 POP SWAP1 POP DUP1 PUSH0 ADD SLOAD SWAP1 DUP1 PUSH1 0x1 ADD DUP1 SLOAD PUSH2 0x14C SWAP1 PUSH2 0x668 JUMP JUMPDEST DUP1 PUSH1 0x1F ADD PUSH1 0x20 DUP1 SWAP2 DIV MUL PUSH1 0x20 ADD PUSH1 0x40 MLOAD SWAP1 DUP2 ADD PUSH1 0x40 MSTORE DUP1 SWAP3 SWAP2 SWAP1 DUP2 DUP2 MSTORE PUSH1 0x20 ADD DUP3 DUP1 SLOAD PUSH2 0x178 SWAP1 PUSH2 0x668 JUMP JUMPDEST DUP1 ISZERO PUSH2 0x1C3 JUMPI DUP1 PUSH1 0x1F LT PUSH2 0x19A JUMPI PUSH2 0x100 DUP1 DUP4 SLOAD DIV MUL DUP4 MSTORE SWAP2 PUSH1 0x20 ADD SWAP2 PUSH2 0x1C3 JUMP JUMPDEST DUP3 ADD SWAP2 SWAP1 PUSH0 MSTORE PUSH1 0x20 PUSH0 KECCAK256 SWAP1 JUMPDEST DUP2 SLOAD DUP2 MSTORE SWAP1 PUSH1 0x1 ADD SWAP1 PUSH1 0x20 ADD DUP1 DUP4 GT PUSH2 0x1A6 JUMPI DUP3 SWAP1 SUB PUSH1 0x1F AND DUP3 ADD SWAP2 JUMPDEST POP POP POP POP POP SWAP1 POP DUP3 JUMP JUMPDEST PUSH1 0x5 DUP2 PUSH2 0x1DA SWAP2 SWAP1 PUSH2 0x6C5 JUMP JUMPDEST PUSH0 DUP2 SWAP1 SSTORE POP POP JUMP JUMPDEST PUSH1 0x1 PUSH1 0x40 MLOAD DUP1 PUSH1 0x40 ADD PUSH1 0x40 MSTORE DUP1 DUP4 DUP2 MSTORE PUSH1 0x20 ADD DUP6 DUP6 DUP1 DUP1 PUSH1 0x1F ADD PUSH1 0x20 DUP1 SWAP2 DIV MUL PUSH1 0x20 ADD PUSH1 0x40 MLOAD SWAP1 DUP2 ADD PUSH1 0x40 MSTORE DUP1 SWAP4 SWAP3 SWAP2 SWAP1 DUP2 DUP2 MSTORE PUSH1 0x20 ADD DUP4 DUP4 DUP1 DUP3 DUP5 CALLDATACOPY PUSH0 DUP2 DUP5 ADD MSTORE PUSH1 0x1F NOT PUSH1 0x1F DUP3 ADD AND SWAP1 POP DUP1 DUP4 ADD SWAP3 POP POP POP POP POP POP POP DUP2 MSTORE POP SWAP1 DUP1 PUSH1 0x1 DUP2 SLOAD ADD DUP1 DUP3 SSTORE DUP1 SWAP2 POP POP PUSH1 0x1 SWAP1 SUB SWAP1 PUSH0 MSTORE PUSH1 0x20 PUSH0 KECCAK256 SWAP1 PUSH1 0x2 MUL ADD PUSH0 SWAP1 SWAP2 SWAP1 SWAP2 SWAP1 SWAP2 POP PUSH0 DUP3 ADD MLOAD DUP2 PUSH0 ADD SSTORE PUSH1 0x20 DUP3 ADD MLOAD DUP2 PUSH1 0x1 ADD SWAP1 DUP2 PUSH2 0x27F SWAP2 SWAP1 PUSH2 0x895 JUMP JUMPDEST POP POP POP DUP1 PUSH1 0x2 DUP5 DUP5 PUSH1 0x40 MLOAD PUSH2 0x295 SWAP3 SWAP2 SWAP1 PUSH2 0x992 JUMP JUMPDEST SWAP1 DUP2 MSTORE PUSH1 0x20 ADD PUSH1 0x40 MLOAD DUP1 SWAP2 SUB SWAP1 KECCAK256 DUP2 SWAP1 SSTORE POP POP POP POP JUMP JUMPDEST PUSH1 0x2 DUP2 DUP1 MLOAD PUSH1 0x20 DUP2 ADD DUP3 ADD DUP1 MLOAD DUP5 DUP3 MSTORE PUSH1 0x20 DUP4 ADD PUSH1 0x20 DUP6 ADD KECCAK256 DUP2 DUP4 MSTORE DUP1 SWAP6 POP POP POP POP POP POP PUSH0 SWAP2 POP SWAP1 POP SLOAD DUP2 JUMP JUMPDEST PUSH0 DUP2 SWAP1 POP SWAP2 SWAP1 POP JUMP JUMPDEST PUSH2 0x2EB DUP2 PUSH2 0x2D9 JUMP JUMPDEST DUP3 MSTORE POP POP JUMP JUMPDEST PUSH0 PUSH1 0x20 DUP3 ADD SWAP1 POP PUSH2 0x304 PUSH0 DUP4 ADD DUP5 PUSH2 0x2E2 JUMP JUMPDEST SWAP3 SWAP2 POP POP JUMP JUMPDEST PUSH0 PUSH1 0x40 MLOAD SWAP1 POP SWAP1 JUMP JUMPDEST PUSH0 DUP1 REVERT JUMPDEST PUSH0 DUP1 REVERT JUMPDEST PUSH2 0x324 DUP2 PUSH2 0x2D9 JUMP JUMPDEST DUP2 EQ PUSH2 0x32E JUMPI PUSH0 DUP1 REVERT JUMPDEST POP JUMP JUMPDEST PUSH0 DUP2 CALLDATALOAD SWAP1 POP PUSH2 0x33F DUP2 PUSH2 0x31B JUMP JUMPDEST SWAP3 SWAP2 POP POP JUMP JUMPDEST PUSH0 PUSH1 0x20 DUP3 DUP5 SUB SLT ISZERO PUSH2 0x35A JUMPI PUSH2 0x359 PUSH2 0x313 JUMP JUMPDEST JUMPDEST PUSH0 PUSH2 0x367 DUP5 DUP3 DUP6 ADD PUSH2 0x331 JUMP JUMPDEST SWAP2 POP POP SWAP3 SWAP2 POP POP JUMP JUMPDEST PUSH0 DUP2 MLOAD SWAP1 POP SWAP2 SWAP1 POP JUMP JUMPDEST PUSH0 DUP3 DUP3 MSTORE PUSH1 0x20 DUP3 ADD SWAP1 POP SWAP3 SWAP2 POP POP JUMP JUMPDEST DUP3 DUP2 DUP4 MCOPY PUSH0 DUP4 DUP4 ADD MSTORE POP POP POP JUMP JUMPDEST PUSH0 PUSH1 0x1F NOT PUSH1 0x1F DUP4 ADD AND SWAP1 POP SWAP2 SWAP1 POP JUMP JUMPDEST PUSH0 PUSH2 0x3B2 DUP3 PUSH2 0x370 JUMP JUMPDEST PUSH2 0x3BC DUP2 DUP6 PUSH2 0x37A JUMP JUMPDEST SWAP4 POP PUSH2 0x3CC DUP2 DUP6 PUSH1 0x20 DUP7 ADD PUSH2 0x38A JUMP JUMPDEST PUSH2 0x3D5 DUP2 PUSH2 0x398 JUMP JUMPDEST DUP5 ADD SWAP2 POP POP SWAP3 SWAP2 POP POP JUMP JUMPDEST PUSH0 PUSH1 0x40 DUP3 ADD SWAP1 POP PUSH2 0x3F3 PUSH0 DUP4 ADD DUP6 PUSH2 0x2E2 JUMP JUMPDEST DUP2 DUP2 SUB PUSH1 0x20 DUP4 ADD MSTORE PUSH2 0x405 DUP2 DUP5 PUSH2 0x3A8 JUMP JUMPDEST SWAP1 POP SWAP4 SWAP3 POP POP POP JUMP JUMPDEST PUSH0 DUP1 REVERT JUMPDEST PUSH0 DUP1 REVERT JUMPDEST PUSH0 DUP1 REVERT JUMPDEST PUSH0 DUP1 DUP4 PUSH1 0x1F DUP5 ADD SLT PUSH2 0x42F JUMPI PUSH2 0x42E PUSH2 0x40E JUMP JUMPDEST JUMPDEST DUP3 CALLDATALOAD SWAP1 POP PUSH8 0xFFFFFFFFFFFFFFFF DUP2 GT ISZERO PUSH2 0x44C JUMPI PUSH2 0x44B PUSH2 0x412 JUMP JUMPDEST JUMPDEST PUSH1 0x20 DUP4 ADD SWAP2 POP DUP4 PUSH1 0x1 DUP3 MUL DUP4 ADD GT ISZERO PUSH2 0x468 JUMPI PUSH2 0x467 PUSH2 0x416 JUMP JUMPDEST JUMPDEST SWAP3 POP SWAP3 SWAP1 POP JUMP JUMPDEST PUSH0 DUP1 PUSH0 PUSH1 0x40 DUP5 DUP7 SUB SLT ISZERO PUSH2 0x486 JUMPI PUSH2 0x485 PUSH2 0x313 JUMP JUMPDEST JUMPDEST PUSH0 DUP5 ADD CALLDATALOAD PUSH8 0xFFFFFFFFFFFFFFFF DUP2 GT ISZERO PUSH2 0x4A3 JUMPI PUSH2 0x4A2 PUSH2 0x317 JUMP JUMPDEST JUMPDEST PUSH2 0x4AF DUP7 DUP3 DUP8 ADD PUSH2 0x41A JUMP JUMPDEST SWAP4 POP SWAP4 POP POP PUSH1 0x20 PUSH2 0x4C2 DUP7 DUP3 DUP8 ADD PUSH2 0x331 JUMP JUMPDEST SWAP2 POP POP SWAP3 POP SWAP3 POP SWAP3 JUMP JUMPDEST PUSH0 DUP1 REVERT JUMPDEST PUSH32 0x4E487B7100000000000000000000000000000000000000000000000000000000 PUSH0 MSTORE PUSH1 0x41 PUSH1 0x4 MSTORE PUSH1 0x24 PUSH0 REVERT JUMPDEST PUSH2 0x506 DUP3 PUSH2 0x398 JUMP JUMPDEST DUP2 ADD DUP2 DUP2 LT PUSH8 0xFFFFFFFFFFFFFFFF DUP3 GT OR ISZERO PUSH2 0x525 JUMPI PUSH2 0x524 PUSH2 0x4D0 JUMP JUMPDEST JUMPDEST DUP1 PUSH1 0x40 MSTORE POP POP POP JUMP JUMPDEST PUSH0 PUSH2 0x537 PUSH2 0x30A JUMP JUMPDEST SWAP1 POP PUSH2 0x543 DUP3 DUP3 PUSH2 0x4FD JUMP JUMPDEST SWAP2 SWAP1 POP JUMP JUMPDEST PUSH0 PUSH8 0xFFFFFFFFFFFFFFFF DUP3 GT ISZERO PUSH2 0x562 JUMPI PUSH2 0x561 PUSH2 0x4D0 JUMP JUMPDEST JUMPDEST PUSH2 0x56B DUP3 PUSH2 0x398 JUMP JUMPDEST SWAP1 POP PUSH1 0x20 DUP2 ADD SWAP1 POP SWAP2 SWAP1 POP JUMP JUMPDEST DUP3 DUP2 DUP4 CALLDATACOPY PUSH0 DUP4 DUP4 ADD MSTORE POP POP POP JUMP JUMPDEST PUSH0 PUSH2 0x598 PUSH2 0x593 DUP5 PUSH2 0x548 JUMP JUMPDEST PUSH2 0x52E JUMP JUMPDEST SWAP1 POP DUP3 DUP2 MSTORE PUSH1 0x20 DUP2 ADD DUP5 DUP5 DUP5 ADD GT ISZERO PUSH2 0x5B4 JUMPI PUSH2 0x5B3 PUSH2 0x4CC JUMP JUMPDEST JUMPDEST PUSH2 0x5BF DUP5 DUP3 DUP6 PUSH2 0x578 JUMP JUMPDEST POP SWAP4 SWAP3 POP POP POP JUMP JUMPDEST PUSH0 DUP3 PUSH1 0x1F DUP4 ADD SLT PUSH2 0x5DB JUMPI PUSH2 0x5DA PUSH2 0x40E JUMP JUMPDEST JUMPDEST DUP2 CALLDATALOAD PUSH2 0x5EB DUP5 DUP3 PUSH1 0x20 DUP7 ADD PUSH2 0x586 JUMP JUMPDEST SWAP2 POP POP SWAP3 SWAP2 POP POP JUMP JUMPDEST PUSH0 PUSH1 0x20 DUP3 DUP5 SUB SLT ISZERO PUSH2 0x609 JUMPI PUSH2 0x608 PUSH2 0x313 JUMP JUMPDEST JUMPDEST PUSH0 DUP3 ADD CALLDATALOAD PUSH8 0xFFFFFFFFFFFFFFFF DUP2 GT ISZERO PUSH2 0x626 JUMPI PUSH2 0x625 PUSH2 0x317 JUMP JUMPDEST JUMPDEST PUSH2 0x632 DUP5 DUP3 DUP6 ADD PUSH2 0x5C7 JUMP JUMPDEST SWAP2 POP POP SWAP3 SWAP2 POP POP JUMP JUMPDEST PUSH32 0x4E487B7100000000000000000000000000000000000000000000000000000000 PUSH0 MSTORE PUSH1 0x22 PUSH1 0x4 MSTORE PUSH1 0x24 PUSH0 REVERT JUMPDEST PUSH0 PUSH1 0x2 DUP3 DIV SWAP1 POP PUSH1 0x1 DUP3 AND DUP1 PUSH2 0x67F JUMPI PUSH1 0x7F DUP3 AND SWAP2 POP JUMPDEST PUSH1 0x20 DUP3 LT DUP2 SUB PUSH2 0x692 JUMPI PUSH2 0x691 PUSH2 0x63B JUMP JUMPDEST JUMPDEST POP SWAP2 SWAP1 POP JUMP JUMPDEST PUSH32 0x4E487B7100000000000000000000000000000000000000000000000000000000 PUSH0 MSTORE PUSH1 0x11 PUSH1 0x4 MSTORE PUSH1 0x24 PUSH0 REVERT JUMPDEST PUSH0 PUSH2 0x6CF DUP3 PUSH2 0x2D9 JUMP JUMPDEST SWAP2 POP PUSH2 0x6DA DUP4 PUSH2 0x2D9 JUMP JUMPDEST SWAP3 POP DUP3 DUP3 ADD SWAP1 POP DUP1 DUP3 GT ISZERO PUSH2 0x6F2 JUMPI PUSH2 0x6F1 PUSH2 0x698 JUMP JUMPDEST JUMPDEST SWAP3 SWAP2 POP POP JUMP JUMPDEST PUSH0 DUP2 SWAP1 POP DUP2 PUSH0 MSTORE PUSH1 0x20 PUSH0 KECCAK256 SWAP1 POP SWAP2 SWAP1 POP JUMP JUMPDEST PUSH0 PUSH1 0x20 PUSH1 0x1F DUP4 ADD DIV SWAP1 POP SWAP2 SWAP1 POP JUMP JUMPDEST PUSH0 DUP3 DUP3 SHL SWAP1 POP SWAP3 SWAP2 POP POP JUMP JUMPDEST PUSH0 PUSH1 0x8 DUP4 MUL PUSH2 0x754 PUSH32 0xFFFFFFFFFFFFFFFFFFFFFFFFFFFFFFFFFFFFFFFFFFFFFFFFFFFFFFFFFFFFFFFF DUP3 PUSH2 0x719 JUMP JUMPDEST PUSH2 0x75E DUP7 DUP4 PUSH2 0x719 JUMP JUMPDEST SWAP6 POP DUP1 NOT DUP5 AND SWAP4 POP DUP1 DUP7 AND DUP5 OR SWAP3 POP POP POP SWAP4 SWAP3 POP POP POP JUMP JUMPDEST PUSH0 DUP2 SWAP1 POP SWAP2 SWAP1 POP JUMP JUMPDEST PUSH0 PUSH2 0x799 PUSH2 0x794 PUSH2 0x78F DUP5 PUSH2 0x2D9 JUMP JUMPDEST PUSH2 0x776 JUMP JUMPDEST PUSH2 0x2D9 JUMP JUMPDEST SWAP1 POP SWAP2 SWAP1 POP JUMP JUMPDEST PUSH0 DUP2 SWAP1 POP SWAP2 SWAP1 POP JUMP JUMPDEST PUSH2 0x7B2 DUP4 PUSH2 0x77F JUMP JUMPDEST PUSH2 0x7C6 PUSH2 0x7BE DUP3 PUSH2 0x7A0 JUMP JUMPDEST DUP5 DUP5 SLOAD PUSH2 0x725 JUMP JUMPDEST DUP3 SSTORE POP POP POP POP JUMP JUMPDEST PUSH0 SWAP1 JUMP JUMPDEST PUSH2 0x7DA PUSH2 0x7CE JUMP JUMPDEST PUSH2 0x7E5 DUP2 DUP5 DUP5 PUSH2 0x7A9 JUMP JUMPDEST POP POP POP JUMP JUMPDEST JUMPDEST DUP2 DUP2 LT ISZERO PUSH2 0x808 JUMPI PUSH2 0x7FD PUSH0 DUP3 PUSH2 0x7D2 JUMP JUMPDEST PUSH1 0x1 DUP2 ADD SWAP1 POP PUSH2 0x7EB JUMP JUMPDEST POP POP JUMP JUMPDEST PUSH1 0x1F DUP3 GT ISZERO PUSH2 0x84D JUMPI PUSH2 0x81E DUP2 PUSH2 0x6F8 JUMP JUMPDEST PUSH2 0x827 DUP5 PUSH2 0x70A JUMP JUMPDEST DUP2 ADD PUSH1 0x20 DUP6 LT ISZERO PUSH2 0x836 JUMPI DUP2 SWAP1 POP JUMPDEST PUSH2 0x84A PUSH2 0x842 DUP6 PUSH2 0x70A JUMP JUMPDEST DUP4 ADD DUP3 PUSH2 0x7EA JUMP JUMPDEST POP POP JUMPDEST POP POP POP JUMP JUMPDEST PUSH0 DUP3 DUP3 SHR SWAP1 POP SWAP3 SWAP2 POP POP JUMP JUMPDEST PUSH0 PUSH2 0x86D PUSH0 NOT DUP5 PUSH1 0x8 MUL PUSH2 0x852 JUMP JUMPDEST NOT DUP1 DUP4 AND SWAP2 POP POP SWAP3 SWAP2 POP POP JUMP JUMPDEST PUSH0 PUSH2 0x885 DUP4 DUP4 PUSH2 0x85E JUMP JUMPDEST SWAP2 POP DUP3 PUSH1 0x2 MUL DUP3 OR SWAP1 POP SWAP3 SWAP2 POP POP JUMP JUMPDEST PUSH2 0x89E DUP3 PUSH2 0x370 JUMP JUMPDEST PUSH8 0xFFFFFFFFFFFFFFFF DUP2 GT ISZERO PUSH2 0x8B7 JUMPI PUSH2 0x8B6 PUSH2 0x4D0 JUMP JUMPDEST JUMPDEST PUSH2 0x8C1 DUP3 SLOAD PUSH2 0x668 JUMP JUMPDEST PUSH2 0x8CC DUP3 DUP3 DUP6 PUSH2 0x80C JUMP JUMPDEST PUSH0 PUSH1 0x20 SWAP1 POP PUSH1 0x1F DUP4 GT PUSH1 0x1 DUP2 EQ PUSH2 0x8FD JUMPI PUSH0 DUP5 ISZERO PUSH2 0x8EB JUMPI DUP3 DUP8 ADD MLOAD SWAP1 POP JUMPDEST PUSH2 0x8F5 DUP6 DUP3 PUSH2 0x87A JUMP JUMPDEST DUP7 SSTORE POP PUSH2 0x95C JUMP JUMPDEST PUSH1 0x1F NOT DUP5 AND PUSH2 0x90B DUP7 PUSH2 0x6F8 JUMP JUMPDEST PUSH0 JUMPDEST DUP3 DUP2 LT ISZERO PUSH2 0x932 JUMPI DUP5 DUP10 ADD MLOAD DUP3 SSTORE PUSH1 0x1 DUP3 ADD SWAP2 POP PUSH1 0x20 DUP6 ADD SWAP5 POP PUSH1 0x20 DUP2 ADD SWAP1 POP PUSH2 0x90D JUMP JUMPDEST DUP7 DUP4 LT ISZERO PUSH2 0x94F JUMPI DUP5 DUP10 ADD MLOAD PUSH2 0x94B PUSH1 0x1F DUP10 AND DUP3 PUSH2 0x85E JUMP JUMPDEST DUP4 SSTORE POP JUMPDEST PUSH1 0x1 PUSH1 0x2 DUP9 MUL ADD DUP9 SSTORE POP POP POP JUMPDEST POP POP POP POP POP POP JUMP JUMPDEST PUSH0 DUP2 SWAP1 POP SWAP3 SWAP2 POP POP JUMP JUMPDEST PUSH0 PUSH2 0x979 DUP4 DUP6 PUSH2 0x964 JUMP JUMPDEST SWAP4 POP PUSH2 0x986 DUP4 DUP6 DUP5 PUSH2 0x578 JUMP JUMPDEST DUP3 DUP5 ADD SWAP1 POP SWAP4 SWAP3 POP POP POP JUMP JUMPDEST PUSH0 PUSH2 0x99E DUP3 DUP5 DUP7 PUSH2 0x96E JUMP JUMPDEST SWAP2 POP DUP2 SWAP1 POP SWAP4 SWAP3 POP POP POP JUMP INVALID LOG2 PUSH5 0x6970667358 0x22 SLT KECCAK256 0xDF PUSH13 0x755B30B6BFDE67C9AF626713DB ISZERO 0xC4 0xBE 0xAC PUSH0 0xCE RETURNDATACOPY PUSH22 0xF4BCD0B7D306F064D864736F6C634300081A00330000 "
				},
				"gasEstimates": {
					"creation": {
						"codeDepositCost": "505600",
						"executionCost": "535",
						"totalCost": "506135"
					},
					"external": {
						"addPerson(string,uint256)": "infinite",
						"listOfPeople(uint256)": "infinite",
						"nameToFavoriteNumber(string)": "infinite",
						"retrieve()": "2410",
						"store(uint256)": "infinite"
					}
				},
				"methodIdentifiers": {
					"addPerson(string,uint256)": "6f760f41",
					"listOfPeople(uint256)": "2ebce631",
					"nameToFavoriteNumber(string)": "8bab8dd5",
					"retrieve()": "2e64cec1",
					"store(uint256)": "6057361d"
				}
			},
			"storageLayout": {
				"storage": [
					{
						"astId": 23,
						"contract": "AddFiveStorage.sol:AddFiveStorage",
						"label": "myFavoriteNumber",
						"offset": 0,
						"slot": "0",
						"type": "t_uint256"
					},
					{
						"astId": 32,
						"contract": "AddFiveStorage.sol:AddFiveStorage",
						"label": "listOfPeople",
						"offset": 0,
						"slot": "1",
						"type": "t_array(t_struct(Person)28_storage)dyn_storage"
					},
					{
						"astId": 36,
						"contract": "AddFiveStorage.sol:AddFiveStorage",
						"label": "nameToFavoriteNumber",
						"offset": 0,
						"slot": "2",
						"type": "t_mapping(t_string_memory_ptr,t_uint256)"
					}
				],
				"types": {
					"t_array(t_struct(Person)28_storage)dyn_storage": {
						"base": "t_struct(Person)28_storage",
						"encoding": "dynamic_array",
						"label": "struct SimpleStorage.Person[]",
						"numberOfBytes": "32"
					},
					"t_mapping(t_string_memory_ptr,t_uint256)": {
						"encoding": "mapping",
						"key": "t_string_memory_ptr",
						"label": "mapping(string => uint256)",
						"numberOfBytes": "32",
						"value": "t_uint256"
					},
					"t_string_memory_ptr": {
						"encoding": "bytes",
						"label": "string",
						"numberOfBytes": "32"
					},
					"t_string_storage": {
						"encoding": "bytes",
						"label": "string",
						"numberOfBytes": "32"
					},
					"t_struct(Person)28_storage": {
						"encoding": "inplace",
						"label": "struct SimpleStorage.Person",
						"members": [
							{
								"astId": 25,
								"contract": "AddFiveStorage.sol:AddFiveStorage",
								"label": "favoriteNumber",
								"offset": 0,
								"slot": "0",
								"type": "t_uint256"
							},
							{
								"astId": 27,
								"contract": "AddFiveStorage.sol:AddFiveStorage",
								"label": "name",
								"offset": 0,
								"slot": "1",
								"type": "t_string_storage"
							}
						],
						"numberOfBytes": "64"
					},
					"t_uint256": {
						"encoding": "inplace",
						"label": "uint256",
						"numberOfBytes": "32"
					}
				}
			},
			"userdoc": {
				"kind": "user",
				"methods": {},
				"version": 1
			}
		}
	}
}